:020000040800F2
:10000000980E002045010008AD280008AF28000820
:10001000B3280008B7280008BB280008000000002B
:10002000000000000000000000000000BF280008E1
:10003000C128000800000000C3280008C5280008E7
:100040005F0100085F0100085F010008C728000881
:100050005F0100085F0100085F0100085F01000800
:100060005F0100085F0100085F0100085F010008F0
:100070005F0100085F0100085F0100085F010008E0
:100080005F0100085F0100085F0100085F010008D0
:100090005F0100085F0100085F0100088F2D000864
:1000A0005F0100085F0100085F0100085F010008B0
:1000B0005F0100085F0100085F0100085F010008A0
:1000C0005F0100085F0100085F0100085F01000890
:1000D0005F0100085F0100085F0100085F01000880
:1000E0005F0100085F0100085F0100085F01000870
:1000F0005F0100085F0100085F0100085F01000860
:100100005F0100085F0100085F0100085F0100084F
:100110005F0100085F0100086F2900085F01000807
:100120005F0100085F0100085F0100085F0100082F
:10013000DFF80CD005F0ACFC004800474D28000863
:10014000980E00200648804706480047FEE7FEE775
:10015000FEE7FEE7FEE7FEE7FEE7FEE7FEE7FEE777
:1001600047020008310100080CB500200190009002
:100170006C48006840F480306A49086000BF6948F4
:10018000006800F4003000900198401C0190009835
:1001900018B90198B0F5A06FF1D16248006800F479
:1001A000003010B10120009001E000200090009884
:1001B000012843D15C48006840F010005A490860AB
:1001C0000846006820F0030008600846006840F018
:1001D0000200086053484068524948600846406839
:1001E00048600846406840F48060486008464068BF
:1001F00020F47C1048600846406840F4E8104860ED
:100200000846006840F08070086000BF45480068FC
:1002100000F000700028F9D04248406820F0030048
:10022000404948600846406840F00200486000BF0E
:100230003C48406800F00C000828F9D10CBD10B50E
:10024000FFF792FF10BD10B53648006840F001007E
:1002500034490860084640683449084031494860DC
:1002600008460068324908402E4908600846006880
:1002700020F4802008600846406820F4FE004860B2
:100280004FF41F008860FFF7DAFF4FF00060294944
:10029000086010BD10B5002100200022214B5B68D2
:1002A00003F00C0121B1042906D0082928D107E068
:1002B000214B224C236027E01F4B204C236023E07E
:1002C000184B5B6803F47010164B5B6803F48032C4
:1002D000022303EB904022B9194B4343174C236090
:1002E0000DE0104B5B6803F4003323B1144B434320
:1002F000124C236003E0104B4343104C236003E097
:100300000D4B0E4C236000BF00BF064B5B68C3F370
:1003100003130C4CE15C094B1B68CB40074C23607A
:1003200010BD000000100240002002400000FFF855
:10033000FFFFF6FE08ED00E000127A00000000204A
:1003400000093D000400002031490143314A116099
:10035000704770B5002100230F22C47804B32D4CE0
:10036000246804F4E064C4F5E064210AC1F10403E4
:10037000CA40447804FA03F1847814402143090107
:10038000254C0678A155047804F01F050124AC40E3
:1003900005786D11AD0005F1E025C5F8004109E0D3
:1003A000047804F01F050124AC401C4D067876113A
:1003B00045F8264070BD1A4A0A400243154B1B1FE0
:1003C0001A60704739B1134A121D12680243114B6B
:1003D0001B1D1A6006E00F4A121D126882430D4B66
:1003E0001B1D1A607047042808D14FF0E0210969ED
:1003F00041F004014FF0E022116107E04FF0E021ED
:10040000096921F004014FF0E022116170470000FA
:100410000000FA050CED00E000E400E080E100E0FF
:1004200080FFFF1F10B5012000F0A4FE002000F0A7
:10043000A1FE10BD2A49086070472949091F0860BC
:100440007047274984310860704701460020254ADB
:1004500010884FF67F4210400843224A10807047B0
:10046000014600201F4A10884FF680721040084352
:100470001C4A1080704708B500220092194A2C3A95
:100480000092009A02440092009A116008BD08B5DB
:1004900001460020009013482C3800900098084432
:1004A00000900098008808BD0D489C300068C0B2DC
:1004B00070470C480830008840F0010009490831B5
:1004C000088070470648A0300068C0B270470548F1
:1004D0000830008840F00200024908310880704767
:1004E00004860D422C6C0040002044490860091D20
:1004F0000860091D0860091D086041483F49143122
:100500000860704700213D498279002A3AD00A46A6
:10051000126803689A430B461A600A1D1268036842
:100520009A430B1D1A60027911440A6803681A4342
:100530000A60324A0832126803689A432F4B083324
:100540001A601A1D126803689A432C4B0C331A6008
:100550004279102A0ED11A1F126803681A43274BDA
:1005600008331A601A1D126803681A43234B0C33B0
:100570001A600DE02149427911440A6803681A4360
:100580000A6005E0027911440A6803689A430A6028
:1005900070470021016001710C21417100218171BE
:1005A00070471649103109680143144A103211602E
:1005B000704701460020114A143212680A400AB1FD
:1005C000012000E0002070470C491431086070479A
:1005D000014600200022094B1B6803EA0102074B79
:1005E00014331B680B4013B10AB1012000E0002056
:1005F0007047024914310860704700000004014050
:10060000FFFF0F0010B50446CC48844208D10121F9
:10061000042000F095FD0021042000F091FD46E04B
:10062000C748844208D10121082000F089FD00213B
:10063000082000F085FD3AE0C248844208D101213B
:10064000102000F07DFD0021102000F079FD2EE04B
:10065000BD48844208D10121202000F071FD002115
:10066000202000F06DFD22E0B848844208D101212D
:10067000402000F065FD0021402000F061FD16E003
:10068000B348844208D10121802000F059FD0021A7
:10069000802000F055FD0AE0AE48844207D10121D8
:1006A000801500F04DFD0021A01500F049FD10BDA2
:1006B00010B50121084600F043FD0021012000F0A3
:1006C0003FFD10BD2DE9F041024600250026002027
:1006D00000230024002791F803C00CF00F0591F8C7
:1006E00003C00CF0100CBCF1000F03D091F802C055
:1006F0004CEA050591F800C0BCF1000F31D0146838
:1007000000202BE04FF0010C0CFA00F3B1F800C010
:100710000CEA03069E4220D183004FF00F0C0CFA26
:1007200003F7BC4305FA03FC4CEA040491F803C048
:10073000BCF1280F06D14FF0010C0CFA00FCC2F8F6
:1007400014C00AE091F803C0BCF1480F05D14FF086
:10075000010C0CFA00FCC2F810C0401C0828D1D3D0
:100760001460B1F800C0BCF1FF0F34DD5468002004
:100770002EE000F1080C4FF0010808FA0CF3B1F874
:1007800000C00CEA03069E4221D183004FF00F0CFB
:100790000CFA03F7BC4305FA03FC4CEA040491F895
:1007A00003C0BCF1280F05D100F1080C08FA0CF8C1
:1007B000C2F8148091F803C0BCF1480F07D100F1D2
:1007C000080C4FF0010808FA0CF8C2F81080401C21
:1007D0000828CED35460BDE8F0814FF6FF71018048
:1007E000022181700421C170704702460020936885
:1007F0000B400BB1012000E00020704701468868E3
:1008000080B2704702460020D3680B400BB1012034
:1008100000E0002070470146C86880B2704701615F
:100820007047416170470AB1016100E04161704762
:10083000C16070474FF480320A43826181618261F6
:1008400082698269704702460020434B18684FF660
:100850008073184040EA021008433F4B186070470D
:100860003E49C8617047F0B50A46002300240021C4
:10087000002500F00046B6F1004F02D1364EF16976
:1008800001E0354E7168C0F3034583B200F44016B1
:10089000B6F5401F08D121F070612F4E766826F022
:1008A00070662D4F7E6012E000F48016B6F5801F52
:1008B00006D1032606FA05F4A14341F0706106E073
:1008C000460D360103FA06F6B14341F0706122B1DC
:1008D000460D360103FA06F6314300F00046B6F144
:1008E000004F02D11C4EF16101E01B4E7160F0BD62
:1008F00030B500228B071C0F0F2303FA04F2164BAE
:1009000008338C1053F824309343134C08348D1063
:1009100044F8253023468C1053F824308C07240FDC
:1009200000FA04F423430C4C08348D1044F82530AD
:1009300030BD0A49DC310860704700000008014002
:10094000000C01400010014000140140001801405B
:10095000001C014000200140000001400000204236
:1009600010B50446F748844209D10121480500F03A
:10097000F4FB00214FF4001000F0EFFB08E0012130
:10098000880500F0EAFB00214FF4800000F0E5FB51
:1009900010BD2DE9F04385B004460D460026B14652
:1009A0000427DFF8A483A6884FF6C0700640684687
:1009B00000F03FFBDDF80880E448B8FBF0F01FFAD8
:1009C00080F946EA0906A68020884FF6FE710840A5
:1009D00020800026DE49286888420CD8286840001C
:1009E000B8FBF0F087B2042F00DA04273E4309F188
:1009F0000100208427E0E8884BF6FF71884206D189
:100A0000286800EB4000B8FBF0F087B209E02868E6
:100A100000EBC00101EB0010B8FBF0F087B247F427
:100A20008047C7F30B0008B947F0010747F40040BF
:100A300006434FF4967009FB00F04FF47A7190FB77
:100A4000F1F0401C2084A683208840F00100208023
:100A500026884FF6F5300640A88869890843064382
:100A60002680A88929890843208105B0BDE8F08344
:100A700041F288310160002181804BF6FF71C18015
:100A80000021018141814FF480418181704721B172
:100A9000028842F00102028004E002884FF6FE73F1
:100AA0001A400280704721B1828842F4006282803D
:100AB00004E082884FF2FF731A408280704721B1B0
:100AC000828842F48052828004E082884EF6FF736E
:100AD0001A408280704721B1028842F480720280FD
:100AE00004E002884FF6FF631A400280704721B18C
:100AF000028842F40072028004E002884FF6FF533D
:100B00001A400280704721B1028842F4806202805C
:100B100004E002884FF6FF331A40028070470A460D
:100B2000002181894FF60173194002F0FE03194339
:100B30008181704721B1828942F00102828104E003
:100B400082894FF6FE731A408281704721B1028874
:100B500042F04002028004E002884FF6BF731A4060
:100B6000028070471AB183880B43838002E0838838
:100B70008B4383807047018270470146088AC0B268
:100B8000704712B141F0010102E04FF6FE731940C7
:100B90000182704708B5024600200090009200983C
:100BA000084400900098008808BD21B1028842F4F2
:100BB0000042028003E00288C2F30E020280704706
:100BC000B1F5006F04D1028842F40062028004E0B3
:100BD00002884FF2FF731A4002807047B1F5005F40
:100BE00004D1028842F40052028004E002884DF6EB
:100BF000FF731A400280704721B1028842F480528C
:100C0000028004E002884EF6FF731A4002807047AB
:100C1000B1F5006F04D1028842F40062028004E062
:100C200002884FF2FF731A400280704721B1028898
:100C300042F02002028004E002884FF6DF731A407F
:100C4000028070470146088B0012704721B102886C
:100C500042F01002028004E002884FF6EF731A405F
:100C60000280704721B9028842F08002028004E0CD
:100C700002884FF67F731A4002807047B1F5804FAB
:100C800005D0828B4BF6FF731A40828303E0828B80
:100C900042F480428283704770B5024600240025EA
:100CA00000230020958A138B1B0445EA030626F0D7
:100CB0007F4404EA01068E4201D1012000E00020B9
:100CC00070BD10B501460020002300228B8A0A8BDC
:100CD000120443EA020424F07F4010BD0CB5024622
:100CE000002000230193009300920B0F019321F049
:100CF0007F41019B1BB1009B1433009303E0090C5F
:100D0000009B18330093009B1B680B400BB1012024
:100D100000E000200CBD002221F07F42D3438382FB
:100D2000704730B5024600200023948801F0E0654A
:100D300004EA154321F07F41948A0C4054B14BB131
:100D4000012008E00054004000127A0040420F00E9
:100D5000A0860100002030BD002221F07F42D34355
:100D60008382704710B50121080700F0F6F90021D1
:100D70004FF0805000F0F1F910BD2A490862704729
:100D800028490861704701460020274A106820F072
:100D9000E0000843106070472249A03108607047A6
:100DA00010B502460020204B186820F003001043C5
:100DB00018601E4B1B6843F004031C4C2360012980
:100DC00001D130BF00E020BF184B1B6823F00403A3
:100DD000164C236010BD1448006840F0040012490E
:100DE00008600846006840F0020008600F4800688C
:100DF00040F004000D49086000BF00BF30BF7047DD
:100E000001460020084A52680A400AB1012000E069
:100E1000002070470449096841EA8001024A1160D4
:100E20007047000000000E420070004010ED00E02E
:100E3000DF48006840F00100DD490860084640686E
:100E4000DC490840DA49486008460068DA49084049
:100E5000D74908600846006820F4802008600846EA
:100E6000406820F4FE0048604FF41F00886070471F
:100E7000CF49096821F48031CD4A116011460968D3
:100E800021F480211160B0F5803F03D0B0F5802FB0
:100E90000ED106E0C649096841F48031C44A1160A8
:100EA00007E0C349096841F4A021C14A116000E08C
:100EB00000BF00BF704710B501460022002300208C
:100EC0004A11012A02D1BA4C236806E0022A02D153
:100ED000B74C236A01E0B64C636A01F01F0201249B
:100EE00094401C400CB1012000E0002010BD38B53A
:100EF000002000900024002500BF3120FFF7DBFF19
:100F000005460098401C00900098B0F5A06F01D0F5
:100F1000002DF2D03120FFF7CEFF08B1012400E010
:100F20000024204638BD01460020A14A106820F068
:100F3000F80040EAC10010607047A049086070479F
:100F4000024600209A4B586820F47C1042EA0103C4
:100F50001843974B58607047984908667047014698
:100F60000020934A506820F0030008435060704707
:100F70008F48406800F00C007047014600208C4A02
:100F8000506820F0F0000843506070470146002090
:100F9000874A506820F4E06008435060704701467B
:100FA0000020834A506820F4605040EAC10050603D
:100FB000704729B17E4A527A02437D4B5A7204E04F
:100FC0007B4A527A82437A4B5A7270477B49D831B6
:100FD0000860704701460020754A506820F4404080
:100FE0000843506070470021714A20321170704AE6
:100FF00082F82010012802D004280AD104E001213F
:101000006B4A2032117005E00521694A20321170C7
:1010100000E000BF00BF704769490860704764493D
:10102000096A0143624A11627047654944390860A0
:10103000704730B500210022002400235C4D6D680C
:1010400005F00C0121B1042905D0082923D105E0C0
:101050005C4D056022E05B4D05601FE0544D6D68FE
:1010600005F47012524D6D6805F48034022505EBCD
:1010700092421CB9544D554305600BE04C4D6D68D0
:1010800005F400351DB1504D5543056002E04D4D4E
:101090005543056002E04B4D056000BF00BF444D65
:1010A0006D6805F0F0010909484D6B5C0568DD408D
:1010B00045603F4D6D6805F4E061090A434D6B5C86
:1010C0004568DD4085603A4D6D6805F46051C90A98
:1010D0003E4D6B5C4568DD40C560354D6D6805F47F
:1010E0004041890B3A4D6B5CC568B5FBF3F5056172
:1010F00030BD29B12E4A526902432D4B5A6104E09A
:101100002B4A526982432A4B5A61704729B1284AB7
:1011100092690243264B9A6104E0254A9269824310
:10112000234B9A61704729B1214AD2690243204B6F
:10113000DA6104E01E4AD26982431D4BDA617047CE
:1011400029B11B4AD2680243194BDA6004E0184AFD
:10115000D2688243164BDA60704729B1144A12698B
:101160000243134B1A6104E0114A12698243104B87
:101170001A61704712494039086070470F49C864C6
:1011800070470B49C87170470948406A40F0807049
:1011900007494862704701460020054A92680A40A4
:1011A0000AB1012000E000207047014988727047B1
:1011B000001002400000FFF8FFFFF6FE0000424270
:1011C0008004424200127A0000093D001400002011
:1011D0002400002029B1504A128802434E4B1A8045
:1011E00004E04D4A128882434B4B1A8070474A48AC
:1011F000001D008840F010004749091D0880704715
:101200004548001D00884FF6EF7108404249091D0E
:1012100008807047002140481C300188001F00886A
:1012200041EA0040704700B50246FFF7E0FF100CAE
:10123000394918310880091D0A80FFF7E1FF00BD18
:1012400000B50246FFF7D3FFC2F30340324908312D
:101250000880091D0A80FFF7D3FF00BD00B50246D4
:10126000FFF7C5FF100C2C4920310880091D0A80AA
:10127000FFF7C6FF00BD0020274910310988090784
:10128000080B2549143109880843704700BF2248DC
:10129000001D008800F020000028F8D070471E488C
:1012A000001D00884FF6F77108401B49091D088092
:1012B00000BF1948001D008800F008000028F8D081
:1012C000704701460020144A121D12880A400AB1D4
:1012D000012000E0002070470F49091D0988814363
:1012E0000D4A121D11807047014600200A4A121D46
:1012F00012880A40D0B2084A12880A4012B108B1D6
:10130000012000E0002070470349091D098881433E
:10131000014A121D118070470028004010B5044694
:10132000BE48844208D101218014FFF709FF002143
:10133000A014FFF705FF16E0B948844208D1012147
:101340000014FFF70AFF00212014FFF706FF0AE050
:10135000B448844207D10121C013FFF7FEFE0021EB
:10136000E013FFF7FAFE10BD10B50022028802F468
:1013700041520B884C8823438C882343CC882343D9
:101380000C8923434C8923438C892343CC892343F1
:101390001A430280838B4FF2FF74234083830B8AAE
:1013A000038210BD2DE9F04F85B005460C464FF085
:1013B000000902274FF000084FF0010B0026B2464B
:1013C000A88B4FF240010840A88302202884B5F87A
:1013D0001C90A068022801D100BF38E0A08810B995
:1013E0004FF0010B01E04FF0020B8D48854200D118
:1013F00000E000BF6846FFF71CFEDDF800A0E088B3
:10140000B0F5007F0AD14FEA1A2000EB80004000BF
:10141000A168B0FBF1F0401D86B20BE04FEA4B1023
:10142000BAFBF0F000EB80004000A168B0FBF1F0E7
:10143000401D86B20A20B6FBF0F606F00108A6EBC6
:101440000800C0F34F074FF6FF7000EA0828022F8C
:1014500001DBFF2F02DD02274FF00008E08840EAA1
:10146000080038432884A088A1890843618808437C
:101470002188084340F4006040EA0909A5F81C905F
:1014800005B0BDE8F08F0021018041808180C180DE
:10149000018141818181C181072101827047002141
:1014A000018041808180C180022181600021818191
:1014B000704721B1028842F04002028004E00288B5
:1014C0004FF6BF731A400280704721B1828B42F4FD
:1014D0008062828304E0828B4FF6FF331A4082835E
:1014E000704730B5002400230C110125A540ABB294
:1014F0001AB185881D43858002E085889D438580DB
:1015000030BD1AB183880B43838002E083888B430C
:1015100083807047818170470146888970474FF604
:10152000FF62914204D0028842F48072028004E09B
:1015300002884FF6FF631A400280704721B182880B
:1015400042F00402828004E082884FF6FB731A4066
:101550008280704702884FF2FF731A40028002882F
:101560000A4302807047018841F48051018070472E
:1015700021B1028842F40052028004E002884DF654
:10158000FF731A400280704702460020012901D0F3
:10159000108B00E0908A70470146088A7047B1F5C9
:1015A000804F04D1028842F48042028004E0028825
:1015B0004BF6FF731A4002807047024600201389E1
:1015C0000B400BB1012000E000207047CA430281AC
:1015D0007047F0B50246002000240023002501F0EA
:1015E0000F070126BE40B4B20B1101269E40B3B2D4
:1015F000968806EA03051689264016B10DB101202A
:1016000000E00020F0BD10B5002201F00F0401231E
:10161000A3409AB2D343038110BD000000300140C3
:1016200000380040003C004010B50446FE488442AB
:1016300008D10121C014FFF783FD0021E014FFF75A
:101640007FFDC4E0B4F1804F08D101210846FFF7C7
:1016500084FD00210120FFF780FDB8E0F3488442BB
:1016600008D101210220FFF778FD00210220FFF7B9
:1016700074FDACE0EE48844208D101210420FFF75C
:101680006CFD00210420FFF768FDA0E0E9488442DA
:1016900008D101210820FFF760FD00210820FFF795
:1016A0005CFD94E0E448844208D101211020FFF75A
:1016B00054FD00211020FFF750FD88E0DF488442F0
:1016C00008D101212020FFF748FD00212020FFF74D
:1016D00044FD7CE0DA48844208D101214014FFF740
:1016E0002FFD00216014FFF72BFD70E0D5488442E8
:1016F00009D10121C804FFF723FD00214FF4002088
:10170000FFF71EFD63E0D048844209D1012108059E
:10171000FFF716FD00214FF48010FFF711FD56E092
:10172000CA48844209D101214805FFF709FD00217B
:101730004FF40010FFF704FD49E0C548844208D18A
:1017400001214020FFF709FD00214020FFF705FDA2
:101750003DE0C048844208D101218020FFF7FDFC14
:1017600000218020FFF7F9FC31E0BB48844208D11A
:1017700001218015FFF7F1FC0021A015FFF7EDFC1A
:1017800025E0B648844209D101210804FFF7D8FCBE
:1017900000214FF48030FFF7D3FC18E0B0488442BA
:1017A00009D101214804FFF7CBFC00214FF40030A0
:1017B000FFF7C6FC0BE0AB48844208D10121880446
:1017C000FFF7BEFC00214FF48020FFF7B9FC10BDED
:1017D00000220288944B98420ED0994B98420BD02D
:1017E000B0F1804F08D0914B984205D0904B984271
:1017F00002D0904B984204D14FF68F731A404B8819
:101800001A438D4B984207D08C4B984204D04FF628
:10181000FF431A40CB881A4302808B8883850B884C
:101820000385814B98420BD0854B984208D08B4B57
:10183000984205D08A4B984202D08A4B984201D1F7
:101840000B7A038601238382704770B5002400223F
:101850000023058C4FF6FE7635400584028C838884
:10186000048B4FF68F752C40B51E2C400D882C43F1
:10187000751E2A400D892A434D882A436A4DA84285
:101880000BD06F4DA84208D0744DA84205D0744DBE
:10189000A84202D0734DA84213D14FF6F7752A40E3
:1018A0004D892A434FF6FB752A408D882A434FF60F
:1018B000FF652B404FF6FF552B408D892B43CD897B
:1018C0002B4383800483CD888586028470BD70B5E8
:1018D000002400220023058C4FF6EF763540058466
:1018E000028C8388048B48F6FF752C404FF6FF4529
:1018F0002C400D884FF6FF7606EA05252C434FF65F
:10190000DF752A400D8906EA05152A434D8806EA47
:1019100005152A43444DA84202D0494DA8421DD185
:101920004FF67F752A404D894FF6FF7606EA05157A
:101930002A434FF6BF752A408D8806EA05152A43CB
:101940004FF6FF352B404FF2FF752B408D8906EA8D
:1019500085052B43CD8906EA85052B4383800483C7
:10196000CD880587028470BD70B500240022002355
:10197000058C4FF6FF6635400584028C8388848B86
:101980004FF68F752C404FF6FC752C400D882C437C
:101990004FF6FF552A400D894FF6FF7606EA0525DA
:1019A0002A434D8806EA05252A431F4DA84202D046
:1019B000234DA8421DD14FF2FF752A404D894FF6A5
:1019C000FF7606EA05252A434FF6FF352A408D8823
:1019D00006EA05252A434EF6FF752B404DF6FF75A6
:1019E0002B408D8906EA05152B43CD8906EA05159E
:1019F0002B4383808483CD888587028470BD70B536
:101A0000002200230024058C4EF6FF763540058425
:101A1000038C8488828B48F6FF752A404FF6FF4579
:101A20002A400D8820E00000002C01400004004006
:101A300000080040000C004000100040001400406E
:101A400000340140004C014000500140005401406E
:101A500000180040001C00400020004000400140F1
:101A600000440140004801404FF6FF7606EA052594
:101A70002A434DF6FF752B400D8906EA05352B43A9
:101A80004D8806EA05352B43FA4DA84202D0FA4D9F
:101A9000A84208D14BF6FF752C408D894FF6FF7692
:101AA00006EA85152C4384808283CD88A0F84050B7
:101AB000038470BD828B4FF2FF331A408283828B86
:101AC0004FF6FF7303EA01231A4382837047F0B590
:101AD0000C461546002200210026078C4EF6FF7C9E
:101AE00007EA0C070784828B018C4FF6FF7707EA21
:101AF000043640F6FF473A404FF6FF7707EA0527DE
:101B00003A434FF6FF7707EA03373A43D94FB842D3
:101B10000ED0D94FB8420BD0B0F1804F08D0D74F7C
:101B2000B84205D0D64FB84202D0D64FB84206D1FF
:101B30004DF6FF77394046F48057394305E047F6C4
:101B4000FF57394044F48057394382830184F0BD04
:101B5000828B4FF6F3731A408283828B0A4382830F
:101B60007047F0B50C461546002200210026078C70
:101B70004FF6FF6C07EA0C070784828B018C4FF647
:101B8000FF7707EA04264FF60C773A404FF6FF77C7
:101B900007EA03172F433A43B64FB8420ED0B64F69
:101BA000B8420BD0B0F1804F08D0B44FB84205D046
:101BB000B34FB84202D0B34FB84206D14FF6FF57E9
:101BC000394046F48077394305E04FF2FF573940FA
:101BD00044F48077394382830184F0BD028B4FF255
:101BE000FF331A400283028B4FF6FF7303EA01238F
:101BF0001A4302837047F0B50C46154600220021B7
:101C00000026078C4FF6EF7C07EA0C070784028B4F
:101C1000018C4FF6FF7707EA041640F6FF473A407B
:101C20004FF6FF7707EA03373A434FF6FF7707EAA5
:101C300005273A438F4FB8420ED08F4FB8420BD092
:101C4000B0F1804F08D08D4FB84205D08C4FB842CC
:101C500002D08C4FB84206D14FF6DF77394046F0BC
:101C60001007394305E04FF65F77394044F010071D
:101C7000394302830184F0BD028B4FF6F3731A409F
:101C80000283028B0A4302837047F0B50C46154667
:101C900000220021068C4FF6FE773E400684028B20
:101CA000018C4FF60C7632407E1C06EA03162E435A
:101CB0003243704EB0420ED06F4EB0420BD0B0F1F6
:101CC000804F08D06D4EB04205D06D4EB04202D06C
:101CD0006C4EB04206D14FF6FD76314044F001061D
:101CE000314305E04FF6F576314044F001063143CB
:101CF00002830184F0BD70B505460C465D488542FF
:101D00000ED05D4885420BD0B5F1804F08D05B48BE
:101D1000854205D05A48854202D05A48854200D1B2
:101D200000E000BF208850B92389A2886188284636
:101D3000FFF7ABFFE1882846FFF79EFF25E02088EC
:101D400004280AD12389A28861882846FFF753FF17
:101D5000E1882846FFF742FF17E0208808280AD1CB
:101D60002389A28861882846FFF7FBFEE188284680
:101D7000FFF7EEFE09E02389A28861882846FFF775
:101D8000A6FEE1882846FFF795FE70BD2DE9F041DB
:101D900005460C4600260127608808B9022600E0A7
:101DA0000026A088012801D1022700E00127208811
:101DB000A0B92389A28861882846FFF766FFE188D9
:101DC0002846FFF759FF23893A4631462846FFF750
:101DD00012FFE1882846FFF701FF13E02389A2885C
:101DE00061882846FFF707FFE1882846FFF7F6FEDF
:101DF00023893A4631462846FFF747FFE1882846BF
:101E0000FFF73AFFBDE8F0810A884B881A438B88B8
:101E10001A43CB881A430B891A434B891A438B897F
:101E20001A43A0F8442070474FF6FF7181800021CB
:101E30000180C18041800172704700210180418092
:101E40008180C180018141818181C18170470021F0
:101E500001804180012181800021C1800181704782
:101E60000021018041808180C18001814181818187
:101E700070470000002C0140003401400004004085
:101E800000080040000C004021B1028842F001022D
:101E9000028004E002884FF6FE731A400280704709
:101EA00031B1B0F8442042F40042A0F8442005E0EB
:101EB000B0F84420C2F30E02A0F8442070471AB1D3
:101EC00083890B43838102E083898B43838170473D
:101ED0008182704741EA0203A0F8483070471AB186
:101EE00083890B43838102E083898B43838170471D
:101EF00001894FF6F8721140018170470A460021AE
:101F000001894FF68F73194011430181704730B535
:101F100004460D4629462046FFF7F0FF208940F091
:101F20000700208130BD2DE9F04104460D461646DC
:101F30001F46602D06D13B46012231462046FFF761
:101F40005AFE05E03B46012231462046FFF79DFE42
:101F500029462046FFF7D2FF208940F00700208164
:101F6000BDE8F08130B50C4600210189C9B24FF6B9
:101F7000FF7505EA0325154325432943018130BD3B
:101F80002DE9F04105460E46174698460024434683
:101F90003A4631462846FFF7E5FF2C894FF6F870A0
:101FA000044044F007044FF68F70044044F070047E
:101FB0002C81BDE8F081F0B504460D4616461F465B
:101FC0003B46324629462046FFF7CCFF208940F4A5
:101FD00080402081F0BD0185828270470A46002141
:101FE00001884FF68F731940114301807047F0B597
:101FF0000C4615461E460021002200230189028B53
:10200000038C4FF6F877394021434FF6FC473A40AE
:1020100040F201173A434FF6DD773B404FF6FF772A
:1020200007EA06172F433B43018102830384F0BD77
:102030000A460021018B4FF68F731940114301832B
:1020400070470A460021018B48F6FF7319404FF68E
:10205000FF7303EA02231943018370470A460021F4
:10206000818B4FF68F7319401143818370470A4665
:102070000021818B48F6FF7319404FF6FF7303EA86
:10208000022319438183704721B1028842F0800204
:10209000028004E002884FF67F731A400280704786
:1020A00021B1828842F00402828004E082884FF6E7
:1020B000FB731A408280704721B1828842F0080287
:1020C000828004E082884FF6F7731A40828070475E
:1020D00021B1828842F00102828004E082884FF6BA
:1020E000FE731A40828070470A460021018B4FF62A
:1020F000F77319401143018370470A460021018B91
:102100004FF2FF7319404FF6FF7303EA022319439E
:10211000018370470A460021818B4FF6F7731940FF
:102120001143818370470A460021818B4FF2FF7370
:1021300019404FF6FF7303EA022319438183704766
:102140000A460021018B4FF6FB73194011430183AE
:1021500070470A460021018B4FF6FF3319404FF6B6
:10216000FF7303EA02231943018370470A460021E3
:10217000818B4FF6FB7319401143818370470A46E8
:102180000021818B4FF6FF3319404FF6FF7303EAAE
:1021900002231943818370470A460021018B4FF6C1
:1021A0007F7319401143018370470A460021018B58
:1021B000C1F30E014FF6FF7303EA022319430183B3
:1021C00070470A460021818B4FF67F7319401143F7
:1021D000818370470A460021818BC1F30E014FF6BF
:1021E000FF7303EA02231943818370470A460021E3
:1021F000018C4FF6FD7319401143018470470A4664
:102200000021018C4FF6F773194011430184704788
:102210000A460021018C4FF6DF7319404FF6FF7319
:1022200003EA02131943018470470A460021018C16
:102230004FF67F7319404FF6FF7303EA02131943F9
:10224000018470470A460021018C4FF6FF53194064
:102250004FF6FF7303EA02231943018470470A46CD
:102260000021018C4FF2FF7319404FF6FF7303EA10
:1022700002231943018470470A460021018C4DF660
:10228000FF7319404FF6FF7303EA023319430184C9
:10229000704730B5002301248C40A3B2048C9C43CA
:1022A0000484048C02FA01F5ADB22C43048430BDE1
:1022B00030B5002304248C40A3B2048C9C430484D6
:1022C000048C02FA01F5ADB22C43048430BD70B524
:1022D0000346002000241846183001258D40ACB27A
:1022E0001D8CA5431D8409B1082909D100EB6100AB
:1022F000056825F0700505600568154305600EE06A
:102300000D1FC5F34E052844056825F4E04505601A
:1023100005684FF6FF7606EA02263543056070BD74
:1023200021B1028842F00202028004E002884FF6E6
:10233000FD731A400280704721B1028842F0040206
:10234000028004E002884FF6FB731A400280704757
:1023500021B1828842F08002828004E082884FF6B8
:102360007F731A408280704702884FF6F7731A40D5
:10237000028002880A430280704782884FF68F737A
:102380001A40828082880A438280704702894FF611
:10239000F8731A40028102890A4302817047028958
:1023A0004FF67F731A40028102890A430281704707
:1023B00081847047818570478186704701877047A7
:1023C00081877047A0F84010704702884FF6FF439E
:1023D0001A40028002880A43028070470146888EB4
:1023E00070470146088F70470146888F7047014645
:1023F000B1F8400070470146888C70470146088D4F
:10240000704702460020138A0B400BB1012000E008
:1024100000207047CA430282704730B50246002050
:1024200000230024158A05EA0103958905EA0104C1
:1024300013B10CB1012000E0002030BDCA4302827C
:102440007047000010B50446FB48844209D10121C1
:102450008803FEF775FE00214FF48040FEF770FE02
:1024600032E0F648844209D101214804FEF775FEA6
:1024700000214FF40030FEF770FE25E0F048844262
:1024800009D101218804FEF768FE00214FF4802065
:10249000FEF763FE18E0EB48844209D10121C8042D
:1024A000FEF75BFE00214FF40020FEF756FE0BE026
:1024B000E548844208D101210805FEF74EFE0021BF
:1024C0004FF48010FEF749FE10BD2DE9F04786B0AD
:1024D00005460E460024A24600BFA1460027B0894B
:1024E00000B100BF2F462C8A4CF6FF700440F088E4
:1024F00004432C82AC894EF6F3100440B088318935
:102500000843718908430443AC81AC8A4FF6FF400D
:102510000440B0890443AC8201A8FEF78AFDC64896
:10252000874202D1DDF810A001E0DDF80CA0A889F7
:1025300000F4004040B10AEBCA0000EB0A10316819
:102540004900B0FBF1F807E00AEBCA0000EB0A1003
:1025500031688900B0FBF1F86420B8FBF0F00401A9
:102560002009642101FB1089A88900F4004040B1D2
:10257000322000EBC900B0FBF1F000F0070004438B
:1025800008E0322000EB09106421B0FBF1F000F00C
:102590000F0004432C8106B0BDE8F0874FF41651BC
:1025A000016000218180C18001810C2141810021D5
:1025B0008181704710B502460020108A4FF2FF0358
:1025C00018400B884C8823438C882343CC882343B2
:1025D0001843108210BD0021018041808180C1809C
:1025E000704721B1828942F40052828104E08289DD
:1025F0004DF6FF731A4082817047F0B50346002400
:1026000000260025002040F66A17B94200D100BF1D
:102610001846C1F3421401F01F06012707FA06F518
:10262000012C01D10C3004E0022C01D1103000E06B
:1026300014301AB107682F43076002E00768AF4300
:102640000760F0BD1AB1838A0B43838202E0838A5C
:102650008B4383827047028A4FF6F0731A400282DE
:10266000028A0A430282704782894FF2FF731A403E
:10267000828182890A438281704721B1828942F036
:102680000202828104E082894FF6FD731A40828142
:102690007047028A4FF6DF731A400282028A0A43A9
:1026A0000282704721B1028A42F48042028204E031
:1026B000028A4BF6FF731A4002827047C1F3080288
:1026C0008280704701468888C0F30800704781897E
:1026D00041F0010181817047028BD2B20283028BEB
:1026E00042EA012202837047028B02F47F42028396
:1026F000028B0A430283704721B1828A42F0200292
:10270000828204E0828A4FF6DF731A408282704729
:1027100021B1828A42F01002828204E0828A4FF65E
:10272000EF731A408282704721B1828A42F0080218
:10273000828204E0828A4FF6F7731A4082827047E1
:1027400021B1828942F40042828103E08289C2F38E
:102750000E028281704721B1828A42F40062828235
:1027600004E0828A4FF2FF731A4082827047828AA5
:102770004FF6FB731A408282828A0A438282704734
:1027800021B1828A42F00202828204E0828A4FF6FC
:10279000FD731A408282704702460020B1F5007F27
:1027A00000D100BF13880B400BB1012000E00020D6
:1027B000704701F40072B2F5007F00D100BFCA4338
:1027C0000280704770B502460024002300250020D7
:1027D00040F66A16B14200D100BFC1F3421501F0C4
:1027E0001F03012606FA03F3012D02D19689334017
:1027F00006E0022D02D1168A334001E0968A33406A
:102800000C12012606FA04F41688344013B10CB1F8
:10281000012000E0002070BD10B50022002340F62A
:102820006A14A14200D100BF0A1201249440A3B24D
:10283000DC43048010BD000000380140004400402B
:1028400000480040004C00400050004001F0FAFFFA
:1028500002F056F802F0DCF802F069FB01F0F4FA3D
:1028600002F060F90CA20021084602F08AFA02F098
:10287000FFFB02F005FC02F088FC0A4802F0D5FCE0
:1028800008E009480078012804D102F050FC00203B
:1028900005490870F5E70000D3E1BAC0BFA1C5A3A0
:1028A00000000000A40000202E000020704700BFA0
:1028B000FEE700BFFEE700BFFEE700BFFEE7704790
:1028C00070477047704710B50120FEF70DFD0028D6
:1028D0004CD00120FEF718FDFEF79CFC0446FE4993
:1028E00001F02DFCFD480078012820D1FC4800684B
:1028F000401CFB490860084600683C2805D10020C0
:10290000086008464068401C4860F54840683C281C
:1029100006D10020F249486008468068401C886063
:10292000EF488068182802D10020ED498860ED4802
:102930000078012814D1E8488068EB49896888420A
:102940000ED1E5484068E8494968884208D1E24824
:102950000068E5490968884202D10120E34908700E
:10296000E348007801F070FCFEF790FC10BD10B554
:102970000121E048FFF751FD00287DD00020DE490D
:102980000860DB49097869B9DC49087800EBD07147
:102990004910A0EB410129B90123D9A20721002048
:1029A00002F0DBF8D249097871B9D449087800EB14
:1029B000D0714910A0EB4101012905D10123D2A218
:1029C00007215A2002F0C9F8C9490978012910D114
:1029D000CA49087800EBD0714910A0EB410141B918
:1029E0000123C7A20721002002F0B7F8C84802F06F
:1029F0001CFCBF490978012911D1C049087800EBB6
:102A0000D0714910A0EB4101012908D10123C1A2D5
:102A10000721462002F0A1F8BD4802F006FCB449A7
:102A2000097802290ED1B5490878C11700EB9171D8
:102A30008910A0EB810129B90123B9A20021084620
:102A400002F08BF8AA49097802290FD1AB4908781E
:102A5000C11700EB91718910A0EB8101012905D10B
:102A60000123A9A20221002002F077F8A0490978E9
:102A7000022911D1A14900E084E10878C11700EBD7
:102A800091718910A0EB8101022905D10123A7A230
:102A90000421002002F061F89549097802290FD13C
:102AA00096490878C11700EB91718910A0EB81015C
:102AB000032905D10123A0A20621002002F04DF830
:102AC0008B49097803290DD18C49087800EBD07126
:102AD0004910A0EB410129B901239AA2002108461F
:102AE00002F03BF88249097803290ED1834908781E
:102AF00000EBD0714910A0EB4101012905D1012360
:102B000095A20221002002F028F8794800780428D4
:102B10000DD17A480078032190FBF1F201FB1200FD
:102B200028B9012379A20721002002F016F8704885
:102B3000007804280ED171480078032190FBF1F24F
:102B400001FB1200012805D1012370A207212820D2
:102B500002F003F86648007804280ED16748007830
:102B6000032190FBF1F201FB1200022805D10123A1
:102B700063A207215A2001F0F0FF5D480078052884
:102B80000DD15E480078032190FBF1F201FB1200A9
:102B900028B901235DA20721002001F0DEFF54487F
:102BA000007805280ED155480078032190FBF1F2FA
:102BB00001FB1200012805D1012354A2072128207E
:102BC00001F0CBFF4A48007805280ED14B48007829
:102BD000032190FBF1F201FB1200022805D1012331
:102BE00047A207215A2001F0B8FF41490978062978
:102BF0000DD14249087800EBD0714910A0EB41019A
:102C000029B9012348A20721002001F0A6FF384975
:102C1000097806290ED13949087800EBD07149109E
:102C2000A0EB4101012905D1012343A20721462040
:102C300001F093FF2E48007807280DD12F48007827
:102C4000032190FBF1F201FB120028B901232FA20E
:102C50000721002001F081FF2548007807280ED1C8
:102C600026480078032190FBF1F201FB12000128B5
:102C700005D1012325A20721282001F06EFF1C4861
:102C8000007807280ED11D480078032190FBF1F24F
:102C900001FB1200022805D1012319A207215A20A5
:102CA00001F05BFF1249097808290DD11349087812
:102CB00000EBD0714910A0EB410129B9012312A208
:102CC0000721002001F049FF09490978082959D155
:102CD0000A49087848E0000034000020290000205C
:102CE00088000020280000206C0000202E0000201A
:102CF0002A00002000100040300000202C0000209E
:102D000020202020000000002020202020000000A3
:102D1000A4000020202020202020202020000000CF
:102D200020202020202020202020200020202020C3
:102D300020202020202000002020202020202020D3
:102D40000000000020202020202020202020202003
:102D500020202020000000002020202020202020F3
:102D6000202020202020200000EBD0714910A0EB73
:102D70004101012906D10123AFF24C02072146206F
:102D800001F0EBFE0121FE48FFF758FB10BD00B536
:102D900087B04020FDF70DFCA0B1C82002F06AF812
:102DA00000BF4021F748FDF720FD0028F9D0F6A02C
:102DB00003F086F8F5480078401CF449087040207C
:102DC000FDF702FC8020FDF7F4FB00287ED0C82030
:102DD00002F050F800BF8021EA48FDF706FD002808
:102DE000F9D0EBA003F06CF801F09CFEE9490978FA
:102DF000B9B9E9490978A1B9E449087800EBD0717B
:102E00004910A0EB410161B9E3480078E34908703B
:102E10000120E04908700220DF4908700020DB49EA
:102E20000870DC490978B9B9DB490978A1B9D749F3
:102E3000087800EBD0714910A0EB410101290BD1BA
:102E4000D5480078D54908700120D2490870D24988
:102E500008700020CD490870CE490978C1B9CE4923
:102E60000978012914D1C949087800EBD0714910BB
:102E7000A0EB410161B9C8480078C8490870012039
:102E8000C44908700220C44908700020BF49087076
:102E9000C0490978C1B9C0490978012914D1BB4991
:102EA000087800EBD0714910A0EB410101290BD14A
:102EB000B9480078B94908700120B6490870002067
:102EC000B5490870B1490870B24900E0EDE20978EF
:102ED000C9B9B1490978022915D1AC490878C11797
:102EE00000EB91718910A0EB810161B9AA480078CB
:102EF000AA4908700120A74908700320A649087054
:102F00000020A2490870A3490978D1B9A2490978DB
:102F1000022916D19D490878C11700EB91718910DB
:102F2000A0EB810101290CD19B4800789B490870D6
:102F3000012098490870062097490870002093499D
:102F4000087094490978D1B993490978022916D1B2
:102F50008E490878C11700EB91718910A0EB8101AF
:102F600002290CD18C4800788C49087001208949CD
:102F70000870082088490870002084490870854935
:102F80000978D1B984490978022916D17F4908788E
:102F9000C11700EB91718910A0EB810103290CD1BD
:102FA0007D4800787D49087001207A490870092021
:102FB000794908700020754908707649097821BB65
:102FC00075490978032920D17049087800EBD07140
:102FD0004910A0EB4101C1B96F4800786F490870F2
:102FE00001206C49087004206B49087000206C496E
:102FF0000870664908706B4880686B49886069484A
:10300000406848606748006808606249097829BBE1
:1030100061490978032921D15C49087800EBD07116
:103020004910A0EB4101012918D15B4800785B49A8
:103030000870012057490870052057490870002082
:1030400057490870514908705648406956494861C7
:103050005448006908615348C068C8604D4800780A
:1030600010BB4D48007804281ED14D48007803213C
:1030700090FBF1F201FB1200B0B94448007890FBDC
:10308000F1F201FB120010B101280CD105E0464815
:103090008068401C4449886005E043488068401EC1
:1030A0004149886000BF00BF3A48007818BB3A48E1
:1030B000007804281FD13A480078032190FBF1F2F0
:1030C00001FB1200012816D13048007890FBF1F284
:1030D00001FB120010B101280CD105E03248406814
:1030E000401C3149486005E02F484068401E2E4989
:1030F000486000BF00BF2748007818BB264800780A
:1031000004281FD126480078032190FBF1F201FB2F
:103110001200022816D11D48007890FBF1F201FB45
:10312000120010B101280CD105E01F480068401CB6
:103130001D49086005E01C480068401E1A490860E7
:1031400000BF00BF1348007888B9134800780428EE
:103150000DD10E480078032190FBF1F201FB120023
:10316000022804D10E480078401C0D490870094817
:10317000007890BB08480078052836D1084815E04B
:103180000010004000100140310000002C00002021
:1031900032000000A90000202A0000202B0000209F
:1031A000AA000020340000205000002000780321F5
:1031B00090FBF1F201FB120078B9FD48007890FB1A
:1031C000F1F201FB120010B101280DD106E0F9481F
:1031D0004069401CF749486106E006E0F54840694F
:1031E000401EF449486100BF00BFF348007818BB97
:1031F000F248007805281FD1F1480078032190FBA0
:10320000F1F201FB1200012816D1E948007890FB89
:10321000F1F201FB120010B101280CD105E0E548E4
:103220000069401CE349086105E0E2480069401E6E
:10323000E049086100BF00BFDF48007818BBDF48E5
:10324000007805281FD1DE480078032190FBF1F2B9
:1032500001FB1200022816D1D548007890FBF1F24C
:1032600001FB120010B101280CD105E0D148C06863
:10327000401CD049C86005E0CE48C068401ECD491A
:10328000C86000BF00BFCC48007888B9CB48007840
:1032900005280DD1C6480078032190FBF1F201FB0F
:1032A0001200022804D1C6480078401CC4490870A6
:1032B000C1490978A9B9C1490978062911D1BC4980
:1032C000087800EBD0714910A0EB410149B9BD4825
:1032D000007818B90120BB49087002E00020B94904
:1032E0000870B5490978C9B9B4490978062915D1D2
:1032F000AF49087800EBD0714910A0EB41010129DA
:103300000CD1AE480078B04908700120AA49087075
:103310000720AA4908700020A5490870A64800782F
:1033200010BBA648007807281ED1A54800780321C5
:1033300090FBF1F201FB1200B0B99D48007890FBC0
:10334000F1F201FB120010B101280CD105E09F48F9
:103350008068401C9D49886005E09C488068401E4C
:103360009A49886000BF00BF9348007818BB934813
:10337000007807281FD192480078032190FBF1F2D2
:1033800001FB1200012816D18948007890FBF1F268
:1033900001FB120010B101280CD105E08B484068F8
:1033A000401C8A49486005E088484068401E8749BB
:1033B000486000BF00BF8048007818BB7F48007895
:1033C00007281FD17E480078032190FBF1F201FB12
:1033D0001200022816D17648007890FBF1F201FB2A
:1033E000120010B101280CD105E078480068401C9B
:1033F0007649086005E075480068401E734908601A
:1034000000BF00BF6C48007888B96C480078072876
:103410000DD167480078032190FBF1F201FB120007
:10342000022804D166480078401C6549087062494A
:103430000978C1B961490978082914D15C4908782B
:1034400000EBD0714910A0EB410161B901205A494C
:1034500008705F48007818B901205D49087002E0E3
:1034600000205B49087054490978C1B9534909786B
:10347000082914D14E49087800EBD0714910A0EB0F
:10348000410101290BD101204B4908700020484916
:10349000087050498860486008604D4908700020F5
:1034A000454908708020FDF78FF84FF48070FDF7D4
:1034B00080F8E8B3C82001F0DDFC00BF4FF4807154
:1034C0004548FDF792F90028F8D044A002F0F8FC36
:1034D00001F028FB39480078042803D037480078E9
:1034E000052820D13548007804280AD13148806861
:1034F0003B4988602F48406848602E480068086053
:1035000009E02C484069364948612A480069086149
:103510002848C068C860324800F0D5FC4AF2A5517E
:103520000420FCF7A8FF25480078032805D000E018
:1035300018E022480078062802D1022022490870AB
:103540001E480078022802D100201F4908701E483A
:1035500000781A4908700020154908704FF48070EF
:10356000FDF732F84FF40070FDF723F8E8B1C820FA
:1035700001F080FC00BF4FF400711748FDF735F9EA
:103580000028F8D0684600F0F8FC684600F09BFC84
:103590004AF2A5510420FCF76EFF12A002F090FC45
:1035A0004FF40070FDF710F800BF07B000BD000039
:1035B0002C00002050000020A90000202A0000203C
:1035C000AA000020280000202B0000206C00002012
:1035D0002900002088000020001001403300000076
:1035E000340000203400000002460E2A70D2DFE8CA
:1035F00002F086071019222B353F49535D67727C14
:10360000F748405C00F0080008B90020704701202E
:10361000FCE7F348405C00F0040008B90020F5E73F
:103620000120F3E7EE48405C00F0020008B90020FA
:10363000ECE70120EAE7EA48405C00F0010008B945
:103640000020E3E70120E1E7E54B481C185C00F0AF
:10365000800008B90020D9E70120D7E7E04B481CDB
:10366000185C00F0400008B90020CFE70120CDE74A
:10367000DB4B481C185C00F0200008B90020C5E7AF
:103680000120C3E7D64B481C185C00F0100008B9B5
:103690000020BBE70120B9E7D14B481C185C00F0C3
:1036A000080008B90020B1E70120AFE7CC4B481C67
:1036B000185C00F0040008B90020A7E70120A5E786
:1036C000C74B481C185C00F0020010B900209DE7B1
:1036D00015E001209AE7C24B481C185C00F001007D
:1036E00008B9002092E7012090E7BD4B881C185CC8
:1036F00000F0800008B9002088E7012086E700205C
:1037000084E72DE9FF4F83B00C461F4664210398E0
:1037100090FBF1F0C0B20190039890FBF1F201FB35
:103720001200C5B20198132806D00198142803D0BE
:10373000002007B0BDE8F08F0198142806D105F1EC
:10374000630000EB40001FFA80F904E0681E00EB04
:1037500040001FFA80F9A24909F10200085C00F05C
:10376000600A4FEA6A1A09F10200085C00F01F0BB8
:10377000BAF1010F04D1ABF1010000F0FF0803E042
:103780000BF11E0000F0FF080A2C07DA601E9549B5
:10379000095C05980844401E86B208E0A4F10A00BE
:1037A000914931F8101005980844401E86B2022C49
:1037B00008DDE91705EB91718910A5EB810109B9C5
:1037C000701C86B246453EDBA6EB080086B201249B
:1037D000012002900020009049460298FFF704FF64
:1037E00010B94FF01D0A01E04FF01E0A7C4911F894
:1037F0000900C11700EB11714FEA211B1DE0A6EB78
:103800000A0086B20298401CC0B202905C4508D102
:103810000098C043C0B20090009820B9601CC4B2A8
:1038200001E0601CC4B249460298FFF7DDFE10B902
:103830004FF01D0A01E04FF01E0A5645DFDA701CFA
:10384000C0B205904FE0A8EB060000F0FF081DB9DC
:1038500063251320019001E0681EC5B2A9F10300A1
:103860001FFA80F90C245E4911F80900C11700EB1A
:1038700011714FEA211BBBF1000F02D10C20029005
:1038800001E00D2002900020009049460298FFF7C9
:10389000ABFE10B94FF01D0A01E04FF01E0A1BE00D
:1038A000A8EB0A0000F0FF080298401EC0B2029088
:1038B000009808B9601EC4B25C4503D10098C043AB
:1038C000C0B2009049460298FFF78EFE10B94FF043
:1038D0001D0A01E04FF01E0AD045E1DCAAEB08000A
:1038E000401CC0B20590019807F8010B07F8015B76
:1038F00007F8014B0598387001201AE710B50A4601
:10390000B0F5F86F09DBA0F5F86398B23C2390FBA3
:10391000F3F403FB1403D9B20AE0C0F5F86398B2DC
:103920003C2390FBF3F403FB1403C3F13C03D9B233
:10393000117010BD10B5002305E011F8014B00F81F
:10394000014B5C1CA3B29342F7DB10BD2DE9FC4197
:1039500005460E4617461C460F2224A12046FFF7B7
:10396000E9FF01AB3A4631462846FFF7CAFE08B9DF
:10397000BDE8FC819DF805209DF8041001EBC10312
:1039800003EB011102EB81006946FFF7B7FF9DF8D9
:1039900000000A2190FBF1F201FB1200174951F8D7
:1039A0002080022241462046FFF7C4FF9DF8000018
:1039B0000C2190FBF1F201FB1200114951F820801B
:1039C00002224146A01CFFF7B5FF9DF80600012822
:1039D0001AD102220BA1A01DFFF7ACFF1EE00000D0
:1039E000EA600008F0630008FA630008BCD7D7D388
:1039F000C4EAD5FDD4C2B3F5D2BB00000C0100204F
:103A000034010020D5FD00009DF80600401E8C4AC0
:103A100052F820100222A01DFFF78CFF9DF807002E
:103A20000A280EDD9DF807000A2190FBF1F0854978
:103A300051F820800222414604F10A00FFF77AFF84
:103A400005E0022280A104F10A00FFF773FF9DF850
:103A50000700401E0A2190FBF1F201FB1200784999
:103A600051F820800222414604F10C00FFF762FF6A
:103A700000BF7DE72DE9F04104460D46B4F5FA6F2D
:103A800003DB40F60200844202DD0020BDE8F08145
:103A90000DB10C2D01DD0020F8E7681E4006010E77
:103AA0000F2A01DB481CC1B208464FEAE17C01EB5A
:103AB0005C7C4FEAEC08A4F5FA6C0CEB4C0CC444AB
:103AC000DFF8888118F80C604FEAE17C01EB5C7C40
:103AD0004FEAEC0CA1EBCC0C06FA0CFC0CF08007C6
:103AE0005B48405C187097B1012905D00B2903D0C1
:103AF000122901D0152907D140F2FC70844203DA63
:103B00001878401C187002E01878401E18700120C8
:103B1000BCE72DE9F8430546884614461E466B4629
:103B2000224641462846FFF7A5FF10B90020BDE810
:103B3000F883A8F101004006070E0F2C01DB781C6A
:103B4000C7B29DF80000844208D1424850F82710BF
:103B500005223046FFF7EEFE0120E8E70F223EA1E6
:103B60003046FFF7E7FE9DF8000084420BDA394843
:103B700050F827100422B01CFFF7DCFE9DF800006F
:103B8000001BC4B24DE0781C172801DD0020CEE7F1
:103B9000304A781C52F820100422B01CFFF7CAFEED
:103BA0000F2C0ADA6B460F2241462846FFF762FFC8
:103BB0009DF80000001BC4B233E0A8F101002A49BF
:103BC00011F80090B8F1020F17D1E91705EB9171C8
:103BD0008910A5EB810181B9642195FBF1F201FB0C
:103BE000125131B94FF4C87195FBF1F201FB12513A
:103BF00019B909F1010000F0FF0908F10100C0B294
:103C000080460D2801D14FF001086B460122414644
:103C10002846FFF72FFFA9EB04009DF80010084489
:103C2000C4B20A2094FBF0F03030B0720A2094FB4A
:103C3000F0F100FB11403030F072012077E7000016
:103C40006401002094010020B3F500003F630008E8
:103C5000D8630008AC000020C0EBC1A2B6ACBBB971
:103C6000D3D03F3FCCEC00000C640008F0B58DB021
:103C700004463022704901A801F014FE6069451E17
:103C8000642195FBF1F12846EA1705EB9272C1EB2E
:103C9000A2014FF4C87295FBF2F28F186069C11748
:103CA00000EB91718910A0EB810191B964226169E7
:103CB00091FBF2F302FB131131B99200616991FBA0
:103CC000F2F302FB131121B92169022901DD01265A
:103CD00000E0002640F26D1005FB00712069401ED7
:103CE00001AA52F820000844E1680844064407206D
:103CF00096FBF0F100FB1160A0610DB0F0BD10B5B6
:103D000001460869801E0861002805DC08690C303E
:103D100008614869401E48616423486990FBF3F0DC
:103D20004A69D31702EB9373C0EBA3004FF4C87436
:103D300092FBF4F3034440F26F14086960430C24CF
:103D400090FBF4F01844CB68034440F26D1402FB7E
:103D500004303A4BC01A00EB40008B6803EBC00004
:103D6000C0EB00104B6803EB8000C0EB00100B6849
:103D700003EB800010BD2DE9F04107460C463048AA
:103D8000B7FBF0F6B7FBF0F100FB11784FF4616080
:103D900098FBF0F0A0604FF4616098FBF0F100FB3D
:103DA00011803C2190FBF1F060604FF4616098FB62
:103DB000F0F100FB11803C2190FBF1F201FB1200BD
:103DC000206040F2B27509E005F0030010B94FF42D
:103DD000B77001E040F26D10361A6D1C05F003005B
:103DE00010B94FF4B77001E040F26D10B042EBDD56
:103DF00065616069C11700EB91718910A0EB8101C9
:103E000011B91D200F494860012505E0681E0D49C4
:103E100051F82000361A6D1C681E0A4951F820001E
:103E2000B042F3DD1C2048602561701CE060204634
:103E3000FFF71CFFBDE8F081186400088BFA0A0048
:103E400080510100A401002008B54FF4C060FCF7C8
:103E50007BFA03208DF8000001208DF801008DF819
:103E600002008DF803006846FCF773FA08BD10B530
:103E700001214FF0C050FDF756F90120FCF77DFFFE
:103E8000FCF7D0FA0120FDF7AEF800BF4120FDF7A6
:103E900012F80028FAD04FF48070FDF7C0F8012026
:103EA000FDF7C3F8FDF7FBF9FDF7F0F9012108462E
:103EB000FDF790F9FDF7EAF947F6FF70FDF7C0F955
:103EC000FDF7E4F910BD70B50446FFF7D0FFFDF72C
:103ED000DDF92046FFF7CAFE2046FFF710FFA0F5E8
:103EE000E1452846FDF79FF9FDF7D0F970BD10B503
:103EF00004460420FCF7CBFA4AF2A55188420ED0C2
:103F0000EAA001F0DDFFF1A001F0DAFF2046FFF7A3
:103F1000DAFF4AF2A5510420FCF7ADFA2AE00121AC
:103F20004FF0C050FDF7FFF80120FCF726FF0120FD
:103F3000FDF772F800BF6120FCF7BDFF0028FAD042
:103F40007B20FCF7B8FF18B1E6A001F0B9FF06E04E
:103F50007A20FCF7B0FF10B1EBA001F0B1FFF3A0A5
:103F600001F0AEFFFDF79BF901210846FDF732F99C
:103F7000FDF78CF9FDF708F910BD38B504460020AF
:103F800000900025F1A001F09BFF00BFFD4801F06B
:103F900097FF6946FCA001F097FC40F2B2710098CF
:103FA000884204D340F2F6710098884204D9F7A001
:103FB000009901F085FF06E0FDA0009901F080FF67
:103FC0000098606100E0E1E700BF00BFFE4801F03B
:103FD00077FF6946ECA001F077FC009810B10098DB
:103FE0000C2804D9E9A0009901F06AFF06E0F7A0C7
:103FF000009901F065FF0098206100E0E6E700BF4E
:1040000020690D2832D2DFE800F0310714080F09CB
:10401000100A0B110C120D0000BF00BF00BF00BF43
:1040200000BF00BF1F2521E000BF00BF00BF1E254D
:104030001CE06069C11700EB91718910A0EB810150
:1040400091B96422616991FBF2F302FB131131B95A
:104050009200616991FBF2F302FB131121B921690E
:10406000022901DD1D2500E01C2500BF00BF00BFA7
:104070002946DC4801F024FF6946C3A001F024FC76
:10408000009810B10098A84204D9C0A0009901F08E
:1040900017FF06E0D4A0009901F012FF0098E0603D
:1040A00000E0E5E700BF00BFD54801F009FF694621
:1040B000B5A001F009FC0098172804D9B3A0009915
:1040C00001F0FEFE06E0CFA0009901F0F9FE009895
:1040D000A06000E0E8E700BF00BFD04801F0F0FEBC
:1040E0006946A9A001F0F0FB00983B2804D9A7A0DD
:1040F000009901F0E5FE06E0C9A0009901F0E0FE9C
:104100000098606000E0E8E700BF00BFCA4801F027
:10411000D7FE69469CA001F0D7FB00983B2804D944
:104120009AA0009901F0CCFE06E0C4A0009901F02D
:10413000C7FE0098206000E0E8E700BF38BDF0B59A
:10414000B9B005460C4605F5E14621463046FFF775
:1041500012FEA06818B9606808B9206818B1BD4897
:10416000006800282CD0227B217CA38A98B207AB60
:10417000FFF7C7FA9DF81F0000909DF81E309DF8CC
:104180001D209DF81C10B4A001F09AFE227B217C1A
:10419000A38A98B207ABFFF7D9FB07A9B7A001F034
:1041A0008FFE227B217CA38A98B207ABFFF7B1FC7C
:1041B00018B107A9B1A001F083FE0020A54908604D
:1041C0006069C01E0C2190FBF1F201FB1200B049A6
:1041D00051F82070DFF8BCC2A3695CF8233094E882
:1041E0000700CDE90232CDE90410D4E90310CDE98E
:1041F00000013B462946A848626901F061FEE0687B
:104200000090A6A1AA48D4E9043201F069FE00207A
:10421000A749087320680090A6A1AB48D4E90132F1
:1042200001F05EFE39B0F0BD04460CE0A74800681E
:10423000012808D1FCF7EEFF05462146FFF77FFF76
:104240000020A2490860F1E77CB50446002C2BD180
:104250000123974A00211E2000F07FFC9C48406803
:104260000A2190FBF1F0C5B22A460221002000F09D
:104270000EFD974840680A2190FBF1F201FB120005
:10428000C5B22A4602211A2000F001FD90480068BC
:104290000A2190FBF1F0C5B22A460221342000F039
:1042A000F6FC8B48006815E12BE100000D0A0D0AB1
:1042B00020525443206E6F742079657420636F6EB2
:1042C000666967757265642E2E2E2E000D0A0D0A22
:1042D0002052544320636F6E666967757265642E61
:1042E0002E2E2E000D0A0D0A20506F776572204F7A
:1042F0006E205265736574206F63637572726564B6
:104300002E2E2E2E000000000D0A0D0A2045787476
:1043100065726E616C205265736574206F6363759E
:10432000727265642E2E2E2E000000000D0A204EA3
:104330006F206E65656420746F20636F6E666967B9
:10434000757265205254432E2E2E2E000D0A3D3DCF
:104350003D3D3D3D3D3D3D3D3D3D3D3D3D3D3D3D8D
:104360003D3D3D3D3D3D3DC9E8D6C3CAB1BCE43D00
:104370003D3D3D3D3D3D3D3D3D3D3D3D3D3D3D3D6D
:104380003D00000028AA0008256400000D0A20C492
:10439000FACAE4C8EBB5C4CAFDD7D6CAC73A256481
:1043A000A3ACB2BBB7FBBACFD2AAC7F300000000E0
:1043B0000A0D2020C4EAB7DDB1BBC9E8D6C3CEAA36
:1043C0003A2025640A0D0000A0A900080A0D20204B
:1043D000D4C2B7DDB1BBC9E8D6C3CEAA3A202564A2
:1043E0000A0D0000F8AA00080A0D2020C8D5C6DA78
:1043F000B1BBC9E8D6C3CEAA3A2025640A0D000095
:10440000E4A900080A0D2020CAB1D6D3B1BBC9E87F
:10441000D6C3CEAA3A2025640A0D0000B4AA00082B
:104420000A0D2020B7D6D6D3B1BBC9E8D6C3CEAAD1
:104430003A2025640A0D000070AA00080A0D202009
:10444000C3EBD6D3B1BBC9E8D6C3CEAA3A20256404
:104450000A0D0000700200200D0A20BDF1CCECD046
:10446000C2C0FAA3BA25302E326425302E32642C15
:1044700025302E32642C25302E3264000D0A20BDEA
:10448000F1CCECC5A9C0FAA3BA25730D0A0000004F
:10449000F4010020D801002050A9000825302E3456
:1044A000642D25302E32642D25302E32640000001C
:1044B000240A002025302E32643A25302E32643A08
:1044C00025302E3264000000330A0020D401002081
:1044D000340000200A2190FBF1F201FB1200C5B26A
:1044E0002A4602214E2000F0D2FB012392A207218E
:1044F000002000F032FB012391A207215A2000F096
:104500002CFB012C1ED19048C0788F498978CDE9C9
:1045100000108D48437802788CA1944801F0E0FCAB
:104520000123924A0021084600F017FB012382A2D2
:104530000721002000F011FB01238DA20721462056
:1045400000F00BFB022C17D101238CA2002108469E
:1045500000F003FB01238CA20221002000F0FDFAF1
:1045600001238BA20421002000F0F7FA01238BA283
:104570000621002000F0F1FA032C0BD101238AA2BE
:104580000021084600F0E9FA01238CA20221002054
:1045900000F0E3FA042C22D18C48006800908B488C
:1045A0004368AFF2F0018268894801F099FC012369
:1045B000874A0321232000F0D0FA012385A2072196
:1045C000002000F0CAFA012383A20721282000F06E
:1045D000C4FA012381A207215A2000F0BEFA052C5B
:1045E00022D17A48C068009078480369AFF254112C
:1045F00042697C4801F074FC01237A4A00211E20A4
:1046000000F0ABFA012373A20721002000F0A5FA05
:10461000012371A20721282000F09FFA01236FA235
:1046200007215A2000F099FA062C27D16E4800681D
:1046300000906D484368AFF2841182686B4801F0C6
:104640004FFC0123694A0321232000F086FA01234D
:1046500067A20721462000F080FA68480078012808
:1046600006D1012366A20721002000F076FA05E0BA
:10467000012364A20721002000F06FFA072C22D149
:1046800059480068009058484368AFF2D8118268D2
:10469000564801F025FC0123544A0321232000F051
:1046A0005CFA01234BA20721002000F056FA0123F7
:1046B00049A20721282000F050FA012347A2072130
:1046C0005A2000F04AFA082C26D14F480068009082
:1046D0004D484368AFF2242182684C4801F000FC49
:1046E00001234A4A0321232000F037FA4848007882
:1046F00030B9012347A20721002000F02EFA05E07F
:10470000012346A20721002000F027FA012345A239
:104710000721462000F021FA092C0BD1012343A2E6
:104720000321232000F019FA012343A205212320AD
:1047300000F013FA7CBD00006D656E75000000008E
:104740006C756E6172000000A4000020483A2530AC
:104750002E32642E25302E32642020543A25302EFD
:1047600032642E25302E3264000000007E0A0020C4
:10477000677265676F7269616E00000063616C69E2
:1047800062726174696F6E00616C61726D0000002D
:1047900073746F70207761746368000061626F7575
:1047A00074206D650000000074696D652063616CA4
:1047B0006962726174696F6E000000006461792043
:1047C00063616C6962726174696F6E0050000020F1
:1047D000420A00202B0000002D0000006E65787456
:1047E00000000000510A00206C000020600A002038
:1047F00073657474696E6773000000002800002000
:104800006F6E00006F666600880000206F0A00204F
:1048100029000020737461727400000073746F705B
:104820000000000072657365740000003230313999
:10483000323134313435000059616E674A69616E36
:104840000000000000B585B001210420FCF75EFCEB
:1048500001218803FCF75AFC4FF40070ADF81000FA
:1048600018208DF8130003208DF8120004A92248A7
:10487000FBF728FF4FF48060ADF8100004208DF89E
:10488000130004A91C48FBF71DFF4FF4E130009012
:104890000020ADF80400ADF80600ADF80800ADF852
:1048A0000C000C20ADF80A0069461448FDF70DFE17
:1048B00001211248FDF795FE05B000BD70B5044614
:1048C0000D46E1B20D48FDF7F9FE00BF80210B480F
:1048D000FDF762FF0028F9D0204670BD10B50446F0
:1048E00000BF20210548FDF757FF0028F9D00348F5
:1048F000FDF7E8FE10BD000000080140003801404F
:1049000000B585B001214805FCF70DFC0121082008
:10491000FCF7FCFB4020ADF8000003208DF80200FE
:104920001C208DF803006946FE48FBF7CBFE802073
:10493000ADF800006946FB48FBF7C4FE0020ADF867
:1049400008004BF6FF70ADF80A007820ADF80C00B7
:104950004FF48060ADF80E000001ADF81000F24891
:10496000019001A9F148FCF714F80121EF48FCF788
:104970008EF805B000BD70B504460D4600BF4FF47B
:104980000031EA48FCF7AAF90028F8D10121E748EC
:10499000FCF7A1F800BFE649E448FCF77DF90028E0
:1049A000F9D000227821E148FCF7EBF800BFE1499B
:1049B000DE48FCF771F90028F9D02146DB48FCF706
:1049C000DAF800BFDB49891CD848FCF765F90028F4
:1049D000F8D02946D548FCF7CEF800BFD549891C48
:1049E000D248FCF759F90028F8D00121CF48FCF74C
:1049F0007EF870BD10B5044621460020FFF7BBFFCE
:104A000010BD10B5044621464020FFF7B4FF10BD8D
:104A100010B5012000F049FAAE20FFF7EBFF20208F
:104A2000FFF7E8FF1020FFF7E5FFB020FFF7E2FFF8
:104A3000C820FFF7DFFF0020FFF7DCFF1020FFF7A3
:104A4000D9FF4020FFF7D6FF8120FFF7D3FFFF20DB
:104A5000FFF7D0FFA120FFF7CDFFA620FFF7CAFF89
:104A6000A820FFF7C7FF3F20FFF7C4FFA420FFF7F0
:104A7000C1FFD320FFF7BEFF0020FFF7BBFFD5200B
:104A8000FFF7B8FFF020FFF7B5FFD920FFF7B2FF1F
:104A90002220FFF7AFFFDA20FFF7ACFF1220FFF76D
:104AA000A9FFDB20FFF7A6FF2020FFF7A3FF8D2043
:104AB000FFF7A0FF1420FFF79DFFAF20FFF79AFF3D
:104AC00010BD70B504460D4605F1B001C8B2FFF740
:104AD00091FF102141EA1410FFF78CFF04F00F0141
:104AE00041F00100FFF786FF70BD70B50646002457
:104AF00015E004F1B001C8B2FFF77CFF0020FFF71A
:104B000079FF1020FFF776FF002504E03046FFF71D
:104B100078FF681CC5B2802DF8DB601CC4B2082C7D
:104B2000E7DB70BD10B50020FFF7DFFF10BD10B54B
:104B30008D20FFF75FFF1420FFF75CFFAF20FFF72A
:104B400059FF10BD10B58D20FFF754FF1020FFF75F
:104B500051FFAE20FFF74EFF10BD2DE9F04706468E
:104B6000894617469A464FF0000800240025BAF1FE
:104B7000010F03D0BAF1020F5ED125E020E0785D8D
:104B8000203800F0FF087E2E04DD002609F1010028
:104B900000F0FF0949463046FFF793FF002409E083
:104BA00008EB4801644A02EB4101085DFFF729FF69
:104BB000601CC4B2062CF3DBB01DC6B2681CC5B2C3
:104BC000785D0028DBD137E032E0785D203800F0F6
:104BD000FF08782E04DD002609F1010000F0FF092E
:104BE00049463046FFF76DFF002407E004EB08114B
:104BF000524A505CFFF705FF601CC4B2082CF5DB7D
:104C000009F10100C1B23046FFF75BFF002408E064
:104C100004EB08110831494A505CFFF7F2FE601CB2
:104C2000C4B2082CF4DB06F10800C6B2681CC5B299
:104C3000785D0028C9D100BF00BFBDE8F0872DE92D
:104C4000F04180460E46174600247D01314640461D
:104C5000FFF737FF00BF06E03949485DFFF7D1FE97
:104C60006D1C601CC4B2102CF6DB701CC1B2404637
:104C7000FFF727FF002406E03149485DFFF7C1FE3A
:104C80006D1C601CC4B2102CF6DBBDE8F0812DE970
:104C9000F04180460E46174600BF07EBC700C5002F
:104CA00031464046FFF70DFF002406E02549485DE8
:104CB000FFF7A7FE6D1C601CC4B2182CF6DB701C3D
:104CC000C1B24046FFF7FDFE002406E01D49485DE5
:104CD000FFF797FE6D1C601CC4B2182CF6DBB01CED
:104CE000C1B24046FFF7EDFE002406E01549485DDD
:104CF000FFF787FE6D1C601CC4B2182CF6DBBDE804
:104D0000F081F0B589B005460E46174600243946B5
:104D100001A800F0D9FAF1B2E8B2FFF7D2FE00BF65
:104D200019E00000000C0140801A06000054004009
:104D30000100030082000700486400087066000854
:104D400074020020F402002001A911F81400FFF7FA
:104D500058FE601CC4B2102CF6DB721CD1B2E8B253
:104D6000FFF7AFFE002408E0012101EB440101AA96
:104D7000505CFFF746FE601CC4B2102CF4DB09B097
:104D8000F0BD2DE9F04106460F4614460DE025889A
:104D9000280200EB252085B22A4639463046FFF727
:104DA000B0FF06F1100086B2A41C20780028EED1D6
:104DB000BDE8F0812DE9F05F06460F4690461C469F
:104DC000DDF828A04FF0000BE11704EB5171C9107A
:104DD000A4EBC10131B92046E11704EB5171C1F3D5
:104DE000C70506E02046E11704EB5171C910491CC4
:104DF000CDB23D4614E029463046FFF762FEB1468B
:104E00000AE059460BF1010B1AF80100FFF7F9FD12
:104E100009F1010000F0FF09C145F2DB681CC5B2D1
:104E2000A542E8DBBDE8F09F30B50146B1F1807FD7
:104E300001D3012030BD21F07F40401E4FF0E02221
:104E4000506150170F22002807DA13071D0E2A4B56
:104E500000F00F04241F1D5503E013071C0E274B01
:104E60001C5400BF00204FF0E02290610720106129
:104E70000020DFE770B504462148FFF7D5FF002585
:104E800008E000BF4FF0E020006900F48030002807
:104E9000F8D06D1CA542F4D34FF0E020006920F05B
:104EA00001004FF0E021086170BD70B50446002597
:104EB00004E04FF47A70FFF7DDFF641EA542F8D3DB
:104EC00070BD70B504464820FFF7AEFF002508E02E
:104ED00000BF4FF0E020006900F480300028F8D0D7
:104EE0006D1CA542F4D34FF0E020006920F00100D2
:104EF0004FF0E021086170BD18ED00E000E400E033
:104F00004019010008B54FF4C060FBF71DFA1720E7
:104F10008DF8000001208DF8010000208DF80200BE
:104F200001208DF803006846FBF713FA08BD0EB5A3
:104F3000FFF7E8FF01211820FCF7E8F801210846F7
:104F4000FCF7E4F84020ADF8080048208DF80B008D
:104F500002A92C48FBF7B6FB06210220FBF7C8FC90
:104F60004020009000208DF804000C208DF80500F2
:104F700001208DF806006846FBF7C4FA8020ADF8E2
:104F8000080002A91F48FBF79DFB07210220FBF741
:104F9000AFFC802000906846FBF7B4FA4FF48070B5
:104FA000ADF8080002A91748FBF78CFB0821022086
:104FB000FBF79EFC4FF4807000906846FBF7A2FA66
:104FC0004FF40070ADF8080002A90E48FBF77AFB19
:104FD00009210220FBF78CFC4FF40070009068461A
:104FE000FBF790FA10208DF80B008001ADF8080057
:104FF00002A90448FBF766FB4FF480610148FBF708
:1050000010FC0EBD0010014008B54FF4C060FBF766
:105010009BF936208DF8000001208DF80100032057
:105020008DF8020001208DF803006846FBF791F926
:1050300008BD0EB501211020FCF775F842F20F7083
:10504000ADF8040040F64B60ADF8000069460B482F
:10505000FCF7BEFB01210948FDF7DCF901221146EE
:105060000648FCF72CFF01210448FCF70DFF0EBD9C
:1050700010B5FFF7C9FFFFF7DCFF10BD00100040BF
:1050800008B501210420FCF741F810208DF8030039
:105090000001ADF8000003208DF8020069462E489B
:1050A000FBF710FB4FF480712B48FBF7BAFB08BDF0
:1050B00070B50446B4F57A7F13D02848B0FBF4F5F8
:1050C0004FF480712448FBF7AAFB2846FFF7F9FE4E
:1050D0004FF480712048FBF7A4FB2846FFF7F1FE50
:1050E00003E04FF47A70FFF7C5FE70BD10B50446BB
:1050F0004FF480711848FBF792FB2046FFF7BAFE89
:105100004FF480711448FBF78CFB2046FFF7B2FE8A
:1051100010BD10B5002400BF06E0114931F824107D
:1051200088B2FFF7E3FF641C0C2CF6DB10BD70B5F2
:105130000024002500BF0BE00B2406E0084931F8ED
:10514000241088B2FFF7D2FF641E002CF6DA6D1C23
:10515000062DF1DB70BD00000008014020A1070012
:10516000C409002008B501214020FBF7CFFF4020F3
:10517000ADF8000010208DF8030003208DF8020028
:1051800069465048FBF79EFA08BD10B5FFF7EAFFE5
:1051900040214C48FBF743FB10BD08B54020ADF85B
:1051A000000048208DF8030069464648FBF78AFA5C
:1051B00008BD08B54020ADF8000010208DF80300B0
:1051C00003208DF8020069463E48FBF77BFA08BDD4
:1051D00070B50025002424E000BF40213948FBF7CA
:1051E00004FB0028F9D02820FFF76BFE402135484A
:1051F000FBF7FBFA01280DD100BF40213148FBF736
:10520000F4FA0128F9D0C4F1070101208840C0B2A6
:10521000054304E0C4F10701012088408543601C78
:10522000C4B2082CD8DB284670BD10B50446FFF781
:10523000C0FF40212348FBF7F4FA1220FFF71AFEC3
:1052400040212048FBF7EBFA1E20FFF73AFEFFF75C
:10525000A4FF40211B48FBF7C8FA70BB00BF4021E8
:105260001848FBF7C2FA0028F9D000BF40211548C2
:10527000FBF7BBFA0128F9D0FFF7AAFF2070FFF770
:10528000A7FF6070FFF7A4FFA070FFF7A1FFE07019
:10529000FFF79EFF2071FFF78CFF40210948FBF7C5
:1052A000BEFA207861780844A1780844E17808447F
:1052B0002179884202D1012010BD01E00020FBE7E6
:1052C0000020F9E7001801402DE9F04180460C4626
:1052D0001248007820B900F027F801200F49087023
:1052E0000F48104908602512E6B2A5F1A101C1EBF3
:1052F000011202EB411106EB4101A1390802C1176D
:1053000000EB5171CF1007480068C11920224046B8
:1053100000F0B8F90020BDE8F08100000C0A002080
:1053200000301800100A002000B587B001210803E2
:10533000FBF7ECFE0121D420FBF7E8FE0120ADF8DD
:10534000040003208DF8060010208DF8070001A945
:10535000FE48FBF7B7F92020ADF8040018208DF8BF
:10536000070001A9FA48FBF7ADF94020ADF80400A9
:1053700001A9F748FBF7A6F98020ADF8040001A9C0
:10538000F348FBF79FF90121F048FBF748FA0020AA
:10539000ADF808004FF48270ADF80A000020ADF8B7
:1053A0000C000220ADF80E000120ADF81000400204
:1053B000ADF812000820ADF814000020ADF816007A
:1053C0000720ADF8180002A9E248FBF7CDFF012144
:1053D000E048FCF76EF807B000BD10B50446214662
:1053E000DDA000F06DFD002010BD10B504464FF4A7
:1053F0008050E54908600AE0E3490868411EE24A36
:10540000116020B90020FFF7E8FFC0B210BD0221F3
:10541000D048FCF7D2F80028EED02146CD48FCF762
:1054200079F84FF48050D84908600AE0D6490868F6
:10543000411ED54A116020B90120FFF7CEFFC0B24E
:10544000E4E70121C348FCF7B8F80028EED0C148D2
:10545000FCF762F8C0B2D9E710B500240121BB48BF
:10546000FBF7DFF90520FFF7C0FF00BFFF20FFF7C4
:10547000BCFF044604F001000028F7D10121B34825
:10548000FBF7CDF910BD10B50121B048FBF7C9F904
:105490000620FFF7AAFF0121AC48FBF7C0F910BDB9
:1054A00010B50446FFF7EFFFFFF7D6FF0121A7482D
:1054B000FBF7B7F92020FFF798FFC4F30740FFF789
:1054C00094FFC4F30720FFF790FFE0B2FFF78DFFD2
:1054D00001219E48FBF7A3F9FFF7BEFF10BD10B5F1
:1054E000FFF7D1FF01219948FBF79BF9C720FFF790
:1054F0007CFF01219548FBF792F9FFF7ADFF10BD46
:1055000070B505460C461646FFF7BDFF01218F48D2
:10551000FBF787F90220FFF768FFC4F30740FFF7A6
:1055200064FFC4F30720FFF760FFE0B2FFF75DFF01
:10553000B6F5807F04DD4FF4807694A000F0C0FCC7
:1055400003E02878FFF751FF6D1C301EA6F1010122
:105550008EB2F6D101217D48FBF761F9FFF77CFFA0
:1055600070BD2DE9F05F07460E4614464FF0000867
:10557000C146C2460025AB4606F0FF0ACAF100004C
:10558000C5B22046E11704EB1161C1F30728E1170A
:1055900004EB11610912A4EB012101F0FF09BAF13A
:1055A000000F20D1B8F1000F05D122463146384610
:1055B000FFF7A6FF64E009E04FF4807231463846F9
:1055C000FFF79EFF06F5807607F58077B8F10000BB
:1055D000A8F1010101F0FF08EED14A4631463846F4
:1055E000FFF78EFF4CE0B8F1000F18D1A94510DD90
:1055F000A9EB050000F0FF0B2A4631463846FFF7BD
:105600007FFF2E442F445A4631463846FFF778FF35
:1056100036E0224631463846FFF772FF30E0601B25
:1056200084B22046E11704EB1161C1F30728E117AA
:1056300004EB11610912A4EB012101F0FF092A46D4
:1056400031463846FFF75CFF2E442F4409E04FF403
:10565000807231463846FFF753FF06F5807607F52E
:105660008077B8F10000A8F1010101F0FF08EED148
:10567000B9F1000F04D04A4631463846FFF740FFE3
:10568000BDE8F09F70B505460C46164601212F482F
:10569000FBF7C7F80320FFF7A8FEC4F30740FFF7A6
:1056A000A4FEC4F30720FFF7A0FEE0B2FFF79DFEC3
:1056B00004E0FF20FFF799FE28706D1C301EA6F154
:1056C00001018EB2F5D101212048FBF7A8F870BD89
:1056D0002DE9F041002400250026002701211B4868
:1056E000FBF79FF89F20FFF780FEFF20FFF77DFE6E
:1056F0000546FF20FFF779FE0646FF20FFF775FEFF
:10570000074601211148FBF78AF8280440EA0620E1
:1057100040EA07042046BDE8F08110B500240121CD
:105720000A48FBF77EF8AB20FFF75FFEFF20FFF78C
:105730005CFEFF20FFF759FEFF20FFF756FEFF201B
:10574000FFF753FE04460121004839E000100140F4
:1057500000080140003001403C3C2D464C4153487C
:105760002D4552524F522D3E3E2053504920B5C830
:10577000B4FDB3ACCAB1216572726F72436F6465D8
:10578000203D2025640A0000140A00203C3C2D46E0
:105790004C4153482D4552524F522D3E3E205350BE
:1057A000495F464C4153485F506167655772697461
:1057B0006520746F6F206C61726765210A000000BC
:1057C000FBF72DF8204610BD10B5044601213248E4
:1057D000FBF727F80320FFF708FEC4F30740FFF7A5
:1057E00004FEC4F30720FFF700FEE0B2FFF7FDFD63
:1057F00010BD10B5FF20FFF7F8FD10BD10B5044631
:105800004FF480502549086009E024490868411E8A
:10581000224A116018B90220FFF7DFFD10BD0221F6
:105820001F48FBF7CAFE0028EFD021461C48FBF7B3
:1058300071FE4FF480501949086009E01749086863
:10584000411E164A116018B90320FFF7C6FDE5E7AF
:1058500001211348FBF7B1FE0028EFD01048FBF7F9
:105860005BFEDBE710B501210B48FAF7DAFFB92040
:10587000FFF7BBFD01210848FAF7D1FF10BD10B5B5
:1058800001210548FAF7CDFFAB20FFF7AEFD01215E
:105890000148FAF7C4FF10BD00100140140A0020AF
:1058A0000030014040EA01039B0703D009E008C92A
:1058B000121F08C0042AFAD203E011F8013B00F8D5
:1058C000013B521EF9D270470FB400B589B00BA846
:1058D00000906A4603480A9900F0D0F809B05DF8D4
:1058E00014FB0000180A00202DE9FF5F1D464FF051
:1058F000FF3BD5E9014691465F464FF00008A96994
:105900007F1C01988847296A824688470028F6D17B
:10591000BAF1FF3F0CD024F4C064002E19DD6006FC
:1059200014D5BAF12B0F09D0BAF12D0F0ED103E027
:10593000584604B0BDE8F09F44F48064A9697F1C18
:1059400001988847761E8246002E02DDBAF1300F9C
:1059500003D0B9F1000F26D032E0A969761E44F4D5
:1059600000747F1C019888478246002E05DDBAF13D
:10597000780F06D0BAF1580F03D0B9F1000F10D04C
:105980001EE0B9F1000F02D0B9F1100F18D1A969CA
:10599000761E24F400747F1C0198884782461020EC
:1059A00002E0082000E00A20814609E008FB09081F
:1059B000A969761E44F400747F1C019888478246CA
:1059C000002E05DD4946504600F04AF80028EDDA81
:1059D000E96901988847A00502D46FF00100A8E7A3
:1059E000E00725D1600613D5600502D5C8F1000097
:1059F00000E0404629680A1D2A600968220501D591
:105A0000087015E0220701D5088011E008600FE05A
:105A10002868011D29600068210502D580F80080F2
:105A200006E0210702D5A0F8008001E0C0F8008060
:105A300038467EE730B50B4601460020202201247F
:105A400009E021FA02F59D4205D303FA02F5491B4C
:105A500004FA02F52844151EA2F10102F1DC30BD62
:105A60003A2800D2303820F02002412A01D3A2F196
:105A70003700884201D34FF0FF307047024B9361EB
:105A8000024BD36100F032B8DD480008D15A00085B
:105A9000064C074D06E0E06840F0010394E807007B
:105AA00098471034AC42F6D3FAF746FB04AC000832
:105AB00024AC0008094910B508784C1C18B1401EE8
:105AC0000870205C10BD00210720ABBE207010BD07
:105AD00002490878421C0A7070470000200A002022
