:020000040800F2
:10000000C80E002045010008A1280008A328000808
:10001000A7280008AB280008AF280008000000004F
:10002000000000000000000000000000B3280008ED
:10003000B528000800000000B7280008B92800080B
:100040005F0100085F0100085F010008BB2800088D
:100050005F0100085F0100085F0100085F01000800
:100060005F0100085F0100085F0100085F010008F0
:100070005F0100085F0100085F0100085F010008E0
:100080005F0100085F0100085F0100085F010008D0
:100090005F0100085F0100085F010008472E0008AB
:1000A0005F0100085F0100085F0100085F010008B0
:1000B0005F0100085F0100085F0100085F010008A0
:1000C0005F0100085F0100085F0100085F01000890
:1000D0005F0100085F0100085F0100085F01000880
:1000E0005F0100085F0100085F0100085F01000870
:1000F0005F0100085F0100085F0100085F01000860
:100100005F0100085F0100085F0100085F0100084F
:100110005F0100085F010008632900085F01000813
:100120005F0100085F0100085F0100085F0100082F
:10013000DFF80CD005F0A2FC004800474D2800086D
:10014000C80E00200648804706480047FEE7FEE745
:10015000FEE7FEE7FEE7FEE7FEE7FEE7FEE7FEE777
:1001600047020008310100080CB500200190009002
:100170006C48006840F480306A49086000BF6948F4
:10018000006800F4003000900198401C0190009835
:1001900018B90198B0F5A06FF1D16248006800F479
:1001A000003010B10120009001E000200090009884
:1001B000012843D15C48006840F010005A490860AB
:1001C0000846006820F0030008600846006840F018
:1001D0000200086053484068524948600846406839
:1001E00048600846406840F48060486008464068BF
:1001F00020F47C1048600846406840F4E8104860ED
:100200000846006840F08070086000BF45480068FC
:1002100000F000700028F9D04248406820F0030048
:10022000404948600846406840F00200486000BF0E
:100230003C48406800F00C000828F9D10CBD10B50E
:10024000FFF792FF10BD10B53648006840F001007E
:1002500034490860084640683449084031494860DC
:1002600008460068324908402E4908600846006880
:1002700020F4802008600846406820F4FE004860B2
:100280004FF41F008860FFF7DAFF4FF00060294944
:10029000086010BD10B5002100200022214B5B68D2
:1002A00003F00C0121B1042906D0082928D107E068
:1002B000214B224C236027E01F4B204C236023E07E
:1002C000184B5B6803F47010164B5B6803F48032C4
:1002D000022303EB904022B9194B4343174C236090
:1002E0000DE0104B5B6803F4003323B1144B434320
:1002F000124C236003E0104B4343104C236003E097
:100300000D4B0E4C236000BF00BF064B5B68C3F370
:1003100003130C4CE15C094B1B68CB40074C23607A
:1003200010BD000000100240002002400000FFF855
:10033000FFFFF6FE08ED00E000127A00000000204A
:1003400000093D000400002031490143314A116099
:10035000704770B5002100230F22C47804B32D4CE0
:10036000246804F4E064C4F5E064210AC1F10403E4
:10037000CA40447804FA03F1847814402143090107
:10038000254C0678A155047804F01F050124AC40E3
:1003900005786D11AD0005F1E025C5F8004109E0D3
:1003A000047804F01F050124AC401C4D067876113A
:1003B00045F8264070BD1A4A0A400243154B1B1FE0
:1003C0001A60704739B1134A121D12680243114B6B
:1003D0001B1D1A6006E00F4A121D126882430D4B66
:1003E0001B1D1A607047042808D14FF0E0210969ED
:1003F00041F004014FF0E022116107E04FF0E021ED
:10040000096921F004014FF0E022116170470000FA
:100410000000FA050CED00E000E400E080E100E0FF
:1004200080FFFF1F10B5012000F0A4FE002000F0A7
:10043000A1FE10BD2A49086070472949091F0860BC
:100440007047274984310860704701460020254ADB
:1004500010884FF67F4210400843224A10807047B0
:10046000014600201F4A10884FF680721040084352
:100470001C4A1080704708B500220092194A2C3A95
:100480000092009A02440092009A116008BD08B5DB
:1004900001460020009013482C3800900098084432
:1004A00000900098008808BD0D489C300068C0B2DC
:1004B00070470C480830008840F0010009490831B5
:1004C000088070470648A0300068C0B270470548F1
:1004D0000830008840F00200024908310880704767
:1004E00004860D422C6C0040002044490860091D20
:1004F0000860091D0860091D086041483F49143122
:100500000860704700213D498279002A3AD00A46A6
:10051000126803689A430B461A600A1D1268036842
:100520009A430B1D1A60027911440A6803681A4342
:100530000A60324A0832126803689A432F4B083324
:100540001A601A1D126803689A432C4B0C331A6008
:100550004279102A0ED11A1F126803681A43274BDA
:1005600008331A601A1D126803681A43234B0C33B0
:100570001A600DE02149427911440A6803681A4360
:100580000A6005E0027911440A6803689A430A6028
:1005900070470021016001710C21417100218171BE
:1005A00070471649103109680143144A103211602E
:1005B000704701460020114A143212680A400AB1FD
:1005C000012000E0002070470C491431086070479A
:1005D000014600200022094B1B6803EA0102074B79
:1005E00014331B680B4013B10AB1012000E0002056
:1005F0007047024914310860704700000004014050
:10060000FFFF0F0010B50446CC48844208D10121F9
:10061000042000F095FD0021042000F091FD46E04B
:10062000C748844208D10121082000F089FD00213B
:10063000082000F085FD3AE0C248844208D101213B
:10064000102000F07DFD0021102000F079FD2EE04B
:10065000BD48844208D10121202000F071FD002115
:10066000202000F06DFD22E0B848844208D101212D
:10067000402000F065FD0021402000F061FD16E003
:10068000B348844208D10121802000F059FD0021A7
:10069000802000F055FD0AE0AE48844207D10121D8
:1006A000801500F04DFD0021A01500F049FD10BDA2
:1006B00010B50121084600F043FD0021012000F0A3
:1006C0003FFD10BD2DE9F041024600250026002027
:1006D00000230024002791F803C00CF00F0591F8C7
:1006E00003C00CF0100CBCF1000F03D091F802C055
:1006F0004CEA050591F800C0BCF1000F31D0146838
:1007000000202BE04FF0010C0CFA00F3B1F800C010
:100710000CEA03069E4220D183004FF00F0C0CFA26
:1007200003F7BC4305FA03FC4CEA040491F803C048
:10073000BCF1280F06D14FF0010C0CFA00FCC2F8F6
:1007400014C00AE091F803C0BCF1480F05D14FF086
:10075000010C0CFA00FCC2F810C0401C0828D1D3D0
:100760001460B1F800C0BCF1FF0F34DD5468002004
:100770002EE000F1080C4FF0010808FA0CF3B1F874
:1007800000C00CEA03069E4221D183004FF00F0CFB
:100790000CFA03F7BC4305FA03FC4CEA040491F895
:1007A00003C0BCF1280F05D100F1080C08FA0CF8C1
:1007B000C2F8148091F803C0BCF1480F07D100F1D2
:1007C000080C4FF0010808FA0CF8C2F81080401C21
:1007D0000828CED35460BDE8F0814FF6FF71018048
:1007E000022181700421C170704702460020936885
:1007F0000B400BB1012000E00020704701468868E3
:1008000080B2704702460020D3680B400BB1012034
:1008100000E0002070470146C86880B2704701615F
:100820007047416170470AB1016100E04161704762
:10083000C16070474FF480320A43826181618261F6
:1008400082698269704702460020434B18684FF660
:100850008073184040EA021008433F4B186070470D
:100860003E49C8617047F0B50A46002300240021C4
:10087000002500F00046B6F1004F02D1364EF16976
:1008800001E0354E7168C0F3034583B200F44016B1
:10089000B6F5401F08D121F070612F4E766826F022
:1008A00070662D4F7E6012E000F48016B6F5801F52
:1008B00006D1032606FA05F4A14341F0706106E073
:1008C000460D360103FA06F6B14341F0706122B1DC
:1008D000460D360103FA06F6314300F00046B6F144
:1008E000004F02D11C4EF16101E01B4E7160F0BD62
:1008F00030B500228B071C0F0F2303FA04F2164BAE
:1009000008338C1053F824309343134C08348D1063
:1009100044F8253023468C1053F824308C07240FDC
:1009200000FA04F423430C4C08348D1044F82530AD
:1009300030BD0A49DC310860704700000008014002
:10094000000C01400010014000140140001801405B
:10095000001C014000200140000001400000204236
:1009600010B50446F748844209D10121480500F03A
:10097000F4FB00214FF4001000F0EFFB08E0012130
:10098000880500F0EAFB00214FF4800000F0E5FB51
:1009900010BD2DE9F04385B004460D460026B14652
:1009A0000427DFF8A483A6884FF6C0700640684687
:1009B00000F03FFBDDF80880E448B8FBF0F01FFAD8
:1009C00080F946EA0906A68020884FF6FE710840A5
:1009D00020800026DE49286888420CD8286840001C
:1009E000B8FBF0F087B2042F00DA04273E4309F188
:1009F0000100208427E0E8884BF6FF71884206D189
:100A0000286800EB4000B8FBF0F087B209E02868E6
:100A100000EBC00101EB0010B8FBF0F087B247F427
:100A20008047C7F30B0008B947F0010747F40040BF
:100A300006434FF4967009FB00F04FF47A7190FB77
:100A4000F1F0401C2084A683208840F00100208023
:100A500026884FF6F5300640A88869890843064382
:100A60002680A88929890843208105B0BDE8F08344
:100A700041F288310160002181804BF6FF71C18015
:100A80000021018141814FF480418181704721B172
:100A9000028842F00102028004E002884FF6FE73F1
:100AA0001A400280704721B1828842F4006282803D
:100AB00004E082884FF2FF731A408280704721B1B0
:100AC000828842F48052828004E082884EF6FF736E
:100AD0001A408280704721B1028842F480720280FD
:100AE00004E002884FF6FF631A400280704721B18C
:100AF000028842F40072028004E002884FF6FF533D
:100B00001A400280704721B1028842F4806202805C
:100B100004E002884FF6FF331A40028070470A460D
:100B2000002181894FF60173194002F0FE03194339
:100B30008181704721B1828942F00102828104E003
:100B400082894FF6FE731A408281704721B1028874
:100B500042F04002028004E002884FF6BF731A4060
:100B6000028070471AB183880B43838002E0838838
:100B70008B4383807047018270470146088AC0B268
:100B8000704712B141F0010102E04FF6FE731940C7
:100B90000182704708B5024600200090009200983C
:100BA000084400900098008808BD21B1028842F4F2
:100BB0000042028003E00288C2F30E020280704706
:100BC000B1F5006F04D1028842F40062028004E0B3
:100BD00002884FF2FF731A4002807047B1F5005F40
:100BE00004D1028842F40052028004E002884DF6EB
:100BF000FF731A400280704721B1028842F480528C
:100C0000028004E002884EF6FF731A4002807047AB
:100C1000B1F5006F04D1028842F40062028004E062
:100C200002884FF2FF731A400280704721B1028898
:100C300042F02002028004E002884FF6DF731A407F
:100C4000028070470146088B0012704721B102886C
:100C500042F01002028004E002884FF6EF731A405F
:100C60000280704721B9028842F08002028004E0CD
:100C700002884FF67F731A4002807047B1F5804FAB
:100C800005D0828B4BF6FF731A40828303E0828B80
:100C900042F480428283704770B5024600240025EA
:100CA00000230020958A138B1B0445EA030626F0D7
:100CB0007F4404EA01068E4201D1012000E00020B9
:100CC00070BD10B501460020002300228B8A0A8BDC
:100CD000120443EA020424F07F4010BD0CB5024622
:100CE000002000230193009300920B0F019321F049
:100CF0007F41019B1BB1009B1433009303E0090C5F
:100D0000009B18330093009B1B680B400BB1012024
:100D100000E000200CBD002221F07F42D3438382FB
:100D2000704730B5024600200023948801F0E0654A
:100D300004EA154321F07F41948A0C4054B14BB131
:100D4000012008E00054004000127A0040420F00E9
:100D5000A0860100002030BD002221F07F42D34355
:100D60008382704710B50121080700F0F6F90021D1
:100D70004FF0805000F0F1F910BD2A490862704729
:100D800028490861704701460020274A106820F072
:100D9000E0000843106070472249A03108607047A6
:100DA00010B502460020204B186820F003001043C5
:100DB00018601E4B1B6843F004031C4C2360012980
:100DC00001D130BF00E020BF184B1B6823F00403A3
:100DD000164C236010BD1448006840F0040012490E
:100DE00008600846006840F0020008600F4800688C
:100DF00040F004000D49086000BF00BF30BF7047DD
:100E000001460020084A52680A400AB1012000E069
:100E1000002070470449096841EA8001024A1160D4
:100E20007047000000000E420070004010ED00E02E
:100E3000DF48006840F00100DD490860084640686E
:100E4000DC490840DA49486008460068DA49084049
:100E5000D74908600846006820F4802008600846EA
:100E6000406820F4FE0048604FF41F00886070471F
:100E7000CF49096821F48031CD4A116011460968D3
:100E800021F480211160B0F5803F03D0B0F5802FB0
:100E90000ED106E0C649096841F48031C44A1160A8
:100EA00007E0C349096841F4A021C14A116000E08C
:100EB00000BF00BF704710B501460022002300208C
:100EC0004A11012A02D1BA4C236806E0022A02D153
:100ED000B74C236A01E0B64C636A01F01F0201249B
:100EE00094401C400CB1012000E0002010BD38B53A
:100EF000002000900024002500BF3120FFF7DBFF19
:100F000005460098401C00900098B0F5A06F01D0F5
:100F1000002DF2D03120FFF7CEFF08B1012400E010
:100F20000024204638BD01460020A14A106820F068
:100F3000F80040EAC10010607047A049086070479F
:100F4000024600209A4B586820F47C1042EA0103C4
:100F50001843974B58607047984908667047014698
:100F60000020934A506820F0030008435060704707
:100F70008F48406800F00C007047014600208C4A02
:100F8000506820F0F0000843506070470146002090
:100F9000874A506820F4E06008435060704701467B
:100FA0000020834A506820F4605040EAC10050603D
:100FB000704729B17E4A527A02437D4B5A7204E04F
:100FC0007B4A527A82437A4B5A7270477B49D831B6
:100FD0000860704701460020754A506820F4404080
:100FE0000843506070470021714A20321170704AE6
:100FF00082F82010012802D004280AD104E001213F
:101000006B4A2032117005E00521694A20321170C7
:1010100000E000BF00BF704769490860704764493D
:10102000096A0143624A11627047654944390860A0
:10103000704730B500210022002400235C4D6D680C
:1010400005F00C0121B1042905D0082923D105E0C0
:101050005C4D056022E05B4D05601FE0544D6D68FE
:1010600005F47012524D6D6805F48034022505EBCD
:1010700092421CB9544D554305600BE04C4D6D68D0
:1010800005F400351DB1504D5543056002E04D4D4E
:101090005543056002E04B4D056000BF00BF444D65
:1010A0006D6805F0F0010909484D6B5C0568DD408D
:1010B00045603F4D6D6805F4E061090A434D6B5C86
:1010C0004568DD4085603A4D6D6805F46051C90A98
:1010D0003E4D6B5C4568DD40C560354D6D6805F47F
:1010E0004041890B3A4D6B5CC568B5FBF3F5056172
:1010F00030BD29B12E4A526902432D4B5A6104E09A
:101100002B4A526982432A4B5A61704729B1284AB7
:1011100092690243264B9A6104E0254A9269824310
:10112000234B9A61704729B1214AD2690243204B6F
:10113000DA6104E01E4AD26982431D4BDA617047CE
:1011400029B11B4AD2680243194BDA6004E0184AFD
:10115000D2688243164BDA60704729B1144A12698B
:101160000243134B1A6104E0114A12698243104B87
:101170001A61704712494039086070470F49C864C6
:1011800070470B49C87170470948406A40F0807049
:1011900007494862704701460020054A92680A40A4
:1011A0000AB1012000E000207047014988727047B1
:1011B000001002400000FFF8FFFFF6FE0000424270
:1011C0008004424200127A0000093D001400002011
:1011D0002400002029B1504A128802434E4B1A8045
:1011E00004E04D4A128882434B4B1A8070474A48AC
:1011F000001D008840F010004749091D0880704715
:101200004548001D00884FF6EF7108404249091D0E
:1012100008807047002140481C300188001F00886A
:1012200041EA0040704700B50246FFF7E0FF100CAE
:10123000394918310880091D0A80FFF7E1FF00BD18
:1012400000B50246FFF7D3FFC2F30340324908312D
:101250000880091D0A80FFF7D3FF00BD00B50246D4
:10126000FFF7C5FF100C2C4920310880091D0A80AA
:10127000FFF7C6FF00BD0020274910310988090784
:10128000080B2549143109880843704700BF2248DC
:10129000001D008800F020000028F8D070471E488C
:1012A000001D00884FF6F77108401B49091D088092
:1012B00000BF1948001D008800F008000028F8D081
:1012C000704701460020144A121D12880A400AB1D4
:1012D000012000E0002070470F49091D0988814363
:1012E0000D4A121D11807047014600200A4A121D46
:1012F00012880A40D0B2084A12880A4012B108B1D6
:10130000012000E0002070470349091D098881433E
:10131000014A121D118070470028004010B5044694
:10132000BE48844208D101218014FFF709FF002143
:10133000A014FFF705FF16E0B948844208D1012147
:101340000014FFF70AFF00212014FFF706FF0AE050
:10135000B448844207D10121C013FFF7FEFE0021EB
:10136000E013FFF7FAFE10BD10B50022028802F468
:1013700041520B884C8823438C882343CC882343D9
:101380000C8923434C8923438C892343CC892343F1
:101390001A430280838B4FF2FF74234083830B8AAE
:1013A000038210BD2DE9F04F85B005460C464FF085
:1013B000000902274FF000084FF0010B0026B2464B
:1013C000A88B4FF240010840A88302202884B5F87A
:1013D0001C90A068022801D100BF38E0A08810B995
:1013E0004FF0010B01E04FF0020B8D48854200D118
:1013F00000E000BF6846FFF71CFEDDF800A0E088B3
:10140000B0F5007F0AD14FEA1A2000EB80004000BF
:10141000A168B0FBF1F0401D86B20BE04FEA4B1023
:10142000BAFBF0F000EB80004000A168B0FBF1F0E7
:10143000401D86B20A20B6FBF0F606F00108A6EBC6
:101440000800C0F34F074FF6FF7000EA0828022F8C
:1014500001DBFF2F02DD02274FF00008E08840EAA1
:10146000080038432884A088A1890843618808437C
:101470002188084340F4006040EA0909A5F81C905F
:1014800005B0BDE8F08F0021018041808180C180DE
:10149000018141818181C181072101827047002141
:1014A000018041808180C180022181600021818191
:1014B000704721B1028842F04002028004E00288B5
:1014C0004FF6BF731A400280704721B1828B42F4FD
:1014D0008062828304E0828B4FF6FF331A4082835E
:1014E000704730B5002400230C110125A540ABB294
:1014F0001AB185881D43858002E085889D438580DB
:1015000030BD1AB183880B43838002E083888B430C
:1015100083807047818170470146888970474FF604
:10152000FF62914204D0028842F48072028004E09B
:1015300002884FF6FF631A400280704721B182880B
:1015400042F00402828004E082884FF6FB731A4066
:101550008280704702884FF2FF731A40028002882F
:101560000A4302807047018841F48051018070472E
:1015700021B1028842F40052028004E002884DF654
:10158000FF731A400280704702460020012901D0F3
:10159000108B00E0908A70470146088A7047B1F5C9
:1015A000804F04D1028842F48042028004E0028825
:1015B0004BF6FF731A4002807047024600201389E1
:1015C0000B400BB1012000E000207047CA430281AC
:1015D0007047F0B50246002000240023002501F0EA
:1015E0000F070126BE40B4B20B1101269E40B3B2D4
:1015F000968806EA03051689264016B10DB101202A
:1016000000E00020F0BD10B5002201F00F0401231E
:10161000A3409AB2D343038110BD000000300140C3
:1016200000380040003C004010B50446FE488442AB
:1016300008D10121C014FFF783FD0021E014FFF75A
:101640007FFDC4E0B4F1804F08D101210846FFF7C7
:1016500084FD00210120FFF780FDB8E0F3488442BB
:1016600008D101210220FFF778FD00210220FFF7B9
:1016700074FDACE0EE48844208D101210420FFF75C
:101680006CFD00210420FFF768FDA0E0E9488442DA
:1016900008D101210820FFF760FD00210820FFF795
:1016A0005CFD94E0E448844208D101211020FFF75A
:1016B00054FD00211020FFF750FD88E0DF488442F0
:1016C00008D101212020FFF748FD00212020FFF74D
:1016D00044FD7CE0DA48844208D101214014FFF740
:1016E0002FFD00216014FFF72BFD70E0D5488442E8
:1016F00009D10121C804FFF723FD00214FF4002088
:10170000FFF71EFD63E0D048844209D1012108059E
:10171000FFF716FD00214FF48010FFF711FD56E092
:10172000CA48844209D101214805FFF709FD00217B
:101730004FF40010FFF704FD49E0C548844208D18A
:1017400001214020FFF709FD00214020FFF705FDA2
:101750003DE0C048844208D101218020FFF7FDFC14
:1017600000218020FFF7F9FC31E0BB48844208D11A
:1017700001218015FFF7F1FC0021A015FFF7EDFC1A
:1017800025E0B648844209D101210804FFF7D8FCBE
:1017900000214FF48030FFF7D3FC18E0B0488442BA
:1017A00009D101214804FFF7CBFC00214FF40030A0
:1017B000FFF7C6FC0BE0AB48844208D10121880446
:1017C000FFF7BEFC00214FF48020FFF7B9FC10BDED
:1017D00000220288944B98420ED0994B98420BD02D
:1017E000B0F1804F08D0914B984205D0904B984271
:1017F00002D0904B984204D14FF68F731A404B8819
:101800001A438D4B984207D08C4B984204D04FF628
:10181000FF431A40CB881A4302808B8883850B884C
:101820000385814B98420BD0854B984208D08B4B57
:10183000984205D08A4B984202D08A4B984201D1F7
:101840000B7A038601238382704770B5002400223F
:101850000023058C4FF6FE7635400584028C838884
:10186000048B4FF68F752C40B51E2C400D882C43F1
:10187000751E2A400D892A434D882A436A4DA84285
:101880000BD06F4DA84208D0744DA84205D0744DBE
:10189000A84202D0734DA84213D14FF6F7752A40E3
:1018A0004D892A434FF6FB752A408D882A434FF60F
:1018B000FF652B404FF6FF552B408D892B43CD897B
:1018C0002B4383800483CD888586028470BD70B5E8
:1018D000002400220023058C4FF6EF763540058466
:1018E000028C8388048B48F6FF752C404FF6FF4529
:1018F0002C400D884FF6FF7606EA05252C434FF65F
:10190000DF752A400D8906EA05152A434D8806EA47
:1019100005152A43444DA84202D0494DA8421DD185
:101920004FF67F752A404D894FF6FF7606EA05157A
:101930002A434FF6BF752A408D8806EA05152A43CB
:101940004FF6FF352B404FF2FF752B408D8906EA8D
:1019500085052B43CD8906EA85052B4383800483C7
:10196000CD880587028470BD70B500240022002355
:10197000058C4FF6FF6635400584028C8388848B86
:101980004FF68F752C404FF6FC752C400D882C437C
:101990004FF6FF552A400D894FF6FF7606EA0525DA
:1019A0002A434D8806EA05252A431F4DA84202D046
:1019B000234DA8421DD14FF2FF752A404D894FF6A5
:1019C000FF7606EA05252A434FF6FF352A408D8823
:1019D00006EA05252A434EF6FF752B404DF6FF75A6
:1019E0002B408D8906EA05152B43CD8906EA05159E
:1019F0002B4383808483CD888587028470BD70B536
:101A0000002200230024058C4EF6FF763540058425
:101A1000038C8488828B48F6FF752A404FF6FF4579
:101A20002A400D8820E00000002C01400004004006
:101A300000080040000C004000100040001400406E
:101A400000340140004C014000500140005401406E
:101A500000180040001C00400020004000400140F1
:101A600000440140004801404FF6FF7606EA052594
:101A70002A434DF6FF752B400D8906EA05352B43A9
:101A80004D8806EA05352B43FA4DA84202D0FA4D9F
:101A9000A84208D14BF6FF752C408D894FF6FF7692
:101AA00006EA85152C4384808283CD88A0F84050B7
:101AB000038470BD828B4FF2FF331A408283828B86
:101AC0004FF6FF7303EA01231A4382837047F0B590
:101AD0000C461546002200210026078C4EF6FF7C9E
:101AE00007EA0C070784828B018C4FF6FF7707EA21
:101AF000043640F6FF473A404FF6FF7707EA0527DE
:101B00003A434FF6FF7707EA03373A43D94FB842D3
:101B10000ED0D94FB8420BD0B0F1804F08D0D74F7C
:101B2000B84205D0D64FB84202D0D64FB84206D1FF
:101B30004DF6FF77394046F48057394305E047F6C4
:101B4000FF57394044F48057394382830184F0BD04
:101B5000828B4FF6F3731A408283828B0A4382830F
:101B60007047F0B50C461546002200210026078C70
:101B70004FF6FF6C07EA0C070784828B018C4FF647
:101B8000FF7707EA04264FF60C773A404FF6FF77C7
:101B900007EA03172F433A43B64FB8420ED0B64F69
:101BA000B8420BD0B0F1804F08D0B44FB84205D046
:101BB000B34FB84202D0B34FB84206D14FF6FF57E9
:101BC000394046F48077394305E04FF2FF573940FA
:101BD00044F48077394382830184F0BD028B4FF255
:101BE000FF331A400283028B4FF6FF7303EA01238F
:101BF0001A4302837047F0B50C46154600220021B7
:101C00000026078C4FF6EF7C07EA0C070784028B4F
:101C1000018C4FF6FF7707EA041640F6FF473A407B
:101C20004FF6FF7707EA03373A434FF6FF7707EAA5
:101C300005273A438F4FB8420ED08F4FB8420BD092
:101C4000B0F1804F08D08D4FB84205D08C4FB842CC
:101C500002D08C4FB84206D14FF6DF77394046F0BC
:101C60001007394305E04FF65F77394044F010071D
:101C7000394302830184F0BD028B4FF6F3731A409F
:101C80000283028B0A4302837047F0B50C46154667
:101C900000220021068C4FF6FE773E400684028B20
:101CA000018C4FF60C7632407E1C06EA03162E435A
:101CB0003243704EB0420ED06F4EB0420BD0B0F1F6
:101CC000804F08D06D4EB04205D06D4EB04202D06C
:101CD0006C4EB04206D14FF6FD76314044F001061D
:101CE000314305E04FF6F576314044F001063143CB
:101CF00002830184F0BD70B505460C465D488542FF
:101D00000ED05D4885420BD0B5F1804F08D05B48BE
:101D1000854205D05A48854202D05A48854200D1B2
:101D200000E000BF208850B92389A2886188284636
:101D3000FFF7ABFFE1882846FFF79EFF25E02088EC
:101D400004280AD12389A28861882846FFF753FF17
:101D5000E1882846FFF742FF17E0208808280AD1CB
:101D60002389A28861882846FFF7FBFEE188284680
:101D7000FFF7EEFE09E02389A28861882846FFF775
:101D8000A6FEE1882846FFF795FE70BD2DE9F041DB
:101D900005460C4600260127608808B9022600E0A7
:101DA0000026A088012801D1022700E00127208811
:101DB000A0B92389A28861882846FFF766FFE188D9
:101DC0002846FFF759FF23893A4631462846FFF750
:101DD00012FFE1882846FFF701FF13E02389A2885C
:101DE00061882846FFF707FFE1882846FFF7F6FEDF
:101DF00023893A4631462846FFF747FFE1882846BF
:101E0000FFF73AFFBDE8F0810A884B881A438B88B8
:101E10001A43CB881A430B891A434B891A438B897F
:101E20001A43A0F8442070474FF6FF7181800021CB
:101E30000180C18041800172704700210180418092
:101E40008180C180018141818181C18170470021F0
:101E500001804180012181800021C1800181704782
:101E60000021018041808180C18001814181818187
:101E700070470000002C0140003401400004004085
:101E800000080040000C004021B1028842F001022D
:101E9000028004E002884FF6FE731A400280704709
:101EA00031B1B0F8442042F40042A0F8442005E0EB
:101EB000B0F84420C2F30E02A0F8442070471AB1D3
:101EC00083890B43838102E083898B43838170473D
:101ED0008182704741EA0203A0F8483070471AB186
:101EE00083890B43838102E083898B43838170471D
:101EF00001894FF6F8721140018170470A460021AE
:101F000001894FF68F73194011430181704730B535
:101F100004460D4629462046FFF7F0FF208940F091
:101F20000700208130BD2DE9F04104460D461646DC
:101F30001F46602D06D13B46012231462046FFF761
:101F40005AFE05E03B46012231462046FFF79DFE42
:101F500029462046FFF7D2FF208940F00700208164
:101F6000BDE8F08130B50C4600210189C9B24FF6B9
:101F7000FF7505EA0325154325432943018130BD3B
:101F80002DE9F04105460E46174698460024434683
:101F90003A4631462846FFF7E5FF2C894FF6F870A0
:101FA000044044F007044FF68F70044044F070047E
:101FB0002C81BDE8F081F0B504460D4616461F465B
:101FC0003B46324629462046FFF7CCFF208940F4A5
:101FD00080402081F0BD0185828270470A46002141
:101FE00001884FF68F731940114301807047F0B597
:101FF0000C4615461E460021002200230189028B53
:10200000038C4FF6F877394021434FF6FC473A40AE
:1020100040F201173A434FF6DD773B404FF6FF772A
:1020200007EA06172F433B43018102830384F0BD77
:102030000A460021018B4FF68F731940114301832B
:1020400070470A460021018B48F6FF7319404FF68E
:10205000FF7303EA02231943018370470A460021F4
:10206000818B4FF68F7319401143818370470A4665
:102070000021818B48F6FF7319404FF6FF7303EA86
:10208000022319438183704721B1028842F0800204
:10209000028004E002884FF67F731A400280704786
:1020A00021B1828842F00402828004E082884FF6E7
:1020B000FB731A408280704721B1828842F0080287
:1020C000828004E082884FF6F7731A40828070475E
:1020D00021B1828842F00102828004E082884FF6BA
:1020E000FE731A40828070470A460021018B4FF62A
:1020F000F77319401143018370470A460021018B91
:102100004FF2FF7319404FF6FF7303EA022319439E
:10211000018370470A460021818B4FF6F7731940FF
:102120001143818370470A460021818B4FF2FF7370
:1021300019404FF6FF7303EA022319438183704766
:102140000A460021018B4FF6FB73194011430183AE
:1021500070470A460021018B4FF6FF3319404FF6B6
:10216000FF7303EA02231943018370470A460021E3
:10217000818B4FF6FB7319401143818370470A46E8
:102180000021818B4FF6FF3319404FF6FF7303EAAE
:1021900002231943818370470A460021018B4FF6C1
:1021A0007F7319401143018370470A460021018B58
:1021B000C1F30E014FF6FF7303EA022319430183B3
:1021C00070470A460021818B4FF67F7319401143F7
:1021D000818370470A460021818BC1F30E014FF6BF
:1021E000FF7303EA02231943818370470A460021E3
:1021F000018C4FF6FD7319401143018470470A4664
:102200000021018C4FF6F773194011430184704788
:102210000A460021018C4FF6DF7319404FF6FF7319
:1022200003EA02131943018470470A460021018C16
:102230004FF67F7319404FF6FF7303EA02131943F9
:10224000018470470A460021018C4FF6FF53194064
:102250004FF6FF7303EA02231943018470470A46CD
:102260000021018C4FF2FF7319404FF6FF7303EA10
:1022700002231943018470470A460021018C4DF660
:10228000FF7319404FF6FF7303EA023319430184C9
:10229000704730B5002301248C40A3B2048C9C43CA
:1022A0000484048C02FA01F5ADB22C43048430BDE1
:1022B00030B5002304248C40A3B2048C9C430484D6
:1022C000048C02FA01F5ADB22C43048430BD70B524
:1022D0000346002000241846183001258D40ACB27A
:1022E0001D8CA5431D8409B1082909D100EB6100AB
:1022F000056825F0700505600568154305600EE06A
:102300000D1FC5F34E052844056825F4E04505601A
:1023100005684FF6FF7606EA02263543056070BD74
:1023200021B1028842F00202028004E002884FF6E6
:10233000FD731A400280704721B1028842F0040206
:10234000028004E002884FF6FB731A400280704757
:1023500021B1828842F08002828004E082884FF6B8
:102360007F731A408280704702884FF6F7731A40D5
:10237000028002880A430280704782884FF68F737A
:102380001A40828082880A438280704702894FF611
:10239000F8731A40028102890A4302817047028958
:1023A0004FF67F731A40028102890A430281704707
:1023B00081847047818570478186704701877047A7
:1023C00081877047A0F84010704702884FF6FF439E
:1023D0001A40028002880A43028070470146888EB4
:1023E00070470146088F70470146888F7047014645
:1023F000B1F8400070470146888C70470146088D4F
:10240000704702460020138A0B400BB1012000E008
:1024100000207047CA430282704730B50246002050
:1024200000230024158A05EA0103958905EA0104C1
:1024300013B10CB1012000E0002030BDCA4302827C
:102440007047000010B50446FB48844209D10121C1
:102450008803FEF775FE00214FF48040FEF770FE02
:1024600032E0F648844209D101214804FEF775FEA6
:1024700000214FF40030FEF770FE25E0F048844262
:1024800009D101218804FEF768FE00214FF4802065
:10249000FEF763FE18E0EB48844209D10121C8042D
:1024A000FEF75BFE00214FF40020FEF756FE0BE026
:1024B000E548844208D101210805FEF74EFE0021BF
:1024C0004FF48010FEF749FE10BD2DE9F04786B0AD
:1024D00005460E460024A24600BFA1460027B0894B
:1024E00000B100BF2F462C8A4CF6FF700440F088E4
:1024F00004432C82AC894EF6F3100440B088318935
:102500000843718908430443AC81AC8A4FF6FF400D
:102510000440B0890443AC8201A8FEF78AFDC64896
:10252000874202D1DDF810A001E0DDF80CA0A889F7
:1025300000F4004040B10AEBCA0000EB0A10316819
:102540004900B0FBF1F807E00AEBCA0000EB0A1003
:1025500031688900B0FBF1F86420B8FBF0F00401A9
:102560002009642101FB1089A88900F4004040B1D2
:10257000322000EBC900B0FBF1F000F0070004438B
:1025800008E0322000EB09106421B0FBF1F000F00C
:102590000F0004432C8106B0BDE8F0874FF41651BC
:1025A000016000218180C18001810C2141810021D5
:1025B0008181704710B502460020108A4FF2FF0358
:1025C00018400B884C8823438C882343CC882343B2
:1025D0001843108210BD0021018041808180C1809C
:1025E000704721B1828942F40052828104E08289DD
:1025F0004DF6FF731A4082817047F0B50346002400
:1026000000260025002040F66A17B94200D100BF1D
:102610001846C1F3421401F01F06012707FA06F518
:10262000012C01D10C3004E0022C01D1103000E06B
:1026300014301AB107682F43076002E00768AF4300
:102640000760F0BD1AB1838A0B43838202E0838A5C
:102650008B4383827047028A4FF6F0731A400282DE
:10266000028A0A430282704782894FF2FF731A403E
:10267000828182890A438281704721B1828942F036
:102680000202828104E082894FF6FD731A40828142
:102690007047028A4FF6DF731A400282028A0A43A9
:1026A0000282704721B1028A42F48042028204E031
:1026B000028A4BF6FF731A4002827047C1F3080288
:1026C0008280704701468888C0F30800704781897E
:1026D00041F0010181817047028BD2B20283028BEB
:1026E00042EA012202837047028B02F47F42028396
:1026F000028B0A430283704721B1828A42F0200292
:10270000828204E0828A4FF6DF731A408282704729
:1027100021B1828A42F01002828204E0828A4FF65E
:10272000EF731A408282704721B1828A42F0080218
:10273000828204E0828A4FF6F7731A4082827047E1
:1027400021B1828942F40042828103E08289C2F38E
:102750000E028281704721B1828A42F40062828235
:1027600004E0828A4FF2FF731A4082827047828AA5
:102770004FF6FB731A408282828A0A438282704734
:1027800021B1828A42F00202828204E0828A4FF6FC
:10279000FD731A408282704702460020B1F5007F27
:1027A00000D100BF13880B400BB1012000E00020D6
:1027B000704701F40072B2F5007F00D100BFCA4338
:1027C0000280704770B502460024002300250020D7
:1027D00040F66A16B14200D100BFC1F3421501F0C4
:1027E0001F03012606FA03F3012D02D19689334017
:1027F00006E0022D02D1168A334001E0968A33406A
:102800000C12012606FA04F41688344013B10CB1F8
:10281000012000E0002070BD10B50022002340F62A
:102820006A14A14200D100BF0A1201249440A3B24D
:10283000DC43048010BD000000380140004400402B
:1028400000480040004C00400050004001F0F0FF04
:1028500002F04CF802F0D2F802F05FFB01F05CFBF2
:1028600002F056F90B4801F0AAFB02F0F7FB02F068
:10287000FDFB02F080FC084802F0CDFC08E00748B0
:102880000078012804D102F048FC002003490870B8
:10289000F5E7000034000020A40000202E000020F6
:1028A000704700BFFEE700BFFEE700BFFEE700BFC6
:1028B000FEE7704770477047704710B50120FEF77C
:1028C00013FD00284CD00120FEF71EFDFEF7A2FCF0
:1028D0000446FE4901F09BFCFD480078012820D108
:1028E000FC480068401CFB490860084600683C281A
:1028F00005D10020086008464068401C4860F54843
:1029000040683C2806D10020F249486008468068AB
:10291000401C8860EF488068182802D10020ED49EB
:102920008860ED480078012814D1E8488068EB49B8
:10293000896888420ED1E5484068E849496888427C
:1029400008D1E2480068E5490968884202D10120BF
:10295000E3490870E348007801F09BFCFEF796FC21
:1029600010BD10B50121E048FFF757FD00287DD0CC
:102970000020DE490860DB49097899B9DC4908780C
:1029800000EBD0714910A0EB410159B90123D9A244
:102990000621002002F0D7F80123D6A2072100204B
:1029A00002F0D1F8CF490978A1B9D149087800EBF4
:1029B000D0714910A0EB410101290BD10123CDA217
:1029C00006215A2002F0BFF80123CAA207215A208B
:1029D00002F0B9F8C3490978012916D1C449087829
:1029E00000EBD0714910A0EB410171B90123C1A2E4
:1029F0000621002002F0A7F80123BEA20721002033
:102A000002F0A1F8BD4802F006FCB6490978012998
:102A100017D1B749087800EBD0714910A0EB4101FC
:102A200001290ED10123B3A206215A2002F08BF80E
:102A30000123B0A207215A2002F085F8AF4802F026
:102A4000EAFBA8490978022916D1A9490878C117D3
:102A500000EB91718910A0EB810169B90123A8A253
:102A60000021084602F06FF8012300E0E6E1A4A28D
:102A70001946002002F067F89A490978022915D111
:102A80009B490878C11700EB91718910A0EB810177
:102A900001290BD1012397A20221002002F053F853
:102AA000012394A20321002002F04DF88D490978FA
:102AB000022915D18E490878C11700EB9171891050
:102AC000A0EB810102290BD1012390A20421002057
:102AD00002F039F801238DA20521002002F033F81D
:102AE00080490978022915D181490878C11700EB7E
:102AF00091718910A0EB810103290BD1012386A2DA
:102B00000621002002F01FF8012383A207210020E4
:102B100002F019F873490978032913D17449087828
:102B200000EBD0714910A0EB410159B901237DA2FE
:102B30000021084602F007F801237AA21946002076
:102B400002F001F867490978032914D16849087827
:102B500000EBD0714910A0EB410101290BD10123F9
:102B600075A20221002001F0EEFF012372A20321D1
:102B7000002001F0E8FF5B48007804280DD15C4894
:102B80000078032190FBF1F201FB120028B9012328
:102B90006DA20721002001F0D6FF524800780428DA
:102BA0000ED153480078032190FBF1F201FB120093
:102BB000012805D1012364A20721282001F0C3FFC9
:102BC00048480078042814D149480078032190FB34
:102BD000F1F201FB120002280BD101234BA20621C6
:102BE000462001F0B0FF012348A20721462001F052
:102BF000AAFF3C48007805280DD13D480078032104
:102C000090FBF1F201FB120028B901234EA207212B
:102C1000002001F098FF3348007805280ED1344891
:102C20000078032190FBF1F201FB1200012805D18D
:102C3000012345A20721282001F085FF29480078BB
:102C4000052814D12A480078032190FBF1F201FBFA
:102C5000120002280BD101232CA20621462001F0EC
:102C600072FF012329A20721462001F06CFF1D49B4
:102C70000978062913D11E49087800EBD071491054
:102C8000A0EB410159B901231FA20621002001F048
:102C90005AFF01231CA20721002001F054FF114913
:102CA0000978062955D11249087800EBD0714910EE
:102CB000A0EB410101294CD1012317A20621462096
:102CC00001F041FF012314A207213FE0340000205E
:102CD0002900002088000020280000206C0000202F
:102CE0002E0000202A0000200010004030000020AC
:102CF0002C0000202020202020200000A400002004
:102D000020202020202020202020200020202020E3
:102D100020202020202000002020202020202020F3
:102D20000000000020202020202020202020202023
:102D30002020202000000000202020202020202013
:102D4000202020202020200020000000462001F02C
:102D5000FAFEFD48007807280ED1FC4800780321D0
:102D600090FBF1F201FB120030B90123AFF228020F
:102D70000721002001F0E7FEF348007807280FD173
:102D8000F2480078032190FBF1F201FB12000128C8
:102D900006D10123AFF250020721282001F0D3FE13
:102DA000E9480078072816D1E8480078032190FB0D
:102DB000F1F201FB120002280DD10123AFF2B4029F
:102DC0000621462001F0BFFE0123AFF2C002072119
:102DD000462001F0B8FEDC490978082913D1DB4907
:102DE000087800EBD0714910A0EB410159B90123DB
:102DF000D7A20621002001F0A6FE0123D4A20721BC
:102E0000002001F0A0FED0490978082916D1CF4949
:102E1000087800EBD0714910A0EB410101290DD1D8
:102E20000123AFF230120621462001F08CFE01236F
:102E3000AFF240120721462001F085FE0121C6486D
:102E4000FFF7FCFA10BD00B587B04020FDF7B1FBDD
:102E5000A0B1C82002F004F800BF4021BF48FDF730
:102E6000C4FC0028F9D0BEA003F020F8B7480078D1
:102E7000401CB64908704020FDF7A6FB8020FDF7F6
:102E800098FB00287ED0C82001F0EAFF00BF802117
:102E9000B248FDF7AAFC0028F9D0B2A003F006F86A
:102EA00001F036FEB0490978B9B9A7490978A1B946
:102EB000A649087800EBD0714910A0EB410161B937
:102EC000A1480078A94908700120A749087002208C
:102ED0009D49087000209D490870A3490978B9B937
:102EE00099490978A1B99949087800EBD07149103E
:102EF000A0EB410101290BD1934800789B49087050
:102F00000120994908709049087000208F49087085
:102F100095490978C1B98C490978012914D18B499F
:102F2000087800EBD0714910A0EB410161B98648E7
:102F300000788E49087001208B4908700220824970
:102F4000087000208149087087490978C1B97E4915
:102F50000978012914D17D49087800EBD071491016
:102F6000A0EB410101290BD1774800787F49087017
:102F700001207D490870002073490870734908706A
:102F8000794900E0F0E20978C9B96F490978022966
:102F900015D16E490878C11700EB91718910A0EB2B
:102FA000810161B9684800787049087001206E4954
:102FB00008700320644908700020644908706A4959
:102FC0000978D1B960490978022916D15F49087892
:102FD000C11700EB91718910A0EB810101290CD17F
:102FE000594800786149087001205F49087006203F
:102FF000554908700020554908705B490978D1B9D6
:1030000051490978022916D150490878C11700EBB7
:1030100091718910A0EB810102290CD14A480078F6
:10302000524908700120504908700820464908702C
:103030000020464908704C490978D1B942490978BD
:10304000022916D141490878C11700EB9171891006
:10305000A0EB810103290CD13B480078434908705B
:10306000012041490870092037490870002037497C
:1030700008703D49097821BB33490978032920D1DB
:103080003249087800EBD0714910A0EB4101C1B979
:103090002D48007835490870012033490870042014
:1030A00029490870002032490870284908703148C1
:1030B0008068314988602F48406848602D48006822
:1030C00008602949097829BB1F490978032921D1BA
:1030D0001E49087800EBD0714910A0EB410101298D
:1030E00018D1194800782149087001201E4908703C
:1030F00005201549087000201D4908701349087003
:103100001C4840691C4948611A480069086119480F
:10311000C068C86014480078A8B90B480078042833
:1031200039D113480078032190FBF1F201FB120022
:1031300048B90648007890FBF1F201FB1200E8B1B3
:10314000012827D120E026E02A0000202C000020C2
:10315000202020202000000000100040001001402E
:103160003100000032000000A90000202B000020E8
:10317000AA0000203400002050000020FE48806893
:10318000401CFD49886005E0FB488068401EFA4904
:10319000886000BF00BFF948007818BBF848007885
:1031A00004281FD1F7480078032190FBF1F201FBBE
:1031B0001200012816D1F448007890FBF1F201FBCF
:1031C000120010B101280CD105E0EB484068401C0A
:1031D000E949486005E0E8484068401EE649486023
:1031E00000BF00BFE548007818BBE5480078042818
:1031F0001FD1E4480078032190FBF1F201FB12009B
:10320000022816D1E048007890FBF1F201FB120091
:1032100010B101280CD105E0D7480068401CD64900
:10322000086005E0D4480068401ED349086000BF2C
:1032300000BFD248007888B9D148007804280DD161
:10324000D1480078032190FBF1F201FB1200022823
:1032500004D1CC480078401CCA490870C74800789F
:1032600010BBC748007805281ED1C6480078032146
:1032700090FBF1F201FB1200B0B9C348007890FB5B
:10328000F1F201FB120010B101280CD105E0BA489F
:103290004069401CB849486105E0B7484069401E94
:1032A000B549486100BF00BFB448007818BBB448B6
:1032B000007805281FD1B3480078032190FBF1F274
:1032C00001FB1200012816D1AF48007890FBF1F203
:1032D00001FB120010B101280CD105E0A6480069DD
:1032E000401CA549086105E0A3480069401EA249A9
:1032F000086100BF00BFA148007818BBA048007853
:1033000005281FD19F480078032190FBF1F201FBB3
:103310001200022816D19C48007890FBF1F201FBC4
:10332000120010B101280CD105E09348C068401C80
:103330009149C86005E09048C068401E8E49C86049
:1033400000BF00BF8D48007888B98D4800780528F7
:103350000DD18D480078032190FBF1F201FB1200A2
:10336000022804D187480078401C864908708349A8
:103370000978A9B982490978062911D182490878C2
:1033800000EBD0714910A0EB410149B97F480078AA
:1033900018B901207D49087002E000207B490870BF
:1033A00076490978C9B976490978062915D1764947
:1033B000087800EBD0714910A0EB410101290CD134
:1033C0006F4800787249087001206C490870072026
:1033D0006B49087000206C4908706848007810BB81
:1033E0006748007807281ED166480078032190FBC3
:1033F000F1F201FB1200B0B96348007890FBF1F2E2
:1034000001FB120010B101280CD105E06148806871
:10341000401C6049886005E05E488068401E5D4948
:10342000886000BF00BF5548007818BB544800783A
:1034300007281FD153480078032190FBF1F201FBCC
:103440001200012816D15048007890FBF1F201FBE0
:10345000120010B101280CD105E04E484068401C14
:103460004C49486005E04B484068401E4949486067
:1034700000BF00BF4148007818BB414800780728CA
:103480001FD140480078032190FBF1F201FB1200AC
:10349000022816D13C48007890FBF1F201FB1200A3
:1034A00010B101280CD105E03A480068401C3949A8
:1034B000086005E037480068401E3649086000BFD4
:1034C00000BF2E48007888B92D48007807280DD114
:1034D0002D480078032190FBF1F201FB1200022835
:1034E00004D128480078401C2649087023490978EF
:1034F000C1B923490978082914D12349087800EB78
:10350000D0714910A0EB410161B901201B4908703D
:103510002148007818B901201F49087002E00020F6
:103520001D49087015490978C1B915490978082954
:1035300014D11549087800EBD0714910A0EB410176
:1035400001290BD101200D49087000200E49087097
:1035500012498860486008600F49087000200749D8
:1035600008708020FDF730F84FF48070FDF721F8E7
:10357000E0B3C82014E0000050000020A9000020A3
:103580002A000020AA0000202C0000202800002093
:103590002B0000206C000020290000208800002063
:1035A00001F05EFC00BF4FF480713B48FDF71DF950
:1035B0000028F8D039A002F079FC01F0A9FA3848C7
:1035C0000078042803D036480078052821D13448F3
:1035D000007804280BD1334880683349886031482B
:1035E000406848602F48006808600AE02EE02D48D7
:1035F00040692D4948612B48006908612948C06825
:10360000C860294800F0C7FC4AF2A5510420FCF725
:1036100032FF23480078032803D021480078062889
:1036200002D10220214908701D480078022802D1E9
:1036300000201E4908701D480078194908700020B4
:103640001B4908704FF48070FCF7BEFF4FF4007008
:10365000FCF7AFFFE8B1C82001F002FC00BF4FF457
:1036600000710D48FDF7C1F80028F8D0684600F059
:10367000ECFC684600F08FFC4AF2A5510420FCF7F0
:10368000FAFE0CA002F012FC4FF40070FCF79CFF55
:1036900000BF07B000BD0000001001403300000073
:1036A0002A00002050000020340000202B000020C1
:1036B0002C0000203400000002460E2A70D2DFE801
:1036C00002F086071019222B353F49535D67727C43
:1036D000F748405C00F0080008B90020704701205E
:1036E000FCE7F348405C00F0040008B90020F5E76F
:1036F0000120F3E7EE48405C00F0020008B900202A
:10370000ECE70120EAE7EA48405C00F0010008B974
:103710000020E3E70120E1E7E54B481C185C00F0DE
:10372000800008B90020D9E70120D7E7E04B481C0A
:10373000185C00F0400008B90020CFE70120CDE779
:10374000DB4B481C185C00F0200008B90020C5E7DE
:103750000120C3E7D64B481C185C00F0100008B9E4
:103760000020BBE70120B9E7D14B481C185C00F0F2
:10377000080008B90020B1E70120AFE7CC4B481C96
:10378000185C00F0040008B90020A7E70120A5E7B5
:10379000C74B481C185C00F0020010B900209DE7E0
:1037A00015E001209AE7C24B481C185C00F00100AC
:1037B00008B9002092E7012090E7BD4B881C185CF7
:1037C00000F0800008B9002088E7012086E700208B
:1037D00084E72DE9FF4F83B00C461F466421039810
:1037E00090FBF1F0C0B20190039890FBF1F201FB65
:1037F0001200C5B20198132806D00198142803D0EE
:10380000002007B0BDE8F08F0198142806D105F11B
:10381000630000EB40001FFA80F904E0681E00EB33
:1038200040001FFA80F9A24909F10200085C00F08B
:10383000600A4FEA6A1A09F10200085C00F01F0BE7
:10384000BAF1010F04D1ABF1010000F0FF0803E071
:103850000BF11E0000F0FF080A2C07DA601E9549E4
:10386000095C05980844401E86B208E0A4F10A00ED
:10387000914931F8101005980844401E86B2022C78
:1038800008DDE91705EB91718910A5EB810109B9F4
:10389000701C86B246453EDBA6EB080086B20124CA
:1038A000012002900020009049460298FFF704FF93
:1038B00010B94FF01D0A01E04FF01E0A7C4911F8C3
:1038C0000900C11700EB11714FEA211B1DE0A6EBA7
:1038D0000A0086B20298401CC0B202905C4508D132
:1038E0000098C043C0B20090009820B9601CC4B2D8
:1038F00001E0601CC4B249460298FFF7DDFE10B932
:103900004FF01D0A01E04FF01E0A5645DFDA701C29
:10391000C0B205904FE0A8EB060000F0FF081DB90B
:1039200063251320019001E0681EC5B2A9F10300D0
:103930001FFA80F90C245E4911F80900C11700EB49
:1039400011714FEA211BBBF1000F02D10C20029034
:1039500001E00D2002900020009049460298FFF7F8
:10396000ABFE10B94FF01D0A01E04FF01E0A1BE03C
:10397000A8EB0A0000F0FF080298401EC0B20290B7
:10398000009808B9601EC4B25C4503D10098C043DA
:10399000C0B2009049460298FFF78EFE10B94FF072
:1039A0001D0A01E04FF01E0AD045E1DCAAEB080039
:1039B000401CC0B20590019807F8010B07F8015BA5
:1039C00007F8014B0598387001201AE710B50A4630
:1039D000B0F5F86F09DBA0F5F86398B23C2390FBD3
:1039E000F3F403FB1403D9B20AE0C0F5F86398B20C
:1039F0003C2390FBF3F403FB1403C3F13C03D9B263
:103A0000117010BD10B5002305E011F8014B00F84E
:103A1000014B5C1CA3B29342F7DB10BD2DE9FC41C6
:103A200005460E4617461C460F2224A12046FFF7E6
:103A3000E9FF01AB3A4631462846FFF7CAFE08B90E
:103A4000BDE8FC819DF805209DF8041001EBC10341
:103A500003EB011102EB81006946FFF7B7FF9DF808
:103A600000000A2190FBF1F201FB1200174951F806
:103A70002080022241462046FFF7C4FF9DF8000047
:103A80000C2190FBF1F201FB1200114951F820804A
:103A900002224146A01CFFF7B5FF9DF80600012851
:103AA0001AD102220BA1A01DFFF7ACFF1EE00000FF
:103AB000726000087863000882630008BCD7D7D31F
:103AC000C4EAD5FDD4C2B3F5D2BB00000C0100207E
:103AD00034010020D5FD00009DF80600401E8C4AF0
:103AE00052F820100222A01DFFF78CFF9DF807005E
:103AF0000A280EDD9DF807000A2190FBF1F08549A8
:103B000051F820800222414604F10A00FFF77AFFB3
:103B100005E0022280A104F10A00FFF773FF9DF87F
:103B20000700401E0A2190FBF1F201FB12007849C8
:103B300051F820800222414604F10C00FFF762FF99
:103B400000BF7DE72DE9F04104460D46B4F5FA6F5C
:103B500003DB40F60200844202DD0020BDE8F08174
:103B60000DB10C2D01DD0020F8E7681E4006010EA6
:103B70000F2A01DB481CC1B208464FEAE17C01EB89
:103B80005C7C4FEAEC08A4F5FA6C0CEB4C0CC444DA
:103B9000DFF8888118F80C604FEAE17C01EB5C7C6F
:103BA0004FEAEC0CA1EBCC0C06FA0CFC0CF08007F5
:103BB0005B48405C187097B1012905D00B2903D0F0
:103BC000122901D0152907D140F2FC70844203DA92
:103BD0001878401C187002E01878401E18700120F8
:103BE000BCE72DE9F8430546884614461E466B4659
:103BF000224641462846FFF7A5FF10B90020BDE840
:103C0000F883A8F101004006070E0F2C01DB781C99
:103C1000C7B29DF80000844208D1424850F82710EE
:103C200005223046FFF7EEFE0120E8E70F223EA115
:103C30003046FFF7E7FE9DF8000084420BDA394872
:103C400050F827100422B01CFFF7DCFE9DF800009E
:103C5000001BC4B24DE0781C172801DD0020CEE720
:103C6000304A781C52F820100422B01CFFF7CAFE1C
:103C70000F2C0ADA6B460F2241462846FFF762FFF7
:103C80009DF80000001BC4B233E0A8F101002A49EE
:103C900011F80090B8F1020F17D1E91705EB9171F7
:103CA0008910A5EB810181B9642195FBF1F201FB3B
:103CB000125131B94FF4C87195FBF1F201FB125169
:103CC00019B909F1010000F0FF0908F10100C0B2C3
:103CD00080460D2801D14FF001086B460122414674
:103CE0002846FFF72FFFA9EB04009DF800100844B9
:103CF000C4B20A2094FBF0F03030B0720A2094FB7A
:103D0000F0F100FB11403030F072012077E7000045
:103D10006401002094010020B3F50000C762000890
:103D200060630008AC000020C0EBC1A2B6ACBBB918
:103D3000D3D03F3FCCEC000094630008F0B58DB0C9
:103D400004463022704901A801F0A2FD6069451EB9
:103D5000642195FBF1F12846EA1705EB9272C1EB5D
:103D6000A2014FF4C87295FBF2F28F186069C11777
:103D700000EB91718910A0EB810191B96422616916
:103D800091FBF2F302FB131131B99200616991FBCF
:103D9000F2F302FB131121B92169022901DD012689
:103DA00000E0002640F26D1005FB00712069401E06
:103DB00001AA52F820000844E1680844064407209C
:103DC00096FBF0F100FB1160A0610DB0F0BD10B5E5
:103DD00001460869801E0861002805DC08690C306E
:103DE00008614869401E48616423486990FBF3F00C
:103DF0004A69D31702EB9373C0EBA3004FF4C87466
:103E000092FBF4F3034440F26F14086960430C24FE
:103E100090FBF4F01844CB68034440F26D1402FBAD
:103E200004303A4BC01A00EB40008B6803EBC00033
:103E3000C0EB00104B6803EB8000C0EB00100B6878
:103E400003EB800010BD2DE9F04107460C463048D9
:103E5000B7FBF0F6B7FBF0F100FB11784FF46160AF
:103E600098FBF0F0A0604FF4616098FBF0F100FB6C
:103E700011803C2190FBF1F060604FF4616098FB91
:103E8000F0F100FB11803C2190FBF1F201FB1200EC
:103E9000206040F2B27509E005F0030010B94FF45C
:103EA000B77001E040F26D10361A6D1C05F003008A
:103EB00010B94FF4B77001E040F26D10B042EBDD85
:103EC00065616069C11700EB91718910A0EB8101F8
:103ED00011B91D200F494860012505E0681E0D49F4
:103EE00051F82000361A6D1C681E0A4951F820004E
:103EF000B042F3DD1C2048602561701CE060204664
:103F0000FFF71CFFBDE8F081A06300088BFA0A00F0
:103F100080510100A401002008B54FF4C060FCF7F7
:103F200013FA03208DF8000001208DF801008DF8B0
:103F300002008DF803006846FCF70BFA08BD10B5C7
:103F400001214FF0C050FDF7EEF80120FCF715FFFE
:103F5000FCF768FA0120FDF746F800BF4120FCF7A6
:103F6000AAFF0028FAD04FF48070FDF758F801201E
:103F7000FDF75BF8FDF793F9FDF788F90121084695
:103F8000FDF728F9FDF782F947F6FF70FDF758F9BC
:103F9000FDF77CF910BD70B50446FFF7D0FFFDF7C3
:103FA00075F92046FFF7CAFE2046FFF710FFA0F57F
:103FB000E1452846FDF737F9FDF768F970BD10B502
:103FC00004460420FCF763FA4AF2A55188420ED059
:103FD000EAA001F06BFFF1A001F068FF2046FFF7B7
:103FE000DAFF4AF2A5510420FCF745FA2AE0012144
:103FF0004FF0C050FDF797F80120FCF7BEFE0120FE
:10400000FDF70AF800BF6120FCF755FF0028FAD041
:104010007B20FCF750FF18B1E6A001F047FF06E057
:104020007A20FCF748FF10B1EBA001F03FFFF3A0AE
:1040300001F03CFFFDF733F901210846FDF7CAF80E
:10404000FDF724F9FDF7A0F810BD38B504460020AF
:1040500000900025F1A001F029FF00BFFD4801F00C
:1040600025FF6946FCA001F025FC40F2B2710098E2
:10407000884204D340F2F6710098884204D9F7A030
:10408000009901F013FF06E0FDA0009901F00EFF7A
:104090000098606100E0E1E700BF00BFFE4801F06A
:1040A00005FF6946ECA001F005FC009810B10098EE
:1040B0000C2804D9E9A0009901F0F8FE06E0F7A069
:1040C000009901F0F3FE0098206100E0E6E700BFF0
:1040D00020690D2832D2DFE800F0310714080F09FB
:1040E000100A0B110C120D0000BF00BF00BF00BF73
:1040F00000BF00BF1F2521E000BF00BF00BF1E257D
:104100001CE06069C11700EB91718910A0EB81017F
:1041100091B96422616991FBF2F302FB131131B989
:104120009200616991FBF2F302FB131121B921693D
:10413000022901DD1D2500E01C2500BF00BF00BFD6
:104140002946DC4801F0B2FE6946C3A001F0B2FB8B
:10415000009810B10098A84204D9C0A0009901F0BD
:10416000A5FE06E0D4A0009901F0A0FE0098E06052
:1041700000E0E5E700BF00BFD54801F097FE6946C3
:10418000B5A001F097FB0098172804D9B3A00099B7
:1041900001F08CFE06E0CFA0009901F087FE0098A8
:1041A000A06000E0E8E700BF00BFD04801F07EFE5D
:1041B0006946A9A001F07EFB00983B2804D9A7A07E
:1041C000009901F073FE06E0C9A0009901F06EFEAF
:1041D0000098606000E0E8E700BF00BFCA4801F057
:1041E00065FE69469CA001F065FB00983B2804D958
:1041F0009AA0009901F05AFE06E0C4A0009901F0CF
:1042000055FE0098206000E0E8E700BF38BD70B5BB
:10421000B4B005460C4605F5E14621463046FFF7A9
:1042200012FEA06818B9606808B9206810B1BD48CE
:10423000006848B1227B217CA38A98B202ABFFF7C9
:10424000C8FA0020B7490860E0680090B6A1BB48F2
:10425000D4E9043201F03AFE0020B849087320681E
:104260000090B7A1BB48D4E9013201F02FFE34B071
:1042700070BD04460CE0B8480068012808D1FCF77E
:10428000C9FF05462146FFF7C2FF0020B24908607A
:10429000F1E738B50446002C3FD10123A74A00219D
:1042A0001E2000F050FCAD4840680A2190FBF1F060
:1042B000C5B22A460221002000F0DFFCA748406872
:1042C0000A2190FBF1F201FB1200C5B22A4602213D
:1042D0001A2000F0D2FCA14800680A2190FBF1F0FE
:1042E000C5B22A460221342000F0C7FC9B48006872
:1042F0000A2190FBF1F201FB1200C5B22A4602210D
:104300004E2000F0BAFC96A20621002000F02FFDFE
:1043100095A206215A2000F02AFD012C2CD18F4BAA
:104320001A7B197C9B8A98B2914BFFF777FB904AD6
:104330000221002000F01BFD8EA20021084600F0A3
:1043400016FD8D48437802788CA1904801F0BEFD9F
:1043500001238E4A0021102000F0F5FB8CA20021E1
:104360003C2000F004FD8448C378827883A187480C
:1043700001F0ACFD01230DE11CE100000D0A0D0A66
:1043800020525443206E6F742079657420636F6EE1
:10439000666967757265642E2E2E2E000D0A0D0A51
:1043A0002052544320636F6E666967757265642E90
:1043B0002E2E2E000D0A0D0A20506F776572204FA9
:1043C0006E205265736574206F63637572726564E5
:1043D0002E2E2E2E000000000D0A0D0A20457874A6
:1043E00065726E616C205265736574206F636375CE
:1043F000727265642E2E2E2E000000000D0A204ED3
:104400006F206E65656420746F20636F6E666967E8
:10441000757265205254432E2E2E2E000D0A3D3DFE
:104420003D3D3D3D3D3D3D3D3D3D3D3D3D3D3D3DBC
:104430003D3D3D3D3D3D3DC9E8D6C3CAB1BCE43D2F
:104440003D3D3D3D3D3D3D3D3D3D3D3D3D3D3D3D9C
:104450003D00000060A90008256400000D0A20C48A
:10446000FACAE4C8EBB5C4CAFDD7D6CAC73A2564B0
:10447000A3ACB2BBB7FBBACFD2AAC7F3000000000F
:104480000A0D2020C4EAB7DDB1BBC9E8D6C3CEAA65
:104490003A2025640A0D0000D8A800080A0D202043
:1044A000D4C2B7DDB1BBC9E8D6C3CEAA3A202564D1
:1044B0000A0D000030AA00080A0D2020C8D5C6DA6F
:1044C000B1BBC9E8D6C3CEAA3A2025640A0D0000C4
:1044D0001CA900080A0D2020CAB1D6D3B1BBC9E877
:1044E000D6C3CEAA3A2025640A0D0000ECA9000824
:1044F0000A0D2020B7D6D6D3B1BBC9E8D6C3CEAA01
:104500003A2025640A0D0000A8A900080A0D202001
:10451000C3EBD6D3B1BBC9E8D6C3CEAA3A20256433
:104520000A0D00007002002025302E34642D253045
:104530002E32642D25302E3264000000240A002023
:1045400025302E32643A25302E32643A25302E3210
:1045500064000000330A0020D40100203400002051
:10456000B2CBB5A500000000C5A9C0FA000000004C
:10457000420A0020CAAA0000A40000203A25302EDA
:1045800032642E25302E326400000000B00A002074
:10459000CEC200007C4A00214C2000F0D4FAAFF2D9
:1045A00040020621002000F0E2FB78A206215A20FA
:1045B00000F0DDFB022C13D176A20021084600F0AA
:1045C000D6FB76A20221002000F0D1FB75A20421C7
:1045D000002000F0CCFB75A20621002000F0C7FBF4
:1045E000032C09D173A20021084600F0C0FB74A27D
:1045F0000221002000F0BBFB042C21D1734800688D
:10460000009072484368AFF2C8018268704801F0B8
:104610005DFC01236E4A0321232000F094FA01235C
:104620006CA20721002000F08EFA01236AA2072164
:10463000282000F088FA69A20621462000F097FBA6
:10464000052C21D16148C068009060480369AFF231
:1046500028114269634801F039FC0123614A0021B5
:104660001E2000F070FA01235AA20721002000F05A
:104670006AFA012358A20721282000F064FA57A201
:104680000621462000F073FB062C24D15648006812
:10469000009055484368AFF258118268534801F0C2
:1046A00015FC0123514A0321232000F04CFA50A2AB
:1046B0000621462000F05BFB4F480078012805D119
:1046C0004EA20621002000F052FB04E04CA206217D
:1046D000002000F04CFB072C21D1434800680090DB
:1046E00041484368AFF2A8118268404801F0EEFBF0
:1046F00001233E4A0321232000F025FA012335A29D
:104700000721002000F01FFA012333A207212820EF
:1047100000F019FA31A20621462000F028FB082CEF
:1047200023D138480068009036484368AFF2F01152
:104730008268354801F0CAFB0123334A0321232054
:1047400000F001FA3148007828B92CA20621002097
:1047500000F00DFB04E02EA20621002000F007FB74
:104760002CA20621462000F002FB092C0AD10123CD
:104770002AA20321232000F0E6F92BA20521232001
:1047800000F0F5FA38BD0000B00A0020B9ABC0FA5D
:1047900000000000D0A3D7BC00000000C4D6D6D3D0
:1047A00000000000BCC6CAB1C6F70000B9D8D3DA11
:1047B000CED20000CAB1BCE4D0A3D7BC0000000038
:1047C000C8D5C6DAD0A3D7BC000000005000002036
:1047D000740A00202B0000002D000000CFC2D2BBC5
:1047E000B8F60000830A00206C000020920A002026
:1047F000C9E8D6C30000000028000020BFAA0000BE
:10480000B9D8000088000020A10A0020290000205B
:10481000CDA30000B8B4CEBB000000003230313967
:104820003231343134350000D1EEBDA80000000033
:1048300000B585B001210420FCF768FC0121880344
:10484000FCF764FC4FF40070ADF8100018208DF8F0
:10485000130003208DF8120004A92248FBF732FF51
:104860004FF48060ADF8100004208DF8130004A907
:104870001C48FBF727FF4FF4E13000900020ADF813
:104880000400ADF80600ADF80800ADF80C000C20EF
:10489000ADF80A0069461448FDF717FE01211248D9
:1048A000FDF79FFE05B000BD70B504460D46E1B2B0
:1048B0000D48FDF703FF00BF80210B48FDF76CFF9B
:1048C0000028F9D0204670BD10B5044600BF202155
:1048D0000548FDF761FF0028F9D00348FDF7F2FE17
:1048E00010BD0000000801400038014000B585B04F
:1048F00001214805FCF717FC01210820FCF706FC04
:104900004020ADF8000003208DF802001C208DF837
:1049100003006946FE48FBF7D5FE8020ADF8000095
:104920006946FB48FBF7CEFE0020ADF808004BF6C9
:10493000FF70ADF80A007820ADF80C004FF48060ED
:10494000ADF80E000001ADF81000F248019001A989
:10495000F148FCF71EF80121EF48FCF798F805B084
:1049600000BD70B504460D4600BF4FF40031EA4863
:10497000FCF7B4F90028F8D10121E748FCF7ABF8BF
:1049800000BFE649E448FCF787F90028F9D0002287
:104990007821E148FCF7F5F800BFE149DE48FCF773
:1049A0007BF90028F9D02146DB48FCF7E4F800BF8A
:1049B000DB49891CD848FCF76FF90028F8D0294654
:1049C000D548FCF7D8F800BFD549891CD248FCF778
:1049D00063F90028F8D00121CF48FCF788F870BDB2
:1049E00010B5044621460020FFF7BBFF10BD10B5EF
:1049F000044621464020FFF7B4FF10BD10B501204A
:104A000000F049FAAE20FFF7EBFF2020FFF7E8FFA8
:104A10001020FFF7E5FFB020FFF7E2FFC820FFF707
:104A2000DFFF0020FFF7DCFF1020FFF7D9FF402059
:104A3000FFF7D6FF8120FFF7D3FFFF20FFF7D0FF5E
:104A4000A120FFF7CDFFA620FFF7CAFFA820FFF7A0
:104A5000C7FF3F20FFF7C4FFA420FFF7C1FFD3200B
:104A6000FFF7BEFF0020FFF7BBFFD520FFF7B8FF21
:104A7000F020FFF7B5FFD920FFF7B2FF2220FFF7A4
:104A8000AFFFDA20FFF7ACFF1220FFF7A9FFDB2012
:104A9000FFF7A6FF2020FFF7A3FF8D20FFF7A0FF61
:104AA0001420FFF79DFFAF20FFF79AFF10BD70B5F0
:104AB00004460D4605F1B001C8B2FFF791FF102181
:104AC00041EA1410FFF78CFF04F00F0141F00100E0
:104AD000FFF786FF70BD70B50646002415E004F1AF
:104AE000B001C8B2FFF77CFF0020FFF779FF10206C
:104AF000FFF776FF002504E03046FFF778FF681CDB
:104B0000C5B2802DF8DB601CC4B2082CE7DB70BD99
:104B100010B50020FFF7DFFF10BD10B58D20FFF7A7
:104B20005FFF1420FFF75CFFAF20FFF759FF10BDB8
:104B300010B58D20FFF754FF1020FFF751FFAE2076
:104B4000FFF74EFF10BD2DE9F04706468946174690
:104B50009A464FF0000800240025BAF1010F03D057
:104B6000BAF1020F5ED125E020E0785D203800F038
:104B7000FF087E2E04DD002609F1010000F0FF0988
:104B800049463046FFF793FF002409E008EB48014F
:104B9000644A02EB4101085DFFF729FF601CC4B2C3
:104BA000062CF3DBB01DC6B2681CC5B2785D0028C8
:104BB000DBD137E032E0785D203800F0FF08782E56
:104BC00004DD002609F1010000F0FF0949463046E6
:104BD000FFF76DFF002407E004EB0811524A505C18
:104BE000FFF705FF601CC4B2082CF5DB09F10100DA
:104BF000C1B23046FFF75BFF002408E004EB081168
:104C00000831494A505CFFF7F2FE601CC4B2082C20
:104C1000F4DB06F10800C6B2681CC5B2785D002856
:104C2000C9D100BF00BFBDE8F0872DE9F041804643
:104C30000E46174600247D0131464046FFF737FFF8
:104C400000BF06E03949485DFFF7D1FE6D1C601CCE
:104C5000C4B2102CF6DB701CC1B24046FFF727FF30
:104C6000002406E03149485DFFF7C1FE6D1C601C61
:104C7000C4B2102CF6DBBDE8F0812DE9F04180468E
:104C80000E46174600BF07EBC700C5003146404639
:104C9000FFF70DFF002406E02549485DFFF7A7FE5A
:104CA0006D1C601CC4B2182CF6DB701CC1B24046EF
:104CB000FFF7FDFE002406E01D49485DFFF797FE63
:104CC0006D1C601CC4B2182CF6DBB01CC1B240468F
:104CD000FFF7EDFE002406E01549485DFFF787FE6B
:104CE0006D1C601CC4B2182CF6DBBDE8F081F0B579
:104CF00089B005460E4617460024394601A800F043
:104D0000D9FAF1B2E8B2FFF7D2FE00BF19E0000015
:104D1000000C0140801A060000540040010003000E
:104D200082000700D0630008F865000874020020C4
:104D3000F402002001A911F81400FFF758FE601CCE
:104D4000C4B2102CF6DB721CD1B2E8B2FFF7AFFE92
:104D5000002408E0012101EB440101AA505CFFF7A7
:104D600046FE601CC4B2102CF4DB09B0F0BD2DE986
:104D7000F04106460F4614460DE02588280200EB58
:104D8000252085B22A4639463046FFF7B0FF06F1A6
:104D9000100086B2A41C20780028EED1BDE8F08176
:104DA0002DE9F05F06460F4690461C46DDF828A028
:104DB0004FF0000BE11704EB5171C910A4EBC101D6
:104DC00031B92046E11704EB5171C1F3C70506E084
:104DD0002046E11704EB5171C910491CCDB23D4684
:104DE00014E029463046FFF762FEB1460AE0594614
:104DF0000BF1010B1AF80100FFF7F9FD09F10100B1
:104E000000F0FF09C145F2DB681CC5B2A542E8DB32
:104E1000BDE8F09F30B50146B1F1807F01D301209C
:104E200030BD21F07F40401E4FF0E022506150170E
:104E30000F22002807DA13071D0E2A4B00F00F047B
:104E4000241F1D5503E013071C0E274B1C5400BFE5
:104E500000204FF0E0229061072010610020DFE782
:104E600070B504462148FFF7D5FF002508E000BFD4
:104E70004FF0E020006900F480300028F8D06D1C6D
:104E8000A542F4D34FF0E020006920F001004FF07C
:104E9000E021086170BD70B50446002504E04FF4C0
:104EA0007A70FFF7DDFF641EA542F8D370BD70B5C0
:104EB00004464820FFF7AEFF002508E000BF4FF092
:104EC000E020006900F480300028F8D06D1CA54275
:104ED000F4D34FF0E020006920F001004FF0E02112
:104EE000086170BD18ED00E000E400E04019010029
:104EF00008B54FF4C060FBF727FA17208DF80000C3
:104F000001208DF8010000208DF8020001208DF8AD
:104F100003006846FBF71DFA08BD0EB5FFF7E8FF72
:104F200001211820FCF7F2F801210846FCF7EEF801
:104F30004020ADF8080048208DF80B0002A92C484D
:104F4000FBF7C0FB06210220FBF7D2FC40200090BB
:104F500000208DF804000C208DF8050001208DF84C
:104F600006006846FBF7CEFA8020ADF8080002A9DB
:104F70001F48FBF7A7FB07210220FBF7B9FC8020A5
:104F800000906846FBF7BEFA4FF48070ADF8080059
:104F900002A91748FBF796FB08210220FBF7A8FCA3
:104FA0004FF4807000906846FBF7ACFA4FF4007045
:104FB000ADF8080002A90E48FBF784FB0921022086
:104FC000FBF796FC4FF4007000906846FBF79AFAE6
:104FD00010208DF80B008001ADF8080002A90448EC
:104FE000FBF770FB4FF480610148FBF71AFC0EBD24
:104FF0000010014008B54FF4C060FBF7A5F936205A
:105000008DF8000001208DF8010003208DF80200CA
:1050100001208DF803006846FBF79BF908BD0EB52B
:1050200001211020FCF77FF842F20F70ADF8040068
:1050300040F64B60ADF8000069460B48FCF7C8FB32
:1050400001210948FDF7E6F9012211460648FCF75F
:1050500036FF01210448FCF717FF0EBD10B5FFF71E
:10506000C9FFFFF7DCFF10BD0010004008B50121AB
:105070000420FCF74BF810208DF803000001ADF878
:10508000000003208DF8020069462E48FBF71AFB4A
:105090004FF480712B48FBF7C4FB08BD70B5044684
:1050A000B4F57A7F13D02848B0FBF4F54FF4807143
:1050B0002448FBF7B4FB2846FFF7F9FE4FF4807154
:1050C0002048FBF7AEFB2846FFF7F1FE03E04FF464
:1050D0007A70FFF7C5FE70BD10B504464FF48071BD
:1050E0001848FBF79CFB2046FFF7BAFE4FF480718F
:1050F0001448FBF796FB2046FFF7B2FE10BD10B533
:10510000002400BF06E0114931F8241088B2FFF7EF
:10511000E3FF641C0C2CF6DB10BD70B500240025E9
:1051200000BF0BE00B2406E0084931F8241088B2D8
:10513000FFF7D2FF641E002CF6DA6D1C062DF1DBA2
:1051400070BD00000008014020A10700C409002034
:1051500008B501214020FBF7D9FF4020ADF8000041
:1051600010208DF8030003208DF802006946504896
:10517000FBF7A8FA08BD10B5FFF7EAFF40214C483D
:10518000FBF74DFB10BD08B54020ADF800004820EE
:105190008DF8030069464648FBF794FA08BD08B548
:1051A0004020ADF8000010208DF8030003208DF89A
:1051B000020069463E48FBF785FA08BD70B5002538
:1051C000002424E000BF40213948FBF70EFB0028F3
:1051D000F9D02820FFF76BFE40213548FBF705FB8F
:1051E00001280DD100BF40213148FBF7FEFA01280C
:1051F000F9D0C4F1070101208840C0B2054304E0A2
:10520000C4F10701012088408543601CC4B2082C0A
:10521000D8DB284670BD10B50446FFF7C0FF40211B
:105220002348FBF7FEFA1220FFF71AFE4021204820
:10523000FBF7F5FA1E20FFF73AFEFFF7A4FF402127
:105240001B48FBF7D2FA70BB00BF40211848FBF7A0
:10525000CCFA0028F9D000BF40211548FBF7C5FA69
:105260000128F9D0FFF7AAFF2070FFF7A7FF6070B1
:10527000FFF7A4FFA070FFF7A1FFE070FFF79EFF0C
:105280002071FFF78CFF40210948FBF7C8FA20780E
:1052900061780844A1780844E1780844217988427B
:1052A00002D1012010BD01E00020FBE70020F9E75A
:1052B000001801402DE9F04180460C461248007864
:1052C00020B900F027F801200F4908700F48104955
:1052D00008602512E6B2A5F1A101C1EB011202EBB3
:1052E000411106EB4101A1390802C11700EB5171D0
:1052F000CF1007480068C1192022404600F0B8F9D5
:105300000020BDE8F08100000C0A002000301800E9
:10531000100A002000B587B001210803FBF7F6FE54
:105320000121D420FBF7F2FE0120ADF80400032098
:105330008DF8060010208DF8070001A9FE48FBF744
:10534000C1F92020ADF8040018208DF8070001A94C
:10535000FA48FBF7B7F94020ADF8040001A9F74877
:10536000FBF7B0F98020ADF8040001A9F348FBF782
:10537000A9F90121F048FBF752FA0020ADF8080026
:105380004FF48270ADF80A000020ADF80C00022046
:10539000ADF80E000120ADF810004002ADF812008B
:1053A0000820ADF814000020ADF816000720ADF875
:1053B000180002A9E248FBF7D7FF0121E048FCF7FB
:1053C00078F807B000BD10B504462146DDA000F016
:1053D0006DFD002010BD10B504464FF48050E54926
:1053E00008600AE0E3490868411EE24A116020B9FA
:1053F0000020FFF7E8FFC0B210BD0221D048FCF743
:10540000DCF80028EED02146CD48FCF783F84FF4B5
:105410008050D84908600AE0D6490868411ED54A3C
:10542000116020B90120FFF7CEFFC0B2E4E70121EF
:10543000C348FCF7C2F80028EED0C148FCF76CF86E
:10544000C0B2D9E710B500240121BB48FBF7E9F948
:105450000520FFF7C0FF00BFFF20FFF7BCFF044699
:1054600004F001000028F7D10121B348FBF7D7F978
:1054700010BD10B50121B048FBF7D3F90620FFF7A6
:10548000AAFF0121AC48FBF7CAF910BD10B50446CC
:10549000FFF7EFFFFFF7D6FF0121A748FBF7C1F9A0
:1054A0002020FFF798FFC4F30740FFF794FFC4F3F1
:1054B0000720FFF790FFE0B2FFF78DFF01219E4824
:1054C000FBF7ADF9FFF7BEFF10BD10B5FFF7D1FF39
:1054D00001219948FBF7A5F9C720FFF77CFF0121BF
:1054E0009548FBF79CF9FFF7ADFF10BD70B5054679
:1054F0000C461646FFF7BDFF01218F48FBF791F9D7
:105500000220FFF768FFC4F30740FFF764FFC4F30E
:105510000720FFF760FFE0B2FFF75DFFB6F5807F81
:1055200004DD4FF4807694A000F0C0FC03E02878FE
:10553000FFF751FF6D1C301EA6F101018EB2F6D1AE
:1055400001217D48FBF76BF9FFF77CFF70BD2DE96A
:10555000F05F07460E4614464FF00008C146C246AB
:105560000025AB4606F0FF0ACAF10000C5B220468E
:10557000E11704EB1161C1F30728E11704EB116196
:105580000912A4EB012101F0FF09BAF1000F20D1AB
:10559000B8F1000F05D1224631463846FFF7A6FF85
:1055A00064E009E04FF4807231463846FFF79EFF11
:1055B00006F5807607F58077B8F10000A8F10101C3
:1055C00001F0FF08EED14A4631463846FFF78EFF1C
:1055D0004CE0B8F1000F18D1A94510DDA9EB05008A
:1055E00000F0FF0B2A4631463846FFF77FFF2E4476
:1055F0002F445A4631463846FFF778FF36E02246B8
:1056000031463846FFF772FF30E0601B84B2204617
:10561000E11704EB1161C1F30728E11704EB1161F5
:105620000912A4EB012101F0FF092A463146384650
:10563000FFF75CFF2E442F4409E04FF4807231469F
:105640003846FFF753FF06F5807607F58077B8F107
:105650000000A8F1010101F0FF08EED1B9F1000F3F
:1056600004D04A4631463846FFF740FFBDE8F09F78
:1056700070B505460C46164601212F48FBF7D1F8B8
:105680000320FFF7A8FEC4F30740FFF7A4FEC4F30E
:105690000720FFF7A0FEE0B2FFF79DFE04E0FF2029
:1056A000FFF799FE28706D1C301EA6F101018EB225
:1056B000F5D101212048FBF7B2F870BD2DE9F0418A
:1056C000002400250026002701211B48FBF7A9F82C
:1056D0009F20FFF780FEFF20FFF77DFE0546FF209D
:1056E000FFF779FE0646FF20FFF775FE074601210A
:1056F0001148FBF794F8280440EA062040EA070422
:105700002046BDE8F08110B5002401210A48FBF7CE
:1057100088F8AB20FFF75FFEFF20FFF75CFEFF205D
:10572000FFF759FEFF20FFF756FEFF20FFF753FE5D
:1057300004460121004839E0001001400008014002
:10574000003001403C3C2D464C4153482D455252BF
:105750004F522D3E3E2053504920B5C8B4FDB3AC46
:10576000CAB1216572726F72436F6465203D202556
:10577000640A0000140A00203C3C2D464C4153486A
:105780002D4552524F522D3E3E205350495F464CBC
:105790004153485F50616765577269746520746F43
:1057A0006F206C61726765210A000000FBF737F813
:1057B000204610BD10B5044601213248FBF731F8F0
:1057C0000320FFF708FEC4F30740FFF704FEC4F30D
:1057D0000720FFF700FEE0B2FFF7FDFD10BD10B59A
:1057E000FF20FFF7F8FD10BD10B504464FF48050C0
:1057F0002549086009E024490868411E224A1160D1
:1058000018B90220FFF7DFFD10BD02211F48FBF78A
:10581000D4FE0028EFD021461C48FBF77BFE4FF456
:1058200080501949086009E017490868411E164A66
:10583000116018B90320FFF7C6FDE5E70121134801
:10584000FBF7BBFE0028EFD01048FBF765FEDBE757
:1058500010B501210B48FAF7E4FFB920FFF7BBFDB3
:1058600001210848FAF7DBFF10BD10B501210548FA
:10587000FAF7D7FFAB20FFF7AEFD01210148FAF799
:10588000CEFF10BD00100140140A0020003001407E
:1058900040EA01039B0703D009E008C9121F08C0B2
:1058A000042AFAD203E011F8013B00F8013B521E32
:1058B000F9D270470FB400B589B00BA800906A46C2
:1058C00003480A9900F0D0F809B05DF814FB000015
:1058D000180A00202DE9FF5F1D464FF0FF3BD5E978
:1058E000014691465F464FF00008A9697F1C019868
:1058F0008847296A824688470028F6D1BAF1FF3FD7
:105900000CD024F4C064002E19DD600614D5BAF161
:105910002B0F09D0BAF12D0F0ED103E0584604B079
:10592000BDE8F09F44F48064A9697F1C0198884712
:10593000761E8246002E02DDBAF1300F03D0B9F197
:10594000000F26D032E0A969761E44F400747F1C53
:10595000019888478246002E05DDBAF1780F06D0FF
:10596000BAF1580F03D0B9F1000F10D01EE0B9F111
:10597000000F02D0B9F1100F18D1A969761E24F4D6
:1059800000747F1C019888478246102002E008209E
:1059900000E00A20814609E008FB0908A969761E93
:1059A00044F400747F1C019888478246002E05DD70
:1059B0004946504600F04AF80028EDDAE9690198B6
:1059C0008847A00502D46FF00100A8E7E00725D1C1
:1059D000600613D5600502D5C8F1000000E040461E
:1059E00029680A1D2A600968220501D5087015E09A
:1059F000220701D5088011E008600FE02868011D2A
:105A000029600068210502D580F8008006E02107A2
:105A100002D5A0F8008001E0C0F8008038467EE79B
:105A200030B50B46014600202022012409E021FA6E
:105A300002F59D4205D303FA02F5491B04FA02F56B
:105A40002844151EA2F10102F1DC30BD3A2800D233
:105A5000303820F02002412A01D3A2F137008842D9
:105A600001D34FF0FF307047024B9361024BD3617B
:105A700000F032B8C9480008BD5A0008064C074D6E
:105A800006E0E06840F0010394E80700984710340E
:105A9000AC42F6D3FAF750FB3CAB00085CAB000815
:105AA000094910B508784C1C18B1401E0870205CDC
:105AB00010BD00210720ABBE207010BD0249087840
:105AC000421C0A7070470000200A0020026811443E
:105AD0001378016018467047D16004495161044948
