:020000040800F2
:10000000E812002049010008A9280008AB280008D0
:10001000AF280008B3280008B72800080000000037
:10002000000000000000000000000000BB280008E5
:10003000BD28000800000000BF280008C1280008F3
:10004000630100086301000863010008C328000879
:1000500063010008630100086301000863010008F0
:1000600063010008630100086301000863010008E0
:1000700063010008630100086301000863010008D0
:1000800063010008630100086301000863010008C0
:100090006301000863010008630100086D2E000879
:1000A00063010008630100086301000863010008A0
:1000B0006301000863010008630100086301000890
:1000C0006301000863010008630100086301000880
:1000D0006301000863010008630100086301000870
:1000E0006301000863010008630100086301000860
:1000F0006301000863010008630100086301000850
:10010000630100086301000863010008630100083F
:1001100063010008630100086B29000863010008FF
:10012000630100086301000863010008630100081F
:10013000DFF810D006F03AFA0048004751280008CE
:10014000AFF30080E81200200648804706480047C9
:10015000FEE7FEE7FEE7FEE7FEE7FEE7FEE7FEE777
:10016000FEE7FEE74B020008310100080CB5002055
:10017000019000906C48006840F480306A49086043
:1001800000BF6948006800F4003000900198401CEE
:100190000190009818B90198B0F5A06FF1D16248AC
:1001A000006800F4003010B10120009001E0002050
:1001B00000900098012843D15C48006840F010008E
:1001C0005A4908600846006820F0030008600846A5
:1001D000006840F002000860534840685249486097
:1001E0000846406848600846406840F480604860BF
:1001F0000846406820F47C1048600846406840F497
:10020000E81048600846006840F08070086000BF51
:100210004548006800F000700028F9D04248406866
:1002200020F00300404948600846406840F0020062
:10023000486000BF3C48406800F00C000828F9D135
:100240000CBD10B5FFF792FF10BD10B53648006821
:1002500040F00100344908600846406834490840CD
:100260003149486008460068324908402E49086014
:100270000846006820F4802008600846406820F4A2
:10028000FE0048604FF41F008860FFF7DAFF4FF070
:1002900000602949086010BD10B50021002000222F
:1002A000214B5B6803F00C0121B1042906D0082919
:1002B00028D107E0214B224C236027E01F4B204C24
:1002C000236023E0184B5B6803F47010164B5B68E7
:1002D00003F48032022303EB904022B9194B4343CD
:1002E000174C23600DE0104B5B6803F4003323B11F
:1002F000144B4343124C236003E0104B4343104C18
:10030000236003E00D4B0E4C236000BF00BF064B83
:100310005B68C3F303130C4CE15C094B1B68CB40D7
:10032000074C236010BD0000001002400020024076
:100330000000FFF8FFFFF6FE08ED00E000127A0073
:100340000000002000093D00040000203149014365
:10035000314A1160704770B5002100230F22C47824
:1003600004B32D4C246804F4E064C4F5E064210A6D
:10037000C1F10403CA40447804FA03F184781440BC
:1003800021430901254C0678A155047804F01F0586
:100390000124AC4005786D11AD0005F1E025C5F8EC
:1003A000004109E0047804F01F050124AC401C4D15
:1003B0000678761145F8264070BD1A4A0A40024375
:1003C000154B1B1F1A60704739B1134A121D126872
:1003D0000243114B1B1D1A6006E00F4A121D1268E2
:1003E00082430D4B1B1D1A607047042808D14FF043
:1003F000E021096941F004014FF0E022116107E0BA
:100400004FF0E021096921F004014FF0E022116171
:10041000704700000000FA050CED00E000E400E089
:1004200080E100E080FFFF1F10B5012000F0A4FE76
:10043000002000F0A1FE10BD2A490860704729493C
:10044000091F0860704727498431086070470146DA
:100450000020254A10884FF67F4210400843224A68
:1004600010807047014600201F4A10884FF68072A6
:10047000104008431C4A1080704708B500220092C3
:10048000194A2C3A0092009A02440092009A116094
:1004900008BD08B501460020009013482C38009094
:1004A0000098084400900098008808BD0D489C30D2
:1004B0000068C0B270470C480830008840F0010066
:1004C00009490831088070470648A0300068C0B26A
:1004D000704705480830008840F0020002490831A2
:1004E0000880704704860D422C6C0040002044496F
:1004F0000860091D0860091D0860091D0860414861
:100500003F4914310860704700213D498279002A33
:100510003AD00A46126803689A430B461A600A1DCD
:10052000126803689A430B1D1A60027911440A6825
:1005300003681A430A60324A0832126803689A4311
:100540002F4B08331A601A1D126803689A432C4B0C
:100550000C331A604279102A0ED11A1F12680368F0
:100560001A43274B08331A601A1D126803681A438E
:10057000234B0C331A600DE02149427911440A687B
:1005800003681A430A6005E0027911440A680368A7
:100590009A430A6070470021016001710C2141718A
:1005A0000021817170471649103109680143144ACE
:1005B00010321160704701460020114A143212684F
:1005C0000A400AB1012000E0002070470C491431B4
:1005D00008607047014600200022094B1B6803EAAF
:1005E0000102074B14331B680B4013B10AB1012001
:1005F00000E0002070470249143108607047000095
:1006000000040140FFFF0F0010B50446CC488442AF
:1006100008D10121042000F095FD0021042000F004
:1006200091FD46E0C748844208D10121082000F02E
:1006300089FD0021082000F085FD3AE0C24884428F
:1006400008D10121102000F07DFD0021102000F0D4
:1006500079FD2EE0BD48844208D10121202000F020
:1006600071FD0021202000F06DFD22E0B848844299
:1006700008D10121402000F065FD0021402000F05C
:1006800061FD16E0B348844208D10121802000F0CA
:1006900059FD0021802000F055FD0AE0AE4884425B
:1006A00007D10121801500F04DFD0021A01500F0BB
:1006B00049FD10BD10B50121084600F043FD0021A1
:1006C000012000F03FFD10BD2DE9F041024600255C
:1006D0000026002000230024002791F803C00CF01E
:1006E0000F0591F803C00CF0100CBCF1000F03D003
:1006F00091F802C04CEA050591F800C0BCF1000F6A
:1007000031D0146800202BE04FF0010C0CFA00F3FC
:10071000B1F800C00CEA03069E4220D183004FF0DE
:100720000F0C0CFA03F7BC4305FA03FC4CEA040473
:1007300091F803C0BCF1280F06D14FF0010C0CFA60
:1007400000FCC2F814C00AE091F803C0BCF1480FE5
:1007500005D14FF0010C0CFA00FCC2F810C0401C8F
:100760000828D1D31460B1F800C0BCF1FF0F34DD0C
:10077000546800202EE000F1080C4FF0010808FA40
:100780000CF3B1F800C00CEA03069E4221D18300AD
:100790004FF00F0C0CFA03F7BC4305FA03FC4CEACC
:1007A000040491F803C0BCF1280F05D100F1080C36
:1007B00008FA0CF8C2F8148091F803C0BCF1480F95
:1007C00007D100F1080C4FF0010808FA0CF8C2F844
:1007D0001080401C0828CED35460BDE8F0814FF64D
:1007E000FF710180022181700421C17070470246AF
:1007F000002093680B400BB1012000E000207047FF
:100800000146886880B2704702460020D3680B40DA
:100810000BB1012000E0002070470146C86880B29B
:10082000704701617047416170470AB1016100E0A2
:1008300041617047C16070474FF480320A43826162
:100840008161826182698269704702460020434B60
:1008500018684FF68073184040EA021008433F4B77
:10086000186070473E49C8617047F0B50A460023DA
:1008700000240021002500F00046B6F1004F02D10F
:10088000364EF16901E0354E7168C0F3034583B21D
:1008900000F44016B6F5401F08D121F070612F4ECC
:1008A000766826F070662D4F7E6012E000F48016A8
:1008B000B6F5801F06D1032606FA05F4A14341F0E0
:1008C000706106E0460D360103FA06F6B14341F0C9
:1008D000706122B1460D360103FA06F6314300F08D
:1008E0000046B6F1004F02D11C4EF16101E01B4EF3
:1008F0007160F0BD30B500228B071C0F0F2303FA87
:1009000004F2164B08338C1053F824309343134CE5
:1009100008348D1044F8253023468C1053F82430C9
:100920008C07240F00FA04F423430C4C08348D1078
:1009300044F8253030BD0A49DC31086070470000BA
:1009400000080140000C014000100140001401406B
:1009500000180140001C014000200140000001403F
:100960000000204210B50446F748844209D1012115
:10097000480500F0F4FB00214FF4001000F0EFFBFD
:1009800008E00121880500F0EAFB00214FF4800017
:1009900000F0E5FB10BD2DE9F04385B004460D469F
:1009A0000026B1460427DFF8A483A6884FF6C0705E
:1009B0000640684600F03FFBDDF80880E448B8FBDD
:1009C000F0F01FFA80F946EA0906A68020884FF663
:1009D000FE71084020800026DE49286888420CD835
:1009E00028684000B8FBF0F087B2042F00DA042733
:1009F0003E4309F10100208427E0E8884BF6FF71AF
:100A0000884206D1286800EB4000B8FBF0F087B2BE
:100A100009E0286800EBC00101EB0010B8FBF0F022
:100A200087B247F48047C7F30B0008B947F00107C6
:100A300047F4004006434FF4967009FB00F04FF472
:100A40007A7190FBF1F0401C2084A683208840F04E
:100A50000100208026884FF6F5300640A888698975
:100A6000084306432680A88929890843208105B0C8
:100A7000BDE8F08341F288310160002181804BF6AE
:100A8000FF71C1800021018141814FF4804181814A
:100A9000704721B1028842F00102028004E002881E
:100AA0004FF6FE731A400280704721B1828842F4EB
:100AB0000062828004E082884FF2FF731A408280D5
:100AC000704721B1828842F48052828004E082889B
:100AD0004EF6FF731A408280704721B1028842F4BB
:100AE0008072028004E002884FF6FF631A400280A1
:100AF000704721B1028842F40072028004E002884B
:100B00004FF6FF531A400280704721B1028842F429
:100B10008062028004E002884FF6FF331A400280B0
:100B200070470A46002181894FF60173194002F08F
:100B3000FE0319438181704721B1828942F001028D
:100B4000828104E082894FF6FE731A4082817047E9
:100B500021B1028842F04002028004E002884FF690
:100B6000BF731A40028070471AB183880B43838099
:100B700002E083888B43838070470182704701467F
:100B8000088AC0B2704712B141F0010102E04FF68D
:100B9000FE7319400182704708B50246002000909C
:100BA00000920098084400900098008808BD21B188
:100BB000028842F40042028003E00288C2F30E027F
:100BC00002807047B1F5006F04D1028842F40062E0
:100BD000028004E002884FF2FF731A4002807047DF
:100BE000B1F5005F04D1028842F40052028004E0B3
:100BF00002884DF6FF731A400280704721B10288C7
:100C000042F48052028004E002884EF6FF731A40DC
:100C100002807047B1F5006F04D1028842F400628F
:100C2000028004E002884FF2FF731A40028070478E
:100C300021B1028842F02002028004E002884FF6CF
:100C4000DF731A40028070470146088B001270471C
:100C500021B1028842F01002028004E002884FF6BF
:100C6000EF731A400280704721B9028842F0800277
:100C7000028004E002884FF67F731A4002807047BA
:100C8000B1F5804F05D0828B4BF6FF731A408283FB
:100C900003E0828B42F480428283704770B5024643
:100CA0000024002500230020958A138B1B0445EAAD
:100CB000030626F07F4404EA01068E4201D101209A
:100CC00000E0002070BD10B5014600200023002286
:100CD0008B8A0A8B120443EA020424F07F4010BD81
:100CE0000CB50246002000230193009300920B0FE5
:100CF000019321F07F41019B1BB1009B14330093B2
:100D000003E0090C009B18330093009B1B680B4009
:100D10000BB1012000E000200CBD002221F07F4239
:100D2000D3438382704730B5024600200023948865
:100D300001F0E06504EA154321F07F41948A0C40FC
:100D400054B14BB1012008E00054004000127A0079
:100D500040420F00A0860100002030BD002221F09B
:100D60007F42D3438382704710B50121080700F00A
:100D7000F6F900214FF0805000F0F1F910BD2A493A
:100D80000862704728490861704701460020274AD9
:100D9000106820F0E0000843106070472249A0313D
:100DA0000860704710B502460020204B186820F0FC
:100DB0000300104318601E4B1B6843F004031C4CD7
:100DC0002360012901D130BF00E020BF184B1B6810
:100DD00023F00403164C236010BD1448006840F053
:100DE0000400124908600846006840F002000860EC
:100DF0000F48006840F004000D49086000BF00BFC4
:100E000030BF704701460020084A52680A400AB1C4
:100E1000012000E0002070470449096841EA800190
:100E2000024A11607047000000000E42007000404E
:100E300010ED00E0DF48006840F00100DD49086087
:100E400008464068DC490840DA49486008460068BE
:100E5000DA490840D74908600846006820F4802035
:100E600008600846406820F4FE0048604FF41F0008
:100E700088607047CF49096821F48031CD4A1160FC
:100E80001146096821F480211160B0F5803F03D03C
:100E9000B0F5802F0ED106E0C649096841F48031D3
:100EA000C44A116007E0C349096841F4A021C14A5E
:100EB000116000E000BF00BF704710B5014600227E
:100EC000002300204A11012A02D1BA4C236806E00F
:100ED000022A02D1B74C236A01E0B64C636A01F0E2
:100EE0001F02012494401C400CB1012000E00020AE
:100EF00010BD38B5002000900024002500BF31202F
:100F0000FFF7DBFF05460098401C00900098B0F505
:100F1000A06F01D0002DF2D03120FFF7CEFF08B135
:100F2000012400E00024204638BD01460020A14AEB
:100F3000106820F0F80040EAC10010607047A04936
:100F400008607047024600209A4B586820F47C10D5
:100F500042EA01031843974B586070479849086666
:100F6000704701460020934A506820F00300084370
:100F7000506070478F48406800F00C007047014691
:100F800000208C4A506820F0F00008435060704701
:100F900001460020874A506820F4E0600843506012
:100FA000704701460020834A506820F4605040EAB0
:100FB000C1005060704729B17E4A527A02437D4B8E
:100FC0005A7204E07B4A527A82437A4B5A727047D3
:100FD0007B49D8310860704701460020754A506847
:100FE00020F440400843506070470021714A20328D
:100FF0001170704A82F82010012802D004280AD10A
:1010000004E001216B4A2032117005E00521694A94
:101010002032117000E000BF00BF704769490860CE
:1010200070476449096A0143624A11627047654921
:1010300044390860704730B50021002200240023A5
:101040005C4D6D6805F00C0121B1042905D008291B
:1010500023D105E05C4D056022E05B4D05601FE09B
:10106000544D6D6805F47012524D6D6805F480346E
:10107000022505EB92421CB9544D554305600BE027
:101080004C4D6D6805F400351DB1504D554305605C
:1010900002E04D4D5543056002E04B4D056000BF39
:1010A00000BF444D6D6805F0F0010909484D6B5CC7
:1010B0000568DD4045603F4D6D6805F4E061090A53
:1010C000434D6B5C4568DD4085603A4D6D6805F4C5
:1010D0006051C90A3E4D6B5C4568DD40C560354DC9
:1010E0006D6805F44041890B3A4D6B5CC568B5FBF2
:1010F000F3F5056130BD29B12E4A526902432D4BEB
:101100005A6104E02B4A526982432A4B5A61704764
:1011100029B1284A92690243264B9A6104E0254A84
:1011200092698243234B9A61704729B1214AD2695F
:101130000243204BDA6104E01E4AD26982431D4B10
:10114000DA61704729B11B4AD2680243194BDA6051
:1011500004E0184AD2688243164BDA60704729B11E
:10116000144A12690243134B1A6104E0114A1269CE
:101170008243104B1A61704712494039086070472A
:101180000F49C86470470B49C87170470948406AE5
:1011900040F0807007494862704701460020054AC8
:1011A00092680A400AB1012000E00020704701491E
:1011B00088727047001002400000FFF8FFFFF6FE43
:1011C000000042428004424200127A0000093D00C1
:1011D000140000202400002029B1504A1288024344
:1011E0004E4B1A8004E04D4A128882434B4B1A80C2
:1011F00070474A48001D008840F010004749091D0B
:10120000088070474548001D00884FF6EF71084080
:101210004249091D08807047002140481C30018860
:10122000001F008841EA0040704700B50246FFF702
:10123000E0FF100C394918310880091D0A80FFF7BA
:10124000E1FF00BD00B50246FFF7D3FFC2F3034044
:10125000324908310880091D0A80FFF7D3FF00BD1D
:1012600000B50246FFF7C5FF100C2C49203108805D
:10127000091D0A80FFF7C6FF00BD00202749103175
:1012800009880907080B2549143109880843704764
:1012900000BF2248001D008800F020000028F8D080
:1012A00070471E48001D00884FF6F77108401B4923
:1012B000091D088000BF1948001D008800F00800C3
:1012C0000028F8D0704701460020144A121D1288E9
:1012D0000A400AB1012000E0002070470F49091DB3
:1012E000098881430D4A121D118070470146002074
:1012F0000A4A121D12880A40D0B2084A12880A40CF
:1013000012B108B1012000E0002070470349091D17
:1013100009888143014A121D11807047002800404E
:1013200010B50446BE48844208D101218014FFF75D
:1013300009FF0021A014FFF705FF16E0B948844219
:1013400008D101210014FFF70AFF00212014FFF744
:1013500006FF0AE0B448844207D10121C013FFF719
:10136000FEFE0021E013FFF7FAFE10BD10B50022CB
:10137000028802F441520B884C8823438C88234313
:10138000CC8823430C8923434C8923438C892343F2
:10139000CC8923431A430280838B4FF2FF7423408E
:1013A00083830B8A038210BD2DE9F04F85B005467B
:1013B0000C464FF0000902274FF000084FF0010BD8
:1013C0000026B246A88B4FF240010840A8830220B5
:1013D0002884B5F81C90A068022801D100BF38E02D
:1013E000A08810B94FF0010B01E04FF0020B8D48BF
:1013F000854200D100E000BF6846FFF71CFEDDF823
:1014000000A0E088B0F5007F0AD14FEA1A2000EB77
:1014100080004000A168B0FBF1F0401D86B20BE0F7
:101420004FEA4B10BAFBF0F000EB80004000A168DF
:10143000B0FBF1F0401D86B20A20B6FBF0F606F0D4
:101440000108A6EB0800C0F34F074FF6FF7000EA53
:101450000828022F01DBFF2F02DD02274FF00008D2
:10146000E08840EA080038432884A088A18908431E
:10147000618808432188084340F4006040EA090974
:10148000A5F81C9005B0BDE8F08F002101804180D7
:101490008180C180018141818181C18107210182D7
:1014A00070470021018041808180C18002218160DC
:1014B00000218181704721B1028842F04002028000
:1014C00004E002884FF6BF731A400280704721B1D2
:1014D000828B42F48062828304E0828B4FF6FF337A
:1014E0001A408283704730B5002400230C11012577
:1014F000A540ABB21AB185881D43858002E085887E
:101500009D43858030BD1AB183880B43838002E000
:1015100083888B4383807047818170470146888927
:1015200070474FF6FF62914204D0028842F4807205
:10153000028004E002884FF6FF631A400280704781
:1015400021B1828842F00402828004E082884FF652
:10155000FB731A408280704702884FF2FF731A4073
:10156000028002880A4302807047018841F480515A
:101570000180704721B1028842F40052028004E0E9
:1015800002884DF6FF731A40028070470246002021
:10159000012901D0108B00E0908A70470146088A2B
:1015A0007047B1F5804F04D1028842F48042028036
:1015B00004E002884BF6FF731A400280704702462F
:1015C000002013890B400BB1012000E00020704780
:1015D000CA4302817047F0B5024600200024002370
:1015E000002501F00F070126BE40B4B20B11012601
:1015F0009E40B3B2968806EA03051689264016B1C6
:101600000DB1012000E00020F0BD10B5002201F076
:101610000F040123A3409AB2D343038110BD0000FD
:101620000030014000380040003C004010B5044646
:10163000FE48844208D10121C014FFF783FD002138
:10164000E014FFF77FFDC4E0B4F1804F08D1012121
:101650000846FFF784FD00210120FFF780FDB8E078
:10166000F348844208D101210220FFF778FD0021D0
:101670000220FFF774FDACE0EE48844208D101215E
:101680000420FFF76CFD00210420FFF768FDA0E0B7
:10169000E948844208D101210820FFF760FD0021BC
:1016A0000820FFF75CFD94E0E448844208D1012162
:1016B0001020FFF754FD00211020FFF750FD88E0B7
:1016C000DF48844208D101212020FFF748FD002196
:1016D0002020FFF744FD7CE0DA48844208D1012154
:1016E0004014FFF72FFD00216014FFF72BFD70E081
:1016F000D548844209D10121C804FFF723FD002108
:101700004FF40020FFF71EFD63E0D048844209D16A
:1017100001210805FFF716FD00214FF48010FFF7A7
:1017200011FD56E0CA48844209D101214805FFF75E
:1017300009FD00214FF40010FFF704FD49E0C54802
:10174000844208D101214020FFF709FD00214020FB
:10175000FFF705FD3DE0C048844208D1012180200B
:10176000FFF7FDFC00218020FFF7F9FC31E0BB48CA
:10177000844208D101218015FFF7F1FC0021A0155A
:10178000FFF7EDFC25E0B648844209D101210804A9
:10179000FFF7D8FC00214FF48030FFF7D3FC18E0AE
:1017A000B048844209D101214804FFF7CBFC002155
:1017B0004FF40030FFF7C6FC0BE0AB48844208D181
:1017C00001218804FFF7BEFC00214FF48020FFF7C1
:1017D000B9FC10BD00220288944B98420ED0994B60
:1017E00098420BD0B0F1804F08D0914B984205D071
:1017F000904B984202D0904B984204D14FF68F7391
:101800001A404B881A438D4B984207D08C4B984214
:1018100004D04FF6FF431A40CB881A4302808B88CE
:1018200083850B880385814B98420BD0854B98426A
:1018300008D08B4B984205D08A4B984202D08A4BF5
:10184000984201D10B7A038601238382704770B5D9
:10185000002400220023058C4FF6FE7635400584D7
:10186000028C8388048B4FF68F752C40B51E2C405C
:101870000D882C43751E2A400D892A434D882A4322
:101880006A4DA8420BD06F4DA84208D0744DA842B3
:1018900005D0744DA84202D0734DA84213D14FF623
:1018A000F7752A404D892A434FF6FB752A408D88EB
:1018B0002A434FF6FF652B404FF6FF552B408D898D
:1018C0002B43CD892B4383800483CD888586028476
:1018D00070BD70B5002400220023058C4FF6EF7612
:1018E00035400584028C8388048B48F6FF752C40B4
:1018F0004FF6FF452C400D884FF6FF7606EA05258A
:101900002C434FF6DF752A400D8906EA05152A4358
:101910004D8806EA05152A43444DA84202D0494D98
:10192000A8421DD14FF67F752A404D894FF6FF76AC
:1019300006EA05152A434FF6BF752A408D8806EA48
:1019400005152A434FF6FF352B404FF2FF752B400C
:101950008D8906EA85052B43CD8906EA85052B434B
:1019600083800483CD880587028470BD70B5002410
:1019700000220023058C4FF6FF6635400584028C5B
:101980008388848B4FF68F752C404FF6FC752C4066
:101990000D882C434FF6FF552A400D894FF6FF76F0
:1019A00006EA05252A434D8806EA05252A431F4DE8
:1019B000A84202D0234DA8421DD14FF2FF752A4004
:1019C0004D894FF6FF7606EA05252A434FF6FF3587
:1019D0002A408D8806EA05252A434EF6FF752B40DE
:1019E0004DF6FF752B408D8906EA05152B43CD89F1
:1019F00006EA05152B4383808483CD88858702847E
:101A000070BD70B5002200230024058C4EF6FF76D1
:101A100035400584038C8488828B48F6FF752A4004
:101A20004FF6FF452A400D8820E00000002C0140C1
:101A30000004004000080040000C0040001000407E
:101A40000014004000340140004C014000500140AF
:101A50000054014000180040001C004000200040DD
:101A60000040014000440140004801404FF6FF762D
:101A700006EA05252A434DF6FF752B400D8906EA37
:101A800005352B434D8806EA05352B43FA4DA84210
:101A900002D0FA4DA84208D14BF6FF752C408D8933
:101AA0004FF6FF7606EA85152C4384808283CD8825
:101AB000A0F84050038470BD828B4FF2FF331A4070
:101AC0008283828B4FF6FF7303EA01231A438283DA
:101AD0007047F0B50C461546002200210026078C01
:101AE0004EF6FF7C07EA0C070784828B018C4FF6C9
:101AF000FF7707EA043640F6FF473A404FF6FF7794
:101B000007EA05273A434FF6FF7707EA03373A43D8
:101B1000D94FB8420ED0D94FB8420BD0B0F1804F58
:101B200008D0D74FB84205D0D64FB84202D0D64FD2
:101B3000B84206D14DF6FF77394046F48057394315
:101B400005E047F6FF57394044F480573943828314
:101B50000184F0BD828B4FF6F3731A408283828B2F
:101B60000A4382837047F0B50C46154600220021D7
:101B70000026078C4FF6FF6C07EA0C070784828B60
:101B8000018C4FF6FF7707EA04264FF60C773A40B0
:101B90004FF6FF7707EA03172F433A43B64FB84291
:101BA0000ED0B64FB8420BD0B0F1804F08D0B44F32
:101BB000B84205D0B34FB84202D0B34FB84206D1B5
:101BC0004FF6FF57394046F48077394305E04FF22E
:101BD000FF57394044F48077394382830184F0BD54
:101BE000028B4FF2FF331A400283028B4FF6FF73D2
:101BF00003EA01231A4302837047F0B50C461546E9
:101C0000002200210026078C4FF6EF7C07EA0C0724
:101C10000784028B018C4FF6FF7707EA041640F623
:101C2000FF473A404FF6FF7707EA03373A434FF64C
:101C3000FF7707EA05273A438F4FB8420ED08F4F00
:101C4000B8420BD0B0F1804F08D08D4FB84205D0CC
:101C50008C4FB84202D08C4FB84206D14FF6DF7796
:101C6000394046F01007394305E04FF65F773940B9
:101C700044F01007394302830184F0BD028B4FF614
:101C8000F3731A400283028B0A4302837047F0B554
:101C90000C46154600220021068C4FF6FE773E408A
:101CA0000684028B018C4FF60C7632407E1C06EACD
:101CB00003162E433243704EB0420ED06F4EB042E8
:101CC0000BD0B0F1804F08D06D4EB04205D06D4EB4
:101CD000B04202D06C4EB04206D14FF6FD76314094
:101CE00044F00106314305E04FF6F576314044F00B
:101CF0000106314302830184F0BD70B505460C46F0
:101D00005D4885420ED05D4885420BD0B5F1804FCD
:101D100008D05B48854205D05A48854202D05A48CF
:101D2000854200D100E000BF208850B92389A288F5
:101D300061882846FFF7ABFFE1882846FFF79EFF42
:101D400025E0208804280AD12389A28861882846B2
:101D5000FFF753FFE1882846FFF742FF17E020888E
:101D600008280AD12389A28861882846FFF7FBFE4C
:101D7000E1882846FFF7EEFE09E02389A288618802
:101D80002846FFF7A6FEE1882846FFF795FE70BDBE
:101D90002DE9F04105460C4600260127608808B968
:101DA000022600E00026A088012801D1022700E0D9
:101DB00001272088A0B92389A28861882846FFF7D7
:101DC00066FFE1882846FFF759FF23893A463146E6
:101DD0002846FFF712FFE1882846FFF701FF13E0CE
:101DE0002389A28861882846FFF707FFE1882846F3
:101DF000FFF7F6FE23893A4631462846FFF747FFAC
:101E0000E1882846FFF73AFFBDE8F0810A884B8851
:101E10001A438B881A43CB881A430B891A434B8980
:101E20001A438B891A43A0F8442070474FF6FF717C
:101E3000818000210180C1804180017270470021B2
:101E4000018041808180C180018141818181C18186
:101E50007047002101804180012181800021C180E3
:101E6000018170470021018041808180C180018112
:101E70004181818170470000002C01400034014005
:101E80000004004000080040000C004021B102881E
:101E900042F00102028004E002884FF6FE731A400D
:101EA0000280704731B1B0F8442042F40042A0F8FB
:101EB000442005E0B0F84420C2F30E02A0F844200C
:101EC00070471AB183890B43838102E083898B4376
:101ED000838170478182704741EA0203A0F848304D
:101EE00070471AB183890B43838102E083898B4356
:101EF0008381704701894FF6F87211400181704764
:101F00000A46002101894FF68F7319401143018160
:101F1000704730B504460D4629462046FFF7F0FFCE
:101F2000208940F00700208130BD2DE9F0410446B2
:101F30000D4616461F46602D06D13B46012231460E
:101F40002046FFF75AFE05E03B4601223146204677
:101F5000FFF79DFE29462046FFF7D2FF208940F07B
:101F600007002081BDE8F08130B50C4600210189D1
:101F7000C9B24FF6FF7505EA0325154325432943EA
:101F8000018130BD2DE9F04105460E4617469846C1
:101F9000002443463A4631462846FFF7E5FF2C89A0
:101FA0004FF6F870044044F007044FF68F70044079
:101FB00044F070042C81BDE8F081F0B504460D4674
:101FC00016461F463B46324629462046FFF7CCFFC1
:101FD000208940F480402081F0BD018582827047D5
:101FE0000A46002101884FF68F7319401143018082
:101FF0007047F0B50C4615461E460021002200230E
:102000000189028B038C4FF6F877394021434FF654
:10201000FC473A4040F201173A434FF6DD773B4028
:102020004FF6FF7707EA06172F433B4301810283F0
:102030000384F0BD0A460021018B4FF68F731940CF
:102040001143018370470A460021018B48F6FF7354
:1020500019404FF6FF7303EA0223194301837047C7
:102060000A460021818B4FF68F73194011438183FB
:1020700070470A460021818B48F6FF7319404FF6DE
:10208000FF7303EA022319438183704721B1028859
:1020900042F08002028004E002884FF67F731A400B
:1020A0000280704721B1828842F00402828004E0FD
:1020B00082884FF6FB731A408280704721B1828874
:1020C00042F00802828004E082884FF6F7731A40DB
:1020D0008280704721B1828842F00102828004E050
:1020E00082884FF6FE731A40828070470A460021AC
:1020F000018B4FF6F77319401143018370470A466D
:102100000021018B4FF2FF7319404FF6FF7303EA72
:1021100002231943018370470A460021818B4FF641
:10212000F77319401143818370470A460021818B60
:102130004FF2FF7319404FF6FF7303EA022319436E
:10214000818370470A460021018B4FF6FB731940CB
:102150001143018370470A460021018B4FF6FF337C
:1021600019404FF6FF7303EA0223194301837047B6
:102170000A460021818B4FF6FB731940114381837E
:1021800070470A460021818B4FF6FF3319404FF606
:10219000FF7303EA02231943818370470A46002133
:1021A000018B4FF67F7319401143018370470A4634
:1021B0000021018BC1F30E014FF6FF7303EA0223E6
:1021C0001943018370470A460021818B4FF67F73C4
:1021D00019401143818370470A460021818BC1F366
:1021E0000E014FF6FF7303EA022319438183704700
:1021F0000A460021018C4FF6FD73194011430184FA
:1022000070470A460021018C4FF6F77319401143BD
:10221000018470470A460021018C4FF6DF73194094
:102220004FF6FF7303EA02131943018470470A460D
:102230000021018C4FF67F7319404FF6FF7303EABC
:1022400002131943018470470A460021018C4FF69E
:10225000FF5319404FF6FF7303EA02231943018429
:1022600070470A460021018C4FF2FF7319404FF668
:10227000FF7303EA02231943018470470A460021D1
:10228000018C4DF6FF7319404FF6FF7303EA0233DA
:1022900019430184704730B5002301248C40A3B258
:1022A000048C9C430484048C02FA01F5ADB22C43E7
:1022B000048430BD30B5002304248C40A3B2048CC8
:1022C0009C430484048C02FA01F5ADB22C430484CF
:1022D00030BD70B503460020002418461830012593
:1022E0008D40ACB21D8CA5431D8409B1082909D1CC
:1022F00000EB6100056825F0700505600568154371
:1023000005600EE00D1FC5F34E052844056825F451
:10231000E045056005684FF6FF7606EA022635437C
:10232000056070BD21B1028842F00202028004E023
:1023300002884FF6FD731A400280704721B102886F
:1023400042F00402028004E002884FF6FB731A4058
:102350000280704721B1828842F08002828004E0CE
:1023600082884FF67F731A408280704702884FF64A
:10237000F7731A40028002880A43028070478288FD
:102380004FF68F731A40828082880A43828070479A
:1023900002894FF6F8731A40028102890A430281CA
:1023A000704702894FF67F731A40028102890A43FF
:1023B00002817047818470478185704781867047AC
:1023C0000187704781877047A0F8401070470288E6
:1023D0004FF6FF431A40028002880A43028070478A
:1023E0000146888E70470146088F70470146888FE6
:1023F00070470146B1F8400070470146888C70472D
:102400000146088D704702460020138A0B400BB12D
:10241000012000E000207047CA430282704730B5B7
:102420000246002000230024158A05EA010395894D
:1024300005EA010413B10CB1012000E0002030BD19
:10244000CA4302827047000010B50446FB4884422C
:1024500009D101218803FEF775FE00214FF4804069
:10246000FEF770FE32E0F648844209D101214804AB
:10247000FEF775FE00214FF40030FEF770FE25E0F8
:10248000F048844209D101218804FEF768FE00214A
:102490004FF48020FEF763FE18E0EB48844209D138
:1024A0000121C804FEF75BFE00214FF40020FEF777
:1024B00056FE0BE0E548844208D101210805FEF7ED
:1024C0004EFE00214FF48010FEF749FE10BD2DE9AD
:1024D000F04786B005460E460024A24600BFA1463E
:1024E0000027B08900B100BF2F462C8A4CF6FF7040
:1024F0000440F08804432C82AC894EF6F31004406B
:10250000B08831890843718908430443AC81AC8A9F
:102510004FF6FF400440B0890443AC8201A8FEF7A7
:102520008AFDC648874202D1DDF810A001E0DDF83F
:102530000CA0A88900F4004040B10AEBCA0000EBEF
:102540000A1031684900B0FBF1F807E00AEBCA0055
:1025500000EB0A1031688900B0FBF1F86420B8FB89
:10256000F0F004012009642101FB1089A88900F41E
:10257000004040B1322000EBC900B0FBF1F000F0A8
:102580000700044308E0322000EB09106421B0FB8F
:10259000F1F000F00F0004432C8106B0BDE8F08795
:1025A0004FF41651016000218180C18001810C210E
:1025B000418100218181704710B502460020108AB8
:1025C0004FF2FF0318400B884C8823438C88234329
:1025D000CC8823431843108210BD00210180418024
:1025E0008180C180704721B1828942F4005282818A
:1025F00004E082894DF6FF731A4082817047F0B57E
:102600000346002400260025002040F66A17B94240
:1026100000D100BF1846C1F3421401F01F06012784
:1026200007FA06F5012C01D10C3004E0022C01D18F
:10263000103000E014301AB107682F43076002E041
:102640000768AF430760F0BD1AB1838A0B438382EA
:1026500002E0838A8B4383827047028A4FF6F073CD
:102660001A400282028A0A430282704782894FF22C
:10267000FF731A40828182890A438281704721B1A7
:10268000828942F00202828104E082894FF6FD7362
:102690001A4082817047028A4FF6DF731A40028225
:1026A000028A0A430282704721B1028A42F48042C0
:1026B000028204E0028A4BF6FF731A4002827047DE
:1026C000C1F308028280704701468888C0F3080081
:1026D0007047818941F0010181817047028BD2B23C
:1026E0000283028B42EA012202837047028B02F4CA
:1026F0007F420283028B0A430283704721B1828AA0
:1027000042F02002828204E0828A4FF6DF731A4090
:102710008282704721B1828A42F01002828204E0F4
:10272000828A4FF6EF731A408282704721B1828A03
:1027300042F00802828204E0828A4FF6F7731A4060
:102740008282704721B1828942F40042828103E093
:102750008289C2F30E028281704721B1828A42F4DB
:102760000062828204E0828A4FF2FF731A40828202
:102770007047828A4FF6FB731A408282828A0A432C
:102780008282704721B1828A42F00202828204E092
:10279000828A4FF6FD731A408282704702460020FB
:1027A000B1F5007F00D100BF13880B400BB10120B1
:1027B00000E00020704701F40072B2F5007F00D104
:1027C00000BFCA430280704770B502460024002350
:1027D0000025002040F66A16B14200D100BFC1F3C7
:1027E000421501F01F03012606FA03F3012D02D161
:1027F0009689334006E0022D02D1168A334001E06B
:10280000968A33400C12012606FA04F416883440E6
:1028100013B10CB1012000E0002070BD10B5002202
:10282000002340F66A14A14200D100BF0A1201241D
:102830009440A3B2DC43048010BD00000038014086
:102840000044004000480040004C00400050004060
:1028500002F01CF802F078F802F0FEF802F09DFE9B
:1028600001F074FB02F080F90C4801F0C2FB01F0AA
:10287000D9FC02F033FF02F039FF02F0BCFF084838
:1028800003F009F808E007480078012804D102F0B5
:1028900084FF002003490870F5E7000034000020A1
:1028A000A40000202E000020704700BFFEE700BFFC
:1028B000FEE700BFFEE700BFFEE7704770477047C6
:1028C000704710B50120FEF711FD00284CD0012003
:1028D000FEF71CFDFEF7A0FC0446FE4901F0C6FC15
:1028E000FD480078012820D1FC480068401CFB49C5
:1028F0000860084600683C2805D1002008600846AA
:102900004068401C4860F54840683C2806D10020DB
:10291000F249486008468068401C8860EF4880683B
:10292000182802D10020ED498860ED480078012880
:1029300014D1E8488068EB49896888420ED1E5489F
:102940004068E8494968884208D1E2480068E5499A
:102950000968884202D10120E3490870E348007801
:1029600001F0B6FCFEF794FC10BD10B50121E04863
:10297000FFF755FD00287DD0DE4800680521B0FB3B
:10298000F1F201FB1200032875D1D849097899B9F1
:10299000D949087800EBD0714910A0EB410159B931
:1029A0000123D6A20621002002F0F9F80123D3A2C8
:1029B0000721002002F0F3F8CC490978A1B9CE49EB
:1029C000087800EBD0714910A0EB410101290BD12F
:1029D0000123CAA206215A2002F0E1F80123C7A26E
:1029E00007215A2002F0DBF8C0490978012916D1E5
:1029F000C149087800EBD0714910A0EB410171B9D1
:102A00000123BEA20621002002F0C9F80123BBA2C7
:102A10000721002002F0C3F8BA4802F03CFFB34996
:102A20000978012917D1B449087800EBD071491011
:102A3000A0EB410101290ED10123B0A206215A20A9
:102A400002F0ADF80123ADA207215A2002F0A7F849
:102A5000AC4802F020FFA5490978022917D1A64900
:102A60000878C11700EB91718910A0EB810171B951
:102A7000012301E0F5E1EBE1A3A20021084602F009
:102A80008EF80123A0A21946002002F088F8974989
:102A90000978022915D198490878C11700EB91717E
:102AA0008910A0EB810101290BD1012393A20221FE
:102AB000002002F074F8012390A20321002002F00C
:102AC0006EF88A490978022915D18B490878C1170F
:102AD00000EB91718910A0EB810102290BD1012338
:102AE0008CA20421002002F05AF8012389A20521BA
:102AF000002002F054F87D490978022915D17E4959
:102B00000878C11700EB91718910A0EB81010329AE
:102B10000BD101237CA20621002002F040F8012302
:102B200079A20721002002F03AF8704909780329B8
:102B300013D17149087800EBD0714910A0EB410125
:102B400059B9012376A20021084602F028F8012392
:102B500073A21946002002F022F86449097803297B
:102B600014D16549087800EBD0714910A0EB410100
:102B700001290BD101236FA20221002002F00FF8DE
:102B800001236CA20321002002F009F857480078C5
:102B900004280DD158480078032190FBF1F201FB85
:102BA000120028B9012367A20721002001F0F7FFD6
:102BB0004E48007804280ED14F480078032190FB3E
:102BC000F1F201FB1200012805D101235DA20721CA
:102BD000282001F0E4FF45480078042814D1464835
:102BE0000078032190FBF1F201FB120002280BD1C7
:102BF000012348A20621462001F0D1FF012345A26E
:102C00000721462001F0CBFF3848007805280DD178
:102C100039480078032190FBF1F201FB120028B93A
:102C2000012348A20721002001F0B9FF2F480078B6
:102C300005280ED130480078032190FBF1F201FB0A
:102C40001200012805D101233EA20721282001F00E
:102C5000A6FF26480078052814D1274800780321CC
:102C600090FBF1F201FB120002280BD1012329A2F3
:102C70000621462001F093FF012326A207214620CA
:102C800001F08DFF19490978062913D11A490878EE
:102C900000EBD0714910A0EB410159B901231CA2EE
:102CA0000621002001F07BFF012319A2072100204B
:102CB00001F075FF0D490978062950D10E490878B1
:102CC00000EBD0714910A0EB4101012947D101234C
:102CD00015A239E0340000202900002088000020DF
:102CE000280000206C0000202E0000202A00002078
:102CF00000100040300000202C0000202020202068
:102D000020200000A40000202020202020202020BF
:102D10002020200020202020202020202020000013
:102D200020202020202020202020202020202020A3
:102D30000000000020202020202020202020202013
:102D400020202000200000000621462001F027FF5F
:102D50000123AFF22C020721462001F020FFFE489C
:102D6000007807280ED1FD480078032190FBF1F28E
:102D700001FB120030B90123AFF238020721002015
:102D800001F00DFFF448007807280FD1F3480078D0
:102D9000032190FBF1F201FB1200012806D101236F
:102DA000AFF260020721282001F0F9FEEA4800781E
:102DB000072816D1E9480078032190FBF1F201FBC6
:102DC000120002280DD10123AFF2B80206214620DD
:102DD00001F0E5FE0123AFF2C4020721462001F015
:102DE000DEFEDD490978082913D1DC49087800EBBB
:102DF000D0714910A0EB410159B90123D8A2062195
:102E0000002001F0CCFE0123D5A20721002001F013
:102E1000C6FED1490978082916D1D049087800EBB7
:102E2000D0714910A0EB410101290DD10123AFF26E
:102E300034120621462001F0B2FE0123AFF2441203
:102E40000721462001F0ABFE0020C749086008E0DA
:102E5000C148007801F03CFAC3480068401CC249F0
:102E600008600121C148FFF7EBFA10BD00B587B03B
:102E70004020FDF7A0FBA0B1C82002F031FB00BF4D
:102E80004021BB48FDF7B3FC0028F9D0B9A003F0FE
:102E9000CBFDB2480078401CB04908704020FDF7D7
:102EA00095FB8020FDF787FB00287DD0C82002F02D
:102EB00017FB00BF8021AE48FDF799FC0028F9D030
:102EC000ADA003F0B1FD01F04FFEAC490978B9B9EE
:102ED000A1490978A1B9A149087800EBD07149103E
:102EE000A0EB410161B99C480078A5490870012018
:102EF000A24908700220984908700020974908707C
:102F00009E490978B9B994490978A1B993490878D3
:102F100000EBD0714910A0EB410101290BD18E4883
:102F20000078974908700120944908708A49087010
:102F300000208A49087091490978C1B98649097801
:102F4000012914D18549087800EBD0714910A0EB14
:102F5000410161B98048007889490870012087499A
:102F6000087002207C49087000207C490870834961
:102F70000978C1B978490978012914D177490878C5
:102F800000EBD0714910A0EB410101290BD172482F
:102F900000787B49087001207849087000206E494C
:102FA00008706E49087000E009E374490978C9B9EE
:102FB00069490978022915D168490878C11700EBD9
:102FC00091718910A0EB810161B9634800786C4967
:102FD000087001206949087003205F4908700020CB
:102FE0005E49087065490978D1B95B4909780229B9
:102FF00016D15A490878C11700EB91718910A0EBDE
:10300000810101290CD1544800785D4908700120E4
:103010005A49087006205049087000204F4908702E
:1030200056490978D1B94C490978022916D14B493A
:103030000878C11700EB91718910A0EB810102297A
:103040000CD1454800784E49087001204B49087062
:103050000820414908700020404908704749097814
:10306000D1B93D490978022916D13C490878C117E0
:1030700000EB91718910A0EB810103290CD1364836
:1030800000783F49087001203C4908700920324906
:1030900008700020314908703849097821BB2E4951
:1030A0000978032920D12D49087800EBD071491007
:1030B000A0EB4101C1B928480078314908700120CE
:1030C0002E49087004202449087000202D490870FA
:1030D000224908702C4880682C4988602A4840683A
:1030E00048602948006808602449097829BB1A49C2
:1030F0000978032921D11949087800EBD0714910CA
:10310000A0EB4101012918D1134800781C4908702F
:1031100001201A49087005200F490870002019493C
:1031200008700E49087018484069184948611648E7
:10313000006908611448C068C8601048007838BB4E
:103140000548007804283CD10E480078032190FB04
:10315000F1F201FB12001CE02A0000202C000020EC
:10316000202020202000000030000020001000401F
:10317000001001403100000032000000A9000020D2
:103180002B000020AA000020340000205000002066
:1031900017E0B0B9FE48007890FBF1F201FB120095
:1031A00010B101280CD105E0FA488068401CF949AB
:1031B000886005E0F7488068401EF649886000BFD7
:1031C00000BFF548007818BBF448007804281FD1E8
:1031D000F3480078032190FBF1F201FB1200012873
:1031E00016D1EB48007890FBF1F201FB120010B110
:1031F00001280CD105E0E7484068401CE5494860DB
:1032000005E0E4484068401EE249486000BF00BF56
:10321000E148007818BBE148007804281FD1E04855
:103220000078032190FBF1F201FB1200022816D175
:10323000D748007890FBF1F201FB120010B1012891
:103240000CD105E0D3480068401CD249086005E075
:10325000D0480068401ECF49086000BF00BFCE487C
:10326000007888B9CD48007804280DD1C848007886
:10327000032190FBF1F201FB1200022804D1C8489F
:103280000078401CC6490870C348007810BBC3488A
:10329000007805281ED1C2480078032190FBF1F286
:1032A00001FB1200B0B9BA48007890FBF1F201FBC3
:1032B000120010B101280CD105E0B6484069401C4D
:1032C000B449486105E0B3484069401EB1494861CE
:1032D00000BF00BFB048007818BBB0480078052890
:1032E0001FD1AF480078032190FBF1F201FB1200DF
:1032F000012816D1A648007890FBF1F201FB1200DC
:1033000010B101280CD105E0A2480069401CA14978
:10331000086105E09F480069401E9E49086100BFA2
:1033200000BF9D48007818BB9C48007805281FD135
:103330009B480078032190FBF1F201FB1200022868
:1033400016D19348007890FBF1F201FB120010B106
:1033500001280CD105E08F48C068401C8D49C86029
:1033600005E08C48C068401E8A49C86000BF00BFA5
:103370008948007888B98948007805280DD18448A3
:103380000078032190FBF1F201FB1200022804D126
:1033900083480078401C824908707F490978A9B9A0
:1033A0007E490978062911D17949087800EBD07156
:1033B0004910A0EB410149B97A48007818B90120B9
:1033C0007849087002E0002076490870724909784F
:1033D000C9B972490978062915D16D49087800EBF9
:1033E000D0714910A0EB410101290CD16B48007844
:1033F0006D49087001206849087007206749087006
:103400000020634908706448007810BB6348007866
:1034100007281ED162480078032190FBF1F201FBDE
:103420001200B0B95A48007890FBF1F201FB12008B
:1034300010B101280CD105E05C488068401C5B4954
:10344000886005E059488068401E5849886000BF80
:1034500000BF5148007818BB5048007807281FD19A
:103460004F480078032190FBF1F201FB1200012884
:1034700016D14748007890FBF1F201FB120010B121
:1034800001280CD105E049484068401C4749486084
:1034900005E046484068401E4449486000BF00BF00
:1034A0003D48007818BB3D48007807281FD13C48AC
:1034B0000078032190FBF1F201FB1200022816D1E3
:1034C0003348007890FBF1F201FB120010B10128A3
:1034D0000CD105E035480068401C3449086005E01F
:1034E00032480068401E3149086000BF00BF2A48CA
:1034F000007888B92948007807280DD12448007839
:10350000032190FBF1F201FB1200022804D12448B0
:103510000078401C224908701F490978C1B91F4929
:103520000978082914D11A49087800EBD07149109C
:10353000A0EB410161B90120174908701C480078CF
:1035400018B901201A49087002E0002018490870D3
:1035500011490978C1B911490978082914D10C49D0
:10356000087800EBD0714910A0EB410101290BD183
:103570000120094908700020054908700D4988603C
:10358000486008600A49087000200349087013E089
:103590002C00002050000020A90000202A0000205C
:1035A000AA000020280000202B0000206C00002032
:1035B00029000020880000208020FDF707F84FF444
:1035C0008070FCF7F8FFE8B3C82001F089FF00BF66
:1035D0004FF480713E48FDF70AF90028F8D03DA06D
:1035E00003F022FA01F0C0FA3B480078042803D027
:1035F00039480078052820D13748007804280AD1B6
:1036000036488068364988603448406848603348A6
:103610000068086009E031484069314948612F4835
:10362000006908612D48C068C8602D4800F0CDFCD5
:103630004AF2A5510420FCF720FF27480078032810
:1036400004D100E01DE002202649087022480078DD
:10365000062804D102202349087000F0F4FD1E481A
:103660000078022802D100201E4908701D48007809
:103670001949087000201C4908704FF48070FCF74D
:10368000A5FF4FF40070FCF796FFD0B1C82001F001
:1036900027FF00BF4FF400710D48FDF7A8F8002880
:1036A000F8D0684600F0DCFC684600F08EFC4AF278
:1036B000A5510420FCF7E1FE4FF40070FCF786FFF3
:1036C00000BF0548007800F003FE07B000BD000011
:1036D00000100140330000002A00002050000020AC
:1036E000340000202B0000202C00002002460E2A6F
:1036F00070D2DFE802F086071019222B353F4953BC
:103700005D67727CF748405C00F0080008B9002053
:1037100070470120FCE7F348405C00F0040008B962
:103720000020F5E70120F3E7EE48405C00F00200DE
:1037300008B90020ECE70120EAE7EA48405C00F025
:10374000010008B90020E3E70120E1E7E54B481C50
:10375000185C00F0800008B90020D9E70120D7E705
:10376000E04B481C185C00F0400008B90020CFE78F
:103770000120CDE7DB4B481C185C00F0200008B9A5
:103780000020C5E70120C3E7D64B481C185C00F0B9
:10379000100008B90020BBE70120B9E7D14B481C55
:1037A000185C00F0080008B90020B1E70120AFE77D
:1037B000CC4B481C185C00F0040008B90020A7E7B7
:1037C0000120A5E7C74B481C185C00F0020010B9A7
:1037D00000209DE715E001209AE7C24B481C185CC9
:1037E00000F0010008B9002092E7012090E7BD4BEE
:1037F000881C185C00F0800008B9002088E70120D0
:1038000086E7002084E72DE9FF4F83B00C461F4672
:103810006421039890FBF1F0C0B20190039890FBF3
:10382000F1F201FB1200C5B20198132806D00198ED
:10383000142803D0002007B0BDE8F08F01981428A9
:1038400006D105F1630000EB40001FFA80F904E0A7
:10385000681E00EB40001FFA80F9A24909F102003E
:10386000085C00F0600A4FEA6A1A09F10200085C7D
:1038700000F01F0BBAF1010F04D1ABF1010000F011
:10388000FF0803E00BF11E0000F0FF080A2C07DA26
:10389000601E9549095C05980844401E86B208E000
:1038A000A4F10A00914931F8101005980844401E0F
:1038B00086B2022C08DDE91705EB91718910A5EBA2
:1038C000810109B9701C86B246453EDBA6EB0800B3
:1038D00086B20124012002900020009049460298FF
:1038E000FFF704FF10B94FF01D0A01E04FF01E0A68
:1038F0007C4911F80900C11700EB11714FEA211B37
:103900001DE0A6EB0A0086B20298401CC0B20290ED
:103910005C4508D10098C043C0B20090009820B91F
:10392000601CC4B201E0601CC4B249460298FFF7B3
:10393000DDFE10B94FF01D0A01E04FF01E0A56459A
:10394000DFDA701CC0B205904FE0A8EB060000F073
:10395000FF081DB963251320019001E0681EC5B260
:10396000A9F103001FFA80F90C245E4911F809003F
:10397000C11700EB11714FEA211BBBF1000F02D1FF
:103980000C20029001E00D2002900020009049469A
:103990000298FFF7ABFE10B94FF01D0A01E04FF09F
:1039A0001E0A1BE0A8EB0A0000F0FF080298401E68
:1039B000C0B20290009808B9601EC4B25C4503D141
:1039C0000098C043C0B2009049460298FFF78EFEAF
:1039D00010B94FF01D0A01E04FF01E0AD045E1DC9E
:1039E000AAEB0800401CC0B20590019807F8010B33
:1039F00007F8015B07F8014B0598387001201AE7BA
:103A000010B50A46B0F5F86F09DBA0F5F86398B277
:103A10003C2390FBF3F403FB1403D9B20AE0C0F596
:103A2000F86398B23C2390FBF3F403FB1403C3F157
:103A30003C03D9B2117010BD10B5002305E011F898
:103A4000014B00F8014B5C1CA3B29342F7DB10BDA5
:103A50002DE9FC4105460E4617461C460F2224A1BF
:103A60002046FFF7E9FF01AB3A4631462846FFF70B
:103A7000CAFE08B9BDE8FC819DF805209DF8041038
:103A800001EBC10303EB011102EB81006946FFF773
:103A9000B7FF9DF800000A2190FBF1F201FB120034
:103AA000174951F82080022241462046FFF7C4FF03
:103AB0009DF800000C2190FBF1F201FB120011496E
:103AC00051F8208002224146A01CFFF7B5FF9DF867
:103AD000060001281AD102220BA1A01DFFF7ACFF9E
:103AE0001EE00000047400080A770008147700083C
:103AF000BCD7D7D3C4EAD5FDD4C2B3F5D2BB00003E
:103B00000C01002034010020D5FD00009DF80600C6
:103B1000401E8C4A52F820100222A01DFFF78CFF95
:103B20009DF807000A280EDD9DF807000A2190FB8A
:103B3000F1F0854951F820800222414604F10A0043
:103B4000FFF77AFF05E0022280A104F10A00FFF7E7
:103B500073FF9DF80700401E0A2190FBF1F201FB64
:103B60001200784951F820800222414604F10C00ED
:103B7000FFF762FF00BF7DE72DE9F04104460D46E7
:103B8000B4F5FA6F03DB40F60200844202DD002048
:103B9000BDE8F0810DB10C2D01DD0020F8E7681EB5
:103BA0004006010E0F2A01DB481CC1B208464FEA4D
:103BB000E17C01EB5C7C4FEAEC08A4F5FA6C0CEBC1
:103BC0004C0CC444DFF8888118F80C604FEAE17CA3
:103BD00001EB5C7C4FEAEC0CA1EBCC0C06FA0CFC84
:103BE0000CF080075B48405C187097B1012905D044
:103BF0000B2903D0122901D0152907D140F2FC70FE
:103C0000844203DA1878401C187002E01878401ECD
:103C100018700120BCE72DE9F84305468846144694
:103C20001E466B46224641462846FFF7A5FF10B9BF
:103C30000020BDE8F883A8F101004006070E0F2C14
:103C400001DB781CC7B29DF80000844208D14248CD
:103C500050F8271005223046FFF7EEFE0120E8E776
:103C60000F223EA13046FFF7E7FE9DF80000844298
:103C70000BDA394850F827100422B01CFFF7DCFE9D
:103C80009DF80000001BC4B24DE0781C172801DD30
:103C90000020CEE7304A781C52F820100422B01CD5
:103CA000FFF7CAFE0F2C0ADA6B460F224146284660
:103CB000FFF762FF9DF80000001BC4B233E0A8F1DB
:103CC00001002A4911F80090B8F1020F17D1E91745
:103CD00005EB91718910A5EB810181B9642195FBF8
:103CE000F1F201FB125131B94FF4C87195FBF1F2B9
:103CF00001FB125119B909F1010000F0FF0908F1A7
:103D00000100C0B280460D2801D14FF001086B467A
:103D1000012241462846FFF72FFFA9EB04009DF83A
:103D200000100844C4B20A2094FBF0F03030B072A6
:103D30000A2094FBF0F100FB11403030F0720120BA
:103D400077E700006401002094010020B3F5000033
:103D500059760008F2760008AC000020C0EBC1A242
:103D6000B6ACBBB9D3D03F3FCCEC000026770008FF
:103D7000F0B58DB004463022704901A802F0C8F8B1
:103D80006069451E642195FBF1F12846EA1705EBB1
:103D90009272C1EBA2014FF4C87295FBF2F28F1838
:103DA0006069C11700EB91718910A0EB810191B995
:103DB0006422616991FBF2F302FB131131B99200A5
:103DC000616991FBF2F302FB131121B92169022908
:103DD00001DD012600E0002640F26D1005FB0071B8
:103DE0002069401E01AA52F820000844E1680844F6
:103DF0000644072096FBF0F100FB1160A0610DB0B6
:103E0000F0BD10B501460869801E0861002805DC78
:103E100008690C3008614869401E4861642348699C
:103E200090FBF3F04A69D31702EB9373C0EBA30046
:103E30004FF4C87492FBF4F3034440F26F14086922
:103E400060430C2490FBF4F01844CB68034440F228
:103E50006D1402FB04303A4BC01A00EB40008B6833
:103E600003EBC000C0EB00104B6803EB8000C0EB1D
:103E700000100B6803EB800010BD2DE9F0410746F0
:103E80000C463048B7FBF0F6B7FBF0F100FB1178B9
:103E90004FF4616098FBF0F0A0604FF4616098FB14
:103EA000F0F100FB11803C2190FBF1F060604FF4D9
:103EB000616098FBF0F100FB11803C2190FBF1F276
:103EC00001FB1200206040F2B27509E005F003002A
:103ED00010B94FF4B77001E040F26D10361A6D1C46
:103EE00005F0030010B94FF4B77001E040F26D1017
:103EF000B042EBDD65616069C11700EB917189101B
:103F0000A0EB810111B91D200F494860012505E092
:103F1000681E0D4951F82000361A6D1C681E0A49AA
:103F200051F82000B042F3DD1C2048602561701C70
:103F3000E0602046FFF71CFFBDE8F0813477000801
:103F40008BFA0A0080510100A401002008B54FF44B
:103F5000C060FCF7FBF903208DF8000001208DF80C
:103F600001008DF802008DF803006846FCF7F3F9B4
:103F700008BD10B501214FF0C050FDF7D6F8012063
:103F8000FCF7FDFEFCF750FA0120FDF72EF800BF0C
:103F90004120FCF792FF0028FAD04FF48070FDF723
:103FA00040F80120FDF743F8FDF77BF9FDF770F9C4
:103FB00001210846FDF710F9FDF76AF947F6FF7091
:103FC000FDF740F9FDF764F910BD70B50446FFF741
:103FD000D0FFFDF75DF92046FFF7CAFE2046FFF748
:103FE00010FFA0F5E1452846FDF71FF9FDF750F950
:103FF00070BD10B504460420FCF74BFA4AF2A551F7
:10400000884208D02046FFF7E0FF4AF2A55104207D
:10401000FCF733FA21E001214FF0C050FDF785F89D
:104020000120FCF7ACFE7B20FCF747FF18B1E5A0B0
:1040300002F0FAFC06E07A20FCF73FFF10B1EAA09C
:1040400002F0F2FCF1A002F0EFFCFDF72AF90121E9
:104050000846FDF7C1F8FDF71BF9FDF797F810BD0D
:1040600038B50446002000900025F0A002F0DCFCEA
:1040700000BFFC4802F0D8FC6946FBA001F06CFFD1
:1040800040F2B2710098884204D340F2F671009871
:10409000884204D9F5A0009902F0C6FC06E0FCA015
:1040A000009902F0C1FC0098606100E0E1E700BF08
:1040B00000BFFD4802F0B8FC6946EBA001F04CFFE0
:1040C000009810B100980C2804D9E8A0009902F0DB
:1040D000ABFC06E0F5A0009902F0A6FC0098206178
:1040E00000E0E6E700BF20690D2832D2DFE800F0EB
:1040F000310714080F09100A0B110C120D0000BF34
:1041000000BF00BF00BF00BF00BF1F2521E000BFF0
:1041100000BF00BF1E251CE06069C11700EB917154
:104120008910A0EB810191B96422616991FBF2F3DE
:1041300002FB131131B99200616991FBF2F302FBAA
:10414000131121B92169022901DD1D2500E01C257B
:1041500000BF00BF00BF2946DA4802F065FC69468F
:10416000C1A001F0F9FE009810B10098A84204D94E
:10417000BEA0009902F058FC06E0D3A0009902F01E
:1041800053FC0098E06000E0E5E700BF00BFD448C2
:1041900002F04AFC6946B4A001F0DEFE0098172840
:1041A00004D9B2A0009902F03FFC06E0CDA000992E
:1041B00002F03AFC0098A06000E0E8E700BF00BF12
:1041C000CE4802F031FC6946A7A001F0C5FE009878
:1041D0003B2804D9A5A0009902F026FC06E0C8A05F
:1041E000009902F021FC0098606000E0E8E700BF61
:1041F00000BFC94802F018FC69469BA001F0ACFE64
:1042000000983B2804D999A0009902F00DFC06E023
:10421000C2A0009902F008FC0098206000E0E8E7E6
:1042200000BF38BD10B50820FCF733F90446201252
:10423000C049886004F00F0048600C20FCF729F9A1
:10424000BD49087010BD10B5BA48007900F00F00E4
:10425000B84A127A40EA022081B20820FCF70DF930
:10426000B54801780C20FCF708F910BD70B5B4B062
:1042700005460C4605F5E14621463046FFF7FDFDB3
:10428000A06818B9606808B9206810B1AB48006828
:1042900048B1227B217CA38A98B202ABFFF7B3FA24
:1042A0000020A6490860E0680090A5A1A948D4E9CB
:1042B000043202F0C9FB0020A64908732068009070
:1042C000A5A1AA48D4E9013202F0BEFB34B070BD0A
:1042D00038B50446002C43D101239E4A00211E20FC
:1042E00000F05DFCA24880680A2190FBF1F0C5B2A5
:1042F0002A460221002000F0ECFC9D4880680A213B
:1043000090FBF1F201FB1200C5B22A4602211A20ED
:1043100000F0DFFC0221382000F015FD94484068D1
:104320000A2190FBF1F0C5B22A4602214A2000F092
:10433000D0FC8F4840680A2190FBF1F201FB12008B
:10434000C5B22A460221642000F0C3FC89A20621DE
:10435000002000F0A3FD89A206215A2000F09EFD56
:10436000012C2ED1824B1A7B197C9B8A98B2854BEB
:10437000FFF76EFB834A0221002000F08FFD7C488E
:104380008069814951F8202080A1824802F05CFBBD
:10439000804A0421002000F081FD754840690C210D
:1043A00090FBF1F201FB1200C01E7B4951F8205036
:1043B0002A467AA17B4802F047FB7A4A0421502022
:1043C000F2E022E10D0A0D0A20506F776572204F4E
:1043D0006E205265736574206F63637572726564D5
:1043E0002E2E2E2E000000000D0A0D0A2045787496
:1043F00065726E616C205265736574206F636375BE
:10440000727265642E2E2E2E000000000D0A204EC2
:104410006F206E65656420746F20636F6E666967D8
:10442000757265205254432E2E2E2E000D0A3D3DEE
:104430003D3D3D3D3D3D3D3D3D3D3D3D3D3D3D3DAC
:104440003D3D3D3D3D3D3DC9E8D6C3CAB1BCE43D1F
:104450003D3D3D3D3D3D3D3D3D3D3D3D3D3D3D3D8C
:104460003D000000B8820008256400000D0A20C449
:10447000FACAE4C8EBB5C4CAFDD7D6CAC73A2564A0
:10448000A3ACB2BBB7FBBACFD2AAC7F300000000FF
:104490000A0D2020C4EAB7DDB1BBC9E8D6C3CEAA55
:1044A0003A2025640A0D0000308200080A0D202001
:1044B000D4C2B7DDB1BBC9E8D6C3CEAA3A202564C1
:1044C0000A0D0000888300080A0D2020C8D5C6DA2E
:1044D000B1BBC9E8D6C3CEAA3A2025640A0D0000B4
:1044E000748200080A0D2020CAB1D6D3B1BBC9E836
:1044F000D6C3CEAA3A2025640A0D000044830008E2
:104500000A0D2020B7D6D6D3B1BBC9E8D6C3CEAAF0
:104510003A2025640A0D0000008300080A0D2020BF
:10452000C3EBD6D3B1BBC9E8D6C3CEAA3A20256423
:104530000A0D00006C00002028000020200200204E
:1045400025302E34642D25302E32642D25302E3228
:1045500064000000E409002025302E32643A253042
:104560002E32643A25302E3264000000F309002018
:1045700034000020B2CBB5A500000000C5A9C0FAE8
:1045800000000000020A0020D4010020D0C7C6DAD3
:1045900025730000340A0020F00100202573C4EACE
:1045A00000000000660A002000F078FC89A20021CB
:1045B000084600F073FC88484378027887A18B484E
:1045C00002F042FA0123894A0021102000F0E7FAA4
:1045D00087A200213C2000F061FC7F48C3788278EC
:1045E0007EA1824802F030FA0123804A00214C204B
:1045F00000F0D5FAAFF284020621002000F04EFC54
:104600007CA206215A2000F049FC022C13D17BA287
:104610000021084600F042FC7AA20221002000F0AE
:104620003DFC7AA20421002000F038FC79A206218A
:10463000002000F033FC032C09D179A200210846A8
:1046400000F02CFC79A20221002000F027FC042CB1
:1046500021D179480068009077484368AFF208118B
:104660008268764802F0F0F90123744A032123207E
:1046700000F095FA012372A20721002000F08FFAC2
:10468000012370A20721282000F089FA6EA20621DA
:10469000462000F003FC052C21D16748C06800903B
:1046A00065480369AFF268114269694802F0CCF9C4
:1046B0000123674A00211E2000F071FA012360A245
:1046C0000721002000F06BFA01235EA207212820B9
:1046D00000F065FA5CA20621462000F0DFFB062C04
:1046E00024D15C48006800905A484368AFF29811A2
:1046F0008268594802F0A8F90123574A0321232070
:1047000000F04DFA55A20621462000F0C7FB55489F
:104710000078012805D154A20621002000F0BEFB3C
:1047200004E052A20621002000F0B8FB072C21D1A2
:1047300048480068009047484368AFF2E411826837
:10474000454802F081F90123434A0321232000F068
:1047500026FA01233AA20721002000F020FA0123C3
:1047600038A20721282000F01AFA37A20621462095
:1047700000F094FB082C23D13D48006800903C4891
:104780004368AFF22C2182683A4802F05DF90123B8
:10479000384A0321232000F002FA3748007828B96C
:1047A00031A20621002000F079FB04E033A20621AB
:1047B000002000F073FB32A20621462000F06EFBC1
:1047C000092C05D1304B1A685968986800F01DFD16
:1047D00038BD0000CAAA0000A40000203A25302EEF
:1047E00032642E25302E326400000000D40A0020EE
:1047F000CEC20000B9ABC0FA00000000D0A3D7BC05
:1048000000000000C4D6D6D300000000BCC6CAB168
:10481000C6F70000CDBCD0CECAB1D6D30000000090
:10482000CAB1BCE4D0A3D7BC00000000C8D5C6DA2A
:10483000D0A3D7BC0000000050000020980A002040
:104840002B0000002D000000CFC2D2BBB8F6000044
:10485000A70A00206C000020B60A0020C9E8D6C3D1
:104860000000000028000020BFAA0000B9D8000006
:1048700088000020C50A002029000020CDA30000E8
:10488000B8B4CEBB000000003400002000B585B0F5
:1048900001210420FCF73CFC01218803FCF738FCD3
:1048A0004FF40070ADF8100018208DF813000320AD
:1048B0008DF8120004A92248FBF706FF4FF4806030
:1048C000ADF8100004208DF8130004A91C48FBF774
:1048D000FBFE4FF4E13000900020ADF80400ADF88D
:1048E0000600ADF80800ADF80C000C20ADF80A0089
:1048F00069461448FDF7EBFD01211248FDF773FEF0
:1049000005B000BD70B504460D46E1B20D48FDF797
:10491000D7FE00BF80210B48FDF740FF0028F9D0EB
:10492000204670BD10B5044600BF20210548FDF7A4
:1049300035FF0028F9D00348FDF7C6FE10BD000082
:10494000000801400038014000B585B0012148054C
:10495000FCF7EBFB01210820FCF7DAFB4020ADF867
:10496000000003208DF802001C208DF8030069462A
:10497000FB48FBF7A9FE8020ADF800006946F84827
:10498000FBF7A2FE0020ADF808004BF6FF70ADF873
:104990000A007820ADF80C004FF48060ADF80E00EE
:1049A0000001ADF81000EF48019001A9EE48FBF7B7
:1049B000F2FF0121EC48FCF76CF805B000BD70B5C2
:1049C00004460D4600BF4FF40031E748FCF788F974
:1049D0000028F8D10121E448FCF77FF800BFE34943
:1049E000E148FCF75BF90028F9D000227821DE4885
:1049F000FCF7C9F800BFDE49DB48FCF74FF9002897
:104A0000F9D02146D848FCF7B8F800BFD849891C2E
:104A1000D548FCF743F90028F8D02946D248FCF7DE
:104A2000ACF800BFD249891CCF48FCF737F9002801
:104A3000F8D00121CC48FCF75CF870BD10B50446F5
:104A400021460020FFF7BBFF10BD10B504462146EC
:104A50004020FFF7B4FF10BD10B5012000F05BFD52
:104A6000AE20FFF7EBFF2020FFF7E8FF1020FFF755
:104A7000E5FFB020FFF7E2FFC820FFF7DFFF0020CF
:104A8000FFF7DCFF1020FFF7D9FF4020FFF7D6FF2C
:104A90008120FFF7D3FFFF20FFF7D0FFA120FFF712
:104AA000CDFFA620FFF7CAFFA820FFF7C7FF3F20D2
:104AB000FFF7C4FFA420FFF7C1FFD320FFF7BEFF1D
:104AC0000020FFF7BBFFD520FFF7B8FFF020FFF76E
:104AD000B5FFD920FFF7B2FF2220FFF7AFFFDA20A2
:104AE000FFF7ACFF1220FFF7A9FFDB20FFF7A6FFBF
:104AF0002020FFF7A3FF8D20FFF7A0FF1420FFF772
:104B00009DFFAF20FFF79AFF10BD70B504460D461C
:104B100005F1B001C8B2FFF791FF102141EA14106E
:104B2000FFF78CFF04F00F00FFF788FF70BD70B532
:104B30000646002415E004F1B001C8B2FFF77EFF7D
:104B40000020FFF77BFF1020FFF778FF002504E02F
:104B50003046FFF77AFF681CC5B2802DF8DB601C79
:104B6000C4B2082CE7DB70BD10B50020FFF7DFFFF3
:104B700010BD10B58D20FFF761FF1420FFF75EFF19
:104B8000AF20FFF75BFF10BD10B58D20FFF756FF7C
:104B90001020FFF753FFAE20FFF750FF10BD2DE9A7
:104BA000F0470646894617469A464FF0000800240B
:104BB0000025BAF1010F03D0BAF1020F5ED125E052
:104BC00020E0785D203800F0FF087E2E04DD00260E
:104BD00009F1010000F0FF0949463046FFF795FF53
:104BE000002409E008EB4801624A02EB4101085D3C
:104BF000FFF72BFF601CC4B2062CF3DBB01DC6B25E
:104C0000681CC5B2785D0028DBD137E032E0785D02
:104C1000203800F0FF08782E04DD002609F101009D
:104C200000F0FF0949463046FFF76FFF002407E018
:104C300004EB0811504A505CFFF707FF601CC4B238
:104C4000082CF5DB09F10100C1B23046FFF75DFF2A
:104C5000002408E004EB08110831474A505CFFF7D4
:104C6000F4FE601CC4B2082CF4DB06F10800C6B2E6
:104C7000681CC5B2785D0028C9D100BF00BFBDE87F
:104C8000F0872DE9F04180460E46174600247D014D
:104C900031464046FFF739FF00BF06E03749485D1F
:104CA000FFF7D3FE6D1C601CC4B2102CF6DB701C29
:104CB000C1B24046FFF729FF002406E02F49485DB6
:104CC000FFF7C3FE6D1C601CC4B2102CF6DBBDE800
:104CD000F0812DE9F04180460E46174600BF07EBF4
:104CE000C700C50031464046FFF70FFF002406E02D
:104CF0002349485DFFF7A9FE6D1C601CC4B2182C47
:104D0000F6DB701CC1B24046FFF7FFFE002406E050
:104D10001B49485DFFF799FE6D1C601CC4B2182C3E
:104D2000F6DBB01CC1B24046FFF7EFFE002406E000
:104D30001349485DFFF789FE6D1C601CC4B2182C36
:104D4000F6DBBDE8F0812DE9F04107460E46002470
:104D5000002531463846FFF7D8FE00BF19E00000B5
:104D6000000C0140801A06000054004001000300BE
:104D700082000700647700088C7900082402002074
:104D8000C8020020FE49485DFFF75FFE6D1C601CF5
:104D9000C4B20C2CF6DB701CC1B23846FFF7B5FE6E
:104DA000002406E0F649485DFFF74FFE6D1C601CCD
:104DB000C4B20C2CF6DBB01CC1B23846FFF7A5FE1E
:104DC000002406E0EE49485DFFF73FFE6D1C601CC5
:104DD000C4B20C2CF6DBBDE8F0812DE9F0410746AA
:104DE0000D460024002629463846FFF78EFE00BFF8
:104DF00005E00020FFF729FE761C601CC4B20C2CD5
:104E0000F7DB681CC1B23846FFF77FFE002405E0DF
:104E10000020FFF71AFE761C601CC4B20C2CF7DBD6
:104E2000A81CC1B23846FFF770FE002405E0002040
:104E3000FFF70BFE761C601CC4B20C2CF7DBBDE840
:104E4000F081F0B589B005460E4617460024394674
:104E500001A800F06FFDF1B2E8B2FFF756FE00BF07
:104E600006E001A911F81400FFF7EFFD601CC4B2C1
:104E7000102CF6DB721CD1B2E8B2FFF746FE00241C
:104E800008E0012101EB440101AA505CFFF7DDFDC0
:104E9000601CC4B2102CF4DB09B0F0BD2DE9F04168
:104EA00006460F4614460DE02588280200EB252013
:104EB00085B22A4639463046FFF7C3FF06F1100097
:104EC00086B2A41C20780028EED1BDE8F0812DE93F
:104ED000F05F06460F4690461C46DDF828A04FF0CE
:104EE000000BE11704EB5171C910A4EBC10131B9FA
:104EF0002046E11704EB5171C1F3C70506E02046D7
:104F0000E11704EB5171C910491CCDB23D4614E0C4
:104F100029463046FFF7F9FDB1460AE059460BF144
:104F2000010B1AF80100FFF790FD09F1010000F0F4
:104F3000FF09C145F2DB681CC5B2A542E8DBBDE84C
:104F4000F09FF0B5034614467F2B01DC3F2900DDBE
:104F5000F0BDDCB1CD1701EB5575ED10894E06EBB8
:104F6000C515ED5C0A46CE1701EB5676F610A1EB9F
:104F7000C6070126BE4035430846CE1701EB5676DC
:104F8000F610804F07EBC616F5541AE0CD1701EB6B
:104F90005575ED107B4E06EBC515ED5C0A46CE1738
:104FA00001EB5676F610A1EBC6070126BE40B543CD
:104FB0000846CE1701EB5676F610724F07EBC61671
:104FC000F55400BFC4E710B5044622464FF4806193
:104FD0006C4800F0AFFF10BD2DE9FF4F83B0814654
:104FE0004FF0000AD3460598A0EB090504990698EE
:104FF000461A1FFA89F00190049880B20090002DA3
:1050000001DD012705E00DB9002702E04FF0FF3771
:105010006D42002E02DD4FF0010806E016B94FF098
:10502000000802E04FF0FF387642B54201DD2C4621
:1050300000E03446002002901AE00122DDE9001071
:10504000FFF77FFFAA44B344A24505DDAAEB040A9B
:105050000198384480B20190A34505DDABEB040B09
:105060000098404480B200900298401C80B20290A8
:10507000611C02988842E0DD07B0BDE8F08F2DE9A1
:10508000F04306460F46904600240FFA88F50320A9
:10509000A0EB48000FFA80F93AE0791930190122A3
:1050A000FFF74FFF7919301B0122FFF74AFF39192B
:1050B000701B0122FFF745FF391B701B0122FFF710
:1050C00040FF791B301B0122FFF73BFF791B301992
:1050D0000122FFF736FF391B70190122FFF731FF5C
:1050E000391970190122FFF72CFF601C04B2B9F1C5
:1050F000000F05DAA000801D48440FFA80F907E090
:10510000601B80000A3048440FFA80F9681E05B21F
:10511000AC42C2DDBDE8F083F0B504460D4616464C
:105120001F462B46324629462046FFF755FF3B4691
:10513000324639462046FFF74FFF3B462246294676
:105140002046FFF749FF3B46324629463046FFF7E7
:1051500043FFF0BD70B505462E46B020FFF76EFC4C
:105160000020FFF76BFC1020FFF768FC00BF4FF436
:1051700000310548FBF7B4FD0028F8D1012105E016
:10518000A4020020E80A002000540040B948FBF7C0
:10519000A4FC00BFB849B748FBF780FD0028F9D050
:1051A00000227821B348FBF7EEFC00BFB349B148B9
:1051B000FBF774FD0028F9D04021AE48FBF7DDFC79
:1051C00000BFAE49891CAB48FBF768FD0028F8D04A
:1051D00000240DE016F8011BA648FBF7CEFC00BF2B
:1051E000A649891CA348FBF759FD0028F8D0641C88
:1051F000B4F5806FEED301219E48FBF77AFC70BDB9
:1052000010B59F48FFF7A6FF10BD2DE9F04F8FB0F6
:1052100005460E4691463F200E904FF0240A1B246F
:10522000224651460E98FFF72AFF0C2095FBF0F11D
:1052300000FB115B584601F05EF80746914A924B1D
:1052400000F0E7FFCDE9000102F03EF8CDE90401EE
:10525000A4F10A0001F04FF8CDE90201DDE90423D1
:1052600000F0D7FFCDE90801504601F044F8CDE940
:105270000601DDE9082300F0C6FFCDE90A0101F0CF
:105280004BF80D900C2095FBF0F100FB115B58469C
:1052900001F031F87B4A7C4BCDE9000100F0B9FF09
:1052A000CDE9020102F05EF8CDE90401A4F10A00A3
:1052B00001F021F80746DDE9042300F0AAFFCDE95B
:1052C00008010E9801F017F8CDE90601DDE9082381
:1052D00000F0F8FECDE90A0101F01EF80C9002463C
:1052E0005146DDE90D30FFF777FE3C2096FBF0F1EB
:1052F00000FB116B584600F0FEFF0746634A644B03
:1053000000F087FFCDE9000101F0DEFFCDE90401E7
:10531000601F00F0F0FFCDE90201DDE9042300F099
:1053200078FFCDE90801504600F0E5FFCDE9060120
:10533000DDE9082300F067FFCDE90A0100F0ECFF8A
:105340000D903C2096FBF0F100FB116B584600F0ED
:10535000D2FF4E4A4E4BCDE9000100F05AFFCDE995
:10536000020101F0FFFF07468846601F00F0C3FFFF
:105370003A464346CDE9040100F04BFFCDE9080170
:105380000E9800F0B8FFCDE90601DDE9082300F032
:1053900099FECDE90A0100F0BFFF0C90024651468C
:1053A000DDE90D30FFF718FE3C2099FBF0F100FB22
:1053B000119B584600F09FFF344A354BCDE9000160
:1053C00000F027FFCDE9020101F07EFFCDE90401E5
:1053D000204600F090FF0746DDE9042300F019FFA6
:1053E000CDE90801504600F086FFCDE90601DDE970
:1053F000082300F008FFCDE90A0100F08DFF0D90B1
:105400003C2099FBF0F100FB119B584600F073FF24
:105410001E4A1F4BCDE9000100F0FBFE074601F0DC
:10542000A1FFCDE90401204600F065FFCDE90201AE
:10543000DDE9042300F0EDFECDE908010E9800F04F
:105440005AFFCDE90601DDE9082300F03BFECDE976
:105450000A0100F061FF0C9002465146DDE90D3073
:10546000FFF7BAFDFFF7CCFE0020FFF7ACFD0FB051
:10547000BDE8F08F005400400100030082000700E7
:10548000E80A0020D8642B3852C1E03F5AA178F3D3
:10549000E9CEBA3F30B50146B1F1807F01D301209A
:1054A00030BD21F07F40401E4FF0E0225061501788
:1054B0000F22002807DA13071D0E2A4B00F00F04F5
:1054C000241F1D5503E013071C0E274B1C5400BF5F
:1054D00000204FF0E0229061072010610020DFE7FC
:1054E00070B504462148FFF7D5FF002508E000BF4E
:1054F0004FF0E020006900F480300028F8D06D1CE7
:10550000A542F4D34FF0E020006920F001004FF0F5
:10551000E021086170BD70B50446002504E04FF439
:105520007A70FFF7DDFF641EA542F8D370BD70B539
:1055300004464820FFF7AEFF002508E000BF4FF00B
:10554000E020006900F480300028F8D06D1CA542EE
:10555000F4D34FF0E020006920F001004FF0E0218B
:10556000086170BD18ED00E000E400E040190100A2
:1055700008B54FF4C060FAF7E9FE17208DF8000077
:1055800001208DF8010000208DF8020001208DF827
:1055900003006846FAF7DFFE08BD0EB5FFF7E8FF27
:1055A00001211820FBF7B4FD01210846FBF7B0FDEF
:1055B0004020ADF8080048208DF80B0002A92C48C7
:1055C000FBF782F806210220FBF794F940200090B7
:1055D00000208DF804000C208DF8050001208DF8C6
:1055E00006006846FAF790FF8020ADF8080002A98F
:1055F0001F48FBF769F807210220FBF77BF98020A1
:1056000000906846FAF780FF4FF48070ADF808000C
:1056100002A91748FBF758F808210220FBF76AF99E
:105620004FF4807000906846FAF76EFF4FF40070F8
:10563000ADF8080002A90E48FBF746F80921022040
:10564000FBF758F94FF4007000906846FAF75CFFDA
:1056500010208DF80B008001ADF8080002A9044865
:10566000FBF732F84FF480610148FBF7DCF80EBD20
:105670000010014008B54FF4C060FAF767FE36200D
:105680008DF8000001208DF8010003208DF8020044
:1056900001208DF803006846FAF75DFE08BD0EB5DF
:1056A00001211020FBF741FD42F20F70ADF804001C
:1056B00040F29F50ADF8000069460B48FCF78AF8AD
:1056C00001210948FCF7A8FE012211460648FCF713
:1056D000F8FB01210448FCF7D9FB0EBD10B5FFF71C
:1056E000C9FFFFF7DCFF10BD0010004008B5012125
:1056F0000420FBF70DFD10208DF803000001ADF82C
:10570000000003208DF8020069462E48FAF7DCFFFE
:105710004FF480712B48FBF786F808BD70B504463E
:10572000B4F57A7F13D02848B0FBF4F54FF48071BC
:105730002448FBF776F82846FFF7F9FE4FF480710E
:105740002048FBF770F82846FFF7F1FE03E04FF41E
:105750007A70FFF7C5FE70BD10B504464FF4807136
:105760001848FBF75EF82046FFF7BAFE4FF4807149
:105770001448FBF758F82046FFF7B2FE10BD10B5ED
:10578000002400BF06E0114931F8241088B2FFF769
:10579000E3FF641C0C2CF6DB10BD70B50024002563
:1057A00000BF0BE00B2406E0084931F8241088B252
:1057B000FFF7D2FF641E002CF6DA6D1C062DF1DB1C
:1057C00070BD00000008014020A1070098090020DA
:1057D00008B501214020FBF79BFC4020ADF80000FC
:1057E00010208DF8030003208DF802006946504810
:1057F000FAF76AFF08BD10B5FFF7EAFF40214C48F1
:10580000FBF70FF810BD08B54020ADF800004820A8
:105810008DF8030069464648FAF756FF08BD08B5FB
:105820004020ADF8000010208DF8030003208DF813
:10583000020069463E48FAF747FF08BD70B50025EB
:10584000002424E000BF40213948FAF7D0FF0028A7
:10585000F9D02820FFF76BFE40213548FAF7C7FF43
:1058600001280DD100BF40213148FAF7C0FF0128BF
:10587000F9D0C4F1070101208840C0B2054304E01B
:10588000C4F10701012088408543601CC4B2082C84
:10589000D8DB284670BD10B50446FFF7C0FF402195
:1058A0002348FAF7C0FF1220FFF71AFE40212048D4
:1058B000FAF7B7FF1E20FFF73AFEFFF7A4FF4021DB
:1058C0001B48FAF794FF70BB00BF40211848FAF755
:1058D0008EFF0028F9D000BF40211548FAF787FF56
:1058E0000128F9D0FFF7AAFF2070FFF7A7FF60702B
:1058F000FFF7A4FFA070FFF7A1FFE070FFF79EFF86
:105900002071FFF78CFF40210948FAF78AFF2078C1
:1059100061780844A1780844E178084421798842F4
:1059200002D1012010BD01E00020FBE70020F9E7D3
:10593000001801402DE9F04180460C4612480078DD
:1059400020B900F027F801200F4908700F481049CE
:1059500008602512E6B2A5F1A101C1EB011202EB2C
:10596000411106EB4101A1390802C11700EB517149
:10597000CF1007480068C1192022404600F0B8F94E
:105980000020BDE8F0810000C809002000301800A8
:10599000CC09002000B587B001210803FBF7B8FB54
:1059A0000121D420FBF7B4FB0120ADF80400032053
:1059B0008DF8060010208DF8070001A9FE48FAF7BF
:1059C00083FE2020ADF8040018208DF8070001A9FF
:1059D000FA48FAF779FE4020ADF8040001A9F7482B
:1059E000FAF772FE8020ADF8040001A9F348FAF737
:1059F0006BFE0121F048FAF714FF0020ADF8080013
:105A00004FF48270ADF80A000020ADF80C000220BF
:105A1000ADF80E000120ADF810004002ADF8120004
:105A20000820ADF814000020ADF816000720ADF8EE
:105A3000180002A9E248FBF799FC0121E048FBF7B6
:105A40003AFD07B000BD10B504462146DDA000F0C8
:105A5000EBFF002010BD10B504464FF48050E5491F
:105A600008600AE0E3490868411EE24A116020B973
:105A70000020FFF7E8FFC0B210BD0221D048FBF7BD
:105A80009EFD0028EED02146CD48FBF745FD4FF4A2
:105A90008050D84908600AE0D6490868411ED54AB6
:105AA000116020B90120FFF7CEFFC0B2E4E7012169
:105AB000C348FBF784FD0028EED0C148FBF72EFD5C
:105AC000C0B2D9E710B500240121BB48FAF7ABFEFC
:105AD0000520FFF7C0FF00BFFF20FFF7BCFF044613
