:020000040800F2
:10000000E80E002045010008A5280008A7280008E0
:10001000AB280008AF280008B32800080000000043
:10002000000000000000000000000000B7280008E9
:10003000B928000800000000BB280008BD280008FF
:100040005F0100085F0100085F010008BF28000889
:100050005F0100085F0100085F0100085F01000800
:100060005F0100085F0100085F0100085F010008F0
:100070005F0100085F0100085F0100085F010008E0
:100080005F0100085F0100085F0100085F010008D0
:100090005F0100085F0100085F010008752E00087D
:1000A0005F0100085F0100085F0100085F010008B0
:1000B0005F0100085F0100085F0100085F010008A0
:1000C0005F0100085F0100085F0100085F01000890
:1000D0005F0100085F0100085F0100085F01000880
:1000E0005F0100085F0100085F0100085F01000870
:1000F0005F0100085F0100085F0100085F01000860
:100100005F0100085F0100085F0100085F0100084F
:100110005F0100085F010008672900085F0100080F
:100120005F0100085F0100085F0100085F0100082F
:10013000DFF80CD005F058FD004800474D280008B6
:10014000E80E00200648804706480047FEE7FEE725
:10015000FEE7FEE7FEE7FEE7FEE7FEE7FEE7FEE777
:1001600047020008310100080CB500200190009002
:100170006C48006840F480306A49086000BF6948F4
:10018000006800F4003000900198401C0190009835
:1001900018B90198B0F5A06FF1D16248006800F479
:1001A000003010B10120009001E000200090009884
:1001B000012843D15C48006840F010005A490860AB
:1001C0000846006820F0030008600846006840F018
:1001D0000200086053484068524948600846406839
:1001E00048600846406840F48060486008464068BF
:1001F00020F47C1048600846406840F4E8104860ED
:100200000846006840F08070086000BF45480068FC
:1002100000F000700028F9D04248406820F0030048
:10022000404948600846406840F00200486000BF0E
:100230003C48406800F00C000828F9D10CBD10B50E
:10024000FFF792FF10BD10B53648006840F001007E
:1002500034490860084640683449084031494860DC
:1002600008460068324908402E4908600846006880
:1002700020F4802008600846406820F4FE004860B2
:100280004FF41F008860FFF7DAFF4FF00060294944
:10029000086010BD10B5002100200022214B5B68D2
:1002A00003F00C0121B1042906D0082928D107E068
:1002B000214B224C236027E01F4B204C236023E07E
:1002C000184B5B6803F47010164B5B6803F48032C4
:1002D000022303EB904022B9194B4343174C236090
:1002E0000DE0104B5B6803F4003323B1144B434320
:1002F000124C236003E0104B4343104C236003E097
:100300000D4B0E4C236000BF00BF064B5B68C3F370
:1003100003130C4CE15C094B1B68CB40074C23607A
:1003200010BD000000100240002002400000FFF855
:10033000FFFFF6FE08ED00E000127A00000000204A
:1003400000093D000400002031490143314A116099
:10035000704770B5002100230F22C47804B32D4CE0
:10036000246804F4E064C4F5E064210AC1F10403E4
:10037000CA40447804FA03F1847814402143090107
:10038000254C0678A155047804F01F050124AC40E3
:1003900005786D11AD0005F1E025C5F8004109E0D3
:1003A000047804F01F050124AC401C4D067876113A
:1003B00045F8264070BD1A4A0A400243154B1B1FE0
:1003C0001A60704739B1134A121D12680243114B6B
:1003D0001B1D1A6006E00F4A121D126882430D4B66
:1003E0001B1D1A607047042808D14FF0E0210969ED
:1003F00041F004014FF0E022116107E04FF0E021ED
:10040000096921F004014FF0E022116170470000FA
:100410000000FA050CED00E000E400E080E100E0FF
:1004200080FFFF1F10B5012000F0A4FE002000F0A7
:10043000A1FE10BD2A49086070472949091F0860BC
:100440007047274984310860704701460020254ADB
:1004500010884FF67F4210400843224A10807047B0
:10046000014600201F4A10884FF680721040084352
:100470001C4A1080704708B500220092194A2C3A95
:100480000092009A02440092009A116008BD08B5DB
:1004900001460020009013482C3800900098084432
:1004A00000900098008808BD0D489C300068C0B2DC
:1004B00070470C480830008840F0010009490831B5
:1004C000088070470648A0300068C0B270470548F1
:1004D0000830008840F00200024908310880704767
:1004E00004860D422C6C0040002044490860091D20
:1004F0000860091D0860091D086041483F49143122
:100500000860704700213D498279002A3AD00A46A6
:10051000126803689A430B461A600A1D1268036842
:100520009A430B1D1A60027911440A6803681A4342
:100530000A60324A0832126803689A432F4B083324
:100540001A601A1D126803689A432C4B0C331A6008
:100550004279102A0ED11A1F126803681A43274BDA
:1005600008331A601A1D126803681A43234B0C33B0
:100570001A600DE02149427911440A6803681A4360
:100580000A6005E0027911440A6803689A430A6028
:1005900070470021016001710C21417100218171BE
:1005A00070471649103109680143144A103211602E
:1005B000704701460020114A143212680A400AB1FD
:1005C000012000E0002070470C491431086070479A
:1005D000014600200022094B1B6803EA0102074B79
:1005E00014331B680B4013B10AB1012000E0002056
:1005F0007047024914310860704700000004014050
:10060000FFFF0F0010B50446CC48844208D10121F9
:10061000042000F095FD0021042000F091FD46E04B
:10062000C748844208D10121082000F089FD00213B
:10063000082000F085FD3AE0C248844208D101213B
:10064000102000F07DFD0021102000F079FD2EE04B
:10065000BD48844208D10121202000F071FD002115
:10066000202000F06DFD22E0B848844208D101212D
:10067000402000F065FD0021402000F061FD16E003
:10068000B348844208D10121802000F059FD0021A7
:10069000802000F055FD0AE0AE48844207D10121D8
:1006A000801500F04DFD0021A01500F049FD10BDA2
:1006B00010B50121084600F043FD0021012000F0A3
:1006C0003FFD10BD2DE9F041024600250026002027
:1006D00000230024002791F803C00CF00F0591F8C7
:1006E00003C00CF0100CBCF1000F03D091F802C055
:1006F0004CEA050591F800C0BCF1000F31D0146838
:1007000000202BE04FF0010C0CFA00F3B1F800C010
:100710000CEA03069E4220D183004FF00F0C0CFA26
:1007200003F7BC4305FA03FC4CEA040491F803C048
:10073000BCF1280F06D14FF0010C0CFA00FCC2F8F6
:1007400014C00AE091F803C0BCF1480F05D14FF086
:10075000010C0CFA00FCC2F810C0401C0828D1D3D0
:100760001460B1F800C0BCF1FF0F34DD5468002004
:100770002EE000F1080C4FF0010808FA0CF3B1F874
:1007800000C00CEA03069E4221D183004FF00F0CFB
:100790000CFA03F7BC4305FA03FC4CEA040491F895
:1007A00003C0BCF1280F05D100F1080C08FA0CF8C1
:1007B000C2F8148091F803C0BCF1480F07D100F1D2
:1007C000080C4FF0010808FA0CF8C2F81080401C21
:1007D0000828CED35460BDE8F0814FF6FF71018048
:1007E000022181700421C170704702460020936885
:1007F0000B400BB1012000E00020704701468868E3
:1008000080B2704702460020D3680B400BB1012034
:1008100000E0002070470146C86880B2704701615F
:100820007047416170470AB1016100E04161704762
:10083000C16070474FF480320A43826181618261F6
:1008400082698269704702460020434B18684FF660
:100850008073184040EA021008433F4B186070470D
:100860003E49C8617047F0B50A46002300240021C4
:10087000002500F00046B6F1004F02D1364EF16976
:1008800001E0354E7168C0F3034583B200F44016B1
:10089000B6F5401F08D121F070612F4E766826F022
:1008A00070662D4F7E6012E000F48016B6F5801F52
:1008B00006D1032606FA05F4A14341F0706106E073
:1008C000460D360103FA06F6B14341F0706122B1DC
:1008D000460D360103FA06F6314300F00046B6F144
:1008E000004F02D11C4EF16101E01B4E7160F0BD62
:1008F00030B500228B071C0F0F2303FA04F2164BAE
:1009000008338C1053F824309343134C08348D1063
:1009100044F8253023468C1053F824308C07240FDC
:1009200000FA04F423430C4C08348D1044F82530AD
:1009300030BD0A49DC310860704700000008014002
:10094000000C01400010014000140140001801405B
:10095000001C014000200140000001400000204236
:1009600010B50446F748844209D10121480500F03A
:10097000F4FB00214FF4001000F0EFFB08E0012130
:10098000880500F0EAFB00214FF4800000F0E5FB51
:1009900010BD2DE9F04385B004460D460026B14652
:1009A0000427DFF8A483A6884FF6C0700640684687
:1009B00000F03FFBDDF80880E448B8FBF0F01FFAD8
:1009C00080F946EA0906A68020884FF6FE710840A5
:1009D00020800026DE49286888420CD8286840001C
:1009E000B8FBF0F087B2042F00DA04273E4309F188
:1009F0000100208427E0E8884BF6FF71884206D189
:100A0000286800EB4000B8FBF0F087B209E02868E6
:100A100000EBC00101EB0010B8FBF0F087B247F427
:100A20008047C7F30B0008B947F0010747F40040BF
:100A300006434FF4967009FB00F04FF47A7190FB77
:100A4000F1F0401C2084A683208840F00100208023
:100A500026884FF6F5300640A88869890843064382
:100A60002680A88929890843208105B0BDE8F08344
:100A700041F288310160002181804BF6FF71C18015
:100A80000021018141814FF480418181704721B172
:100A9000028842F00102028004E002884FF6FE73F1
:100AA0001A400280704721B1828842F4006282803D
:100AB00004E082884FF2FF731A408280704721B1B0
:100AC000828842F48052828004E082884EF6FF736E
:100AD0001A408280704721B1028842F480720280FD
:100AE00004E002884FF6FF631A400280704721B18C
:100AF000028842F40072028004E002884FF6FF533D
:100B00001A400280704721B1028842F4806202805C
:100B100004E002884FF6FF331A40028070470A460D
:100B2000002181894FF60173194002F0FE03194339
:100B30008181704721B1828942F00102828104E003
:100B400082894FF6FE731A408281704721B1028874
:100B500042F04002028004E002884FF6BF731A4060
:100B6000028070471AB183880B43838002E0838838
:100B70008B4383807047018270470146088AC0B268
:100B8000704712B141F0010102E04FF6FE731940C7
:100B90000182704708B5024600200090009200983C
:100BA000084400900098008808BD21B1028842F4F2
:100BB0000042028003E00288C2F30E020280704706
:100BC000B1F5006F04D1028842F40062028004E0B3
:100BD00002884FF2FF731A4002807047B1F5005F40
:100BE00004D1028842F40052028004E002884DF6EB
:100BF000FF731A400280704721B1028842F480528C
:100C0000028004E002884EF6FF731A4002807047AB
:100C1000B1F5006F04D1028842F40062028004E062
:100C200002884FF2FF731A400280704721B1028898
:100C300042F02002028004E002884FF6DF731A407F
:100C4000028070470146088B0012704721B102886C
:100C500042F01002028004E002884FF6EF731A405F
:100C60000280704721B9028842F08002028004E0CD
:100C700002884FF67F731A4002807047B1F5804FAB
:100C800005D0828B4BF6FF731A40828303E0828B80
:100C900042F480428283704770B5024600240025EA
:100CA00000230020958A138B1B0445EA030626F0D7
:100CB0007F4404EA01068E4201D1012000E00020B9
:100CC00070BD10B501460020002300228B8A0A8BDC
:100CD000120443EA020424F07F4010BD0CB5024622
:100CE000002000230193009300920B0F019321F049
:100CF0007F41019B1BB1009B1433009303E0090C5F
:100D0000009B18330093009B1B680B400BB1012024
:100D100000E000200CBD002221F07F42D3438382FB
:100D2000704730B5024600200023948801F0E0654A
:100D300004EA154321F07F41948A0C4054B14BB131
:100D4000012008E00054004000127A0040420F00E9
:100D5000A0860100002030BD002221F07F42D34355
:100D60008382704710B50121080700F0F6F90021D1
:100D70004FF0805000F0F1F910BD2A490862704729
:100D800028490861704701460020274A106820F072
:100D9000E0000843106070472249A03108607047A6
:100DA00010B502460020204B186820F003001043C5
:100DB00018601E4B1B6843F004031C4C2360012980
:100DC00001D130BF00E020BF184B1B6823F00403A3
:100DD000164C236010BD1448006840F0040012490E
:100DE00008600846006840F0020008600F4800688C
:100DF00040F004000D49086000BF00BF30BF7047DD
:100E000001460020084A52680A400AB1012000E069
:100E1000002070470449096841EA8001024A1160D4
:100E20007047000000000E420070004010ED00E02E
:100E3000DF48006840F00100DD490860084640686E
:100E4000DC490840DA49486008460068DA49084049
:100E5000D74908600846006820F4802008600846EA
:100E6000406820F4FE0048604FF41F00886070471F
:100E7000CF49096821F48031CD4A116011460968D3
:100E800021F480211160B0F5803F03D0B0F5802FB0
:100E90000ED106E0C649096841F48031C44A1160A8
:100EA00007E0C349096841F4A021C14A116000E08C
:100EB00000BF00BF704710B501460022002300208C
:100EC0004A11012A02D1BA4C236806E0022A02D153
:100ED000B74C236A01E0B64C636A01F01F0201249B
:100EE00094401C400CB1012000E0002010BD38B53A
:100EF000002000900024002500BF3120FFF7DBFF19
:100F000005460098401C00900098B0F5A06F01D0F5
:100F1000002DF2D03120FFF7CEFF08B1012400E010
:100F20000024204638BD01460020A14A106820F068
:100F3000F80040EAC10010607047A049086070479F
:100F4000024600209A4B586820F47C1042EA0103C4
:100F50001843974B58607047984908667047014698
:100F60000020934A506820F0030008435060704707
:100F70008F48406800F00C007047014600208C4A02
:100F8000506820F0F0000843506070470146002090
:100F9000874A506820F4E06008435060704701467B
:100FA0000020834A506820F4605040EAC10050603D
:100FB000704729B17E4A527A02437D4B5A7204E04F
:100FC0007B4A527A82437A4B5A7270477B49D831B6
:100FD0000860704701460020754A506820F4404080
:100FE0000843506070470021714A20321170704AE6
:100FF00082F82010012802D004280AD104E001213F
:101000006B4A2032117005E00521694A20321170C7
:1010100000E000BF00BF704769490860704764493D
:10102000096A0143624A11627047654944390860A0
:10103000704730B500210022002400235C4D6D680C
:1010400005F00C0121B1042905D0082923D105E0C0
:101050005C4D056022E05B4D05601FE0544D6D68FE
:1010600005F47012524D6D6805F48034022505EBCD
:1010700092421CB9544D554305600BE04C4D6D68D0
:1010800005F400351DB1504D5543056002E04D4D4E
:101090005543056002E04B4D056000BF00BF444D65
:1010A0006D6805F0F0010909484D6B5C0568DD408D
:1010B00045603F4D6D6805F4E061090A434D6B5C86
:1010C0004568DD4085603A4D6D6805F46051C90A98
:1010D0003E4D6B5C4568DD40C560354D6D6805F47F
:1010E0004041890B3A4D6B5CC568B5FBF3F5056172
:1010F00030BD29B12E4A526902432D4B5A6104E09A
:101100002B4A526982432A4B5A61704729B1284AB7
:1011100092690243264B9A6104E0254A9269824310
:10112000234B9A61704729B1214AD2690243204B6F
:10113000DA6104E01E4AD26982431D4BDA617047CE
:1011400029B11B4AD2680243194BDA6004E0184AFD
:10115000D2688243164BDA60704729B1144A12698B
:101160000243134B1A6104E0114A12698243104B87
:101170001A61704712494039086070470F49C864C6
:1011800070470B49C87170470948406A40F0807049
:1011900007494862704701460020054A92680A40A4
:1011A0000AB1012000E000207047014988727047B1
:1011B000001002400000FFF8FFFFF6FE0000424270
:1011C0008004424200127A0000093D001400002011
:1011D0002400002029B1504A128802434E4B1A8045
:1011E00004E04D4A128882434B4B1A8070474A48AC
:1011F000001D008840F010004749091D0880704715
:101200004548001D00884FF6EF7108404249091D0E
:1012100008807047002140481C300188001F00886A
:1012200041EA0040704700B50246FFF7E0FF100CAE
:10123000394918310880091D0A80FFF7E1FF00BD18
:1012400000B50246FFF7D3FFC2F30340324908312D
:101250000880091D0A80FFF7D3FF00BD00B50246D4
:10126000FFF7C5FF100C2C4920310880091D0A80AA
:10127000FFF7C6FF00BD0020274910310988090784
:10128000080B2549143109880843704700BF2248DC
:10129000001D008800F020000028F8D070471E488C
:1012A000001D00884FF6F77108401B49091D088092
:1012B00000BF1948001D008800F008000028F8D081
:1012C000704701460020144A121D12880A400AB1D4
:1012D000012000E0002070470F49091D0988814363
:1012E0000D4A121D11807047014600200A4A121D46
:1012F00012880A40D0B2084A12880A4012B108B1D6
:10130000012000E0002070470349091D098881433E
:10131000014A121D118070470028004010B5044694
:10132000BE48844208D101218014FFF709FF002143
:10133000A014FFF705FF16E0B948844208D1012147
:101340000014FFF70AFF00212014FFF706FF0AE050
:10135000B448844207D10121C013FFF7FEFE0021EB
:10136000E013FFF7FAFE10BD10B50022028802F468
:1013700041520B884C8823438C882343CC882343D9
:101380000C8923434C8923438C892343CC892343F1
:101390001A430280838B4FF2FF74234083830B8AAE
:1013A000038210BD2DE9F04F85B005460C464FF085
:1013B000000902274FF000084FF0010B0026B2464B
:1013C000A88B4FF240010840A88302202884B5F87A
:1013D0001C90A068022801D100BF38E0A08810B995
:1013E0004FF0010B01E04FF0020B8D48854200D118
:1013F00000E000BF6846FFF71CFEDDF800A0E088B3
:10140000B0F5007F0AD14FEA1A2000EB80004000BF
:10141000A168B0FBF1F0401D86B20BE04FEA4B1023
:10142000BAFBF0F000EB80004000A168B0FBF1F0E7
:10143000401D86B20A20B6FBF0F606F00108A6EBC6
:101440000800C0F34F074FF6FF7000EA0828022F8C
:1014500001DBFF2F02DD02274FF00008E08840EAA1
:10146000080038432884A088A1890843618808437C
:101470002188084340F4006040EA0909A5F81C905F
:1014800005B0BDE8F08F0021018041808180C180DE
:10149000018141818181C181072101827047002141
:1014A000018041808180C180022181600021818191
:1014B000704721B1028842F04002028004E00288B5
:1014C0004FF6BF731A400280704721B1828B42F4FD
:1014D0008062828304E0828B4FF6FF331A4082835E
:1014E000704730B5002400230C110125A540ABB294
:1014F0001AB185881D43858002E085889D438580DB
:1015000030BD1AB183880B43838002E083888B430C
:1015100083807047818170470146888970474FF604
:10152000FF62914204D0028842F48072028004E09B
:1015300002884FF6FF631A400280704721B182880B
:1015400042F00402828004E082884FF6FB731A4066
:101550008280704702884FF2FF731A40028002882F
:101560000A4302807047018841F48051018070472E
:1015700021B1028842F40052028004E002884DF654
:10158000FF731A400280704702460020012901D0F3
:10159000108B00E0908A70470146088A7047B1F5C9
:1015A000804F04D1028842F48042028004E0028825
:1015B0004BF6FF731A4002807047024600201389E1
:1015C0000B400BB1012000E000207047CA430281AC
:1015D0007047F0B50246002000240023002501F0EA
:1015E0000F070126BE40B4B20B1101269E40B3B2D4
:1015F000968806EA03051689264016B10DB101202A
:1016000000E00020F0BD10B5002201F00F0401231E
:10161000A3409AB2D343038110BD000000300140C3
:1016200000380040003C004010B50446FE488442AB
:1016300008D10121C014FFF783FD0021E014FFF75A
:101640007FFDC4E0B4F1804F08D101210846FFF7C7
:1016500084FD00210120FFF780FDB8E0F3488442BB
:1016600008D101210220FFF778FD00210220FFF7B9
:1016700074FDACE0EE48844208D101210420FFF75C
:101680006CFD00210420FFF768FDA0E0E9488442DA
:1016900008D101210820FFF760FD00210820FFF795
:1016A0005CFD94E0E448844208D101211020FFF75A
:1016B00054FD00211020FFF750FD88E0DF488442F0
:1016C00008D101212020FFF748FD00212020FFF74D
:1016D00044FD7CE0DA48844208D101214014FFF740
:1016E0002FFD00216014FFF72BFD70E0D5488442E8
:1016F00009D10121C804FFF723FD00214FF4002088
:10170000FFF71EFD63E0D048844209D1012108059E
:10171000FFF716FD00214FF48010FFF711FD56E092
:10172000CA48844209D101214805FFF709FD00217B
:101730004FF40010FFF704FD49E0C548844208D18A
:1017400001214020FFF709FD00214020FFF705FDA2
:101750003DE0C048844208D101218020FFF7FDFC14
:1017600000218020FFF7F9FC31E0BB48844208D11A
:1017700001218015FFF7F1FC0021A015FFF7EDFC1A
:1017800025E0B648844209D101210804FFF7D8FCBE
:1017900000214FF48030FFF7D3FC18E0B0488442BA
:1017A00009D101214804FFF7CBFC00214FF40030A0
:1017B000FFF7C6FC0BE0AB48844208D10121880446
:1017C000FFF7BEFC00214FF48020FFF7B9FC10BDED
:1017D00000220288944B98420ED0994B98420BD02D
:1017E000B0F1804F08D0914B984205D0904B984271
:1017F00002D0904B984204D14FF68F731A404B8819
:101800001A438D4B984207D08C4B984204D04FF628
:10181000FF431A40CB881A4302808B8883850B884C
:101820000385814B98420BD0854B984208D08B4B57
:10183000984205D08A4B984202D08A4B984201D1F7
:101840000B7A038601238382704770B5002400223F
:101850000023058C4FF6FE7635400584028C838884
:10186000048B4FF68F752C40B51E2C400D882C43F1
:10187000751E2A400D892A434D882A436A4DA84285
:101880000BD06F4DA84208D0744DA84205D0744DBE
:10189000A84202D0734DA84213D14FF6F7752A40E3
:1018A0004D892A434FF6FB752A408D882A434FF60F
:1018B000FF652B404FF6FF552B408D892B43CD897B
:1018C0002B4383800483CD888586028470BD70B5E8
:1018D000002400220023058C4FF6EF763540058466
:1018E000028C8388048B48F6FF752C404FF6FF4529
:1018F0002C400D884FF6FF7606EA05252C434FF65F
:10190000DF752A400D8906EA05152A434D8806EA47
:1019100005152A43444DA84202D0494DA8421DD185
:101920004FF67F752A404D894FF6FF7606EA05157A
:101930002A434FF6BF752A408D8806EA05152A43CB
:101940004FF6FF352B404FF2FF752B408D8906EA8D
:1019500085052B43CD8906EA85052B4383800483C7
:10196000CD880587028470BD70B500240022002355
:10197000058C4FF6FF6635400584028C8388848B86
:101980004FF68F752C404FF6FC752C400D882C437C
:101990004FF6FF552A400D894FF6FF7606EA0525DA
:1019A0002A434D8806EA05252A431F4DA84202D046
:1019B000234DA8421DD14FF2FF752A404D894FF6A5
:1019C000FF7606EA05252A434FF6FF352A408D8823
:1019D00006EA05252A434EF6FF752B404DF6FF75A6
:1019E0002B408D8906EA05152B43CD8906EA05159E
:1019F0002B4383808483CD888587028470BD70B536
:101A0000002200230024058C4EF6FF763540058425
:101A1000038C8488828B48F6FF752A404FF6FF4579
:101A20002A400D8820E00000002C01400004004006
:101A300000080040000C004000100040001400406E
:101A400000340140004C014000500140005401406E
:101A500000180040001C00400020004000400140F1
:101A600000440140004801404FF6FF7606EA052594
:101A70002A434DF6FF752B400D8906EA05352B43A9
:101A80004D8806EA05352B43FA4DA84202D0FA4D9F
:101A9000A84208D14BF6FF752C408D894FF6FF7692
:101AA00006EA85152C4384808283CD88A0F84050B7
:101AB000038470BD828B4FF2FF331A408283828B86
:101AC0004FF6FF7303EA01231A4382837047F0B590
:101AD0000C461546002200210026078C4EF6FF7C9E
:101AE00007EA0C070784828B018C4FF6FF7707EA21
:101AF000043640F6FF473A404FF6FF7707EA0527DE
:101B00003A434FF6FF7707EA03373A43D94FB842D3
:101B10000ED0D94FB8420BD0B0F1804F08D0D74F7C
:101B2000B84205D0D64FB84202D0D64FB84206D1FF
:101B30004DF6FF77394046F48057394305E047F6C4
:101B4000FF57394044F48057394382830184F0BD04
:101B5000828B4FF6F3731A408283828B0A4382830F
:101B60007047F0B50C461546002200210026078C70
:101B70004FF6FF6C07EA0C070784828B018C4FF647
:101B8000FF7707EA04264FF60C773A404FF6FF77C7
:101B900007EA03172F433A43B64FB8420ED0B64F69
:101BA000B8420BD0B0F1804F08D0B44FB84205D046
:101BB000B34FB84202D0B34FB84206D14FF6FF57E9
:101BC000394046F48077394305E04FF2FF573940FA
:101BD00044F48077394382830184F0BD028B4FF255
:101BE000FF331A400283028B4FF6FF7303EA01238F
:101BF0001A4302837047F0B50C46154600220021B7
:101C00000026078C4FF6EF7C07EA0C070784028B4F
:101C1000018C4FF6FF7707EA041640F6FF473A407B
:101C20004FF6FF7707EA03373A434FF6FF7707EAA5
:101C300005273A438F4FB8420ED08F4FB8420BD092
:101C4000B0F1804F08D08D4FB84205D08C4FB842CC
:101C500002D08C4FB84206D14FF6DF77394046F0BC
:101C60001007394305E04FF65F77394044F010071D
:101C7000394302830184F0BD028B4FF6F3731A409F
:101C80000283028B0A4302837047F0B50C46154667
:101C900000220021068C4FF6FE773E400684028B20
:101CA000018C4FF60C7632407E1C06EA03162E435A
:101CB0003243704EB0420ED06F4EB0420BD0B0F1F6
:101CC000804F08D06D4EB04205D06D4EB04202D06C
:101CD0006C4EB04206D14FF6FD76314044F001061D
:101CE000314305E04FF6F576314044F001063143CB
:101CF00002830184F0BD70B505460C465D488542FF
:101D00000ED05D4885420BD0B5F1804F08D05B48BE
:101D1000854205D05A48854202D05A48854200D1B2
:101D200000E000BF208850B92389A2886188284636
:101D3000FFF7ABFFE1882846FFF79EFF25E02088EC
:101D400004280AD12389A28861882846FFF753FF17
:101D5000E1882846FFF742FF17E0208808280AD1CB
:101D60002389A28861882846FFF7FBFEE188284680
:101D7000FFF7EEFE09E02389A28861882846FFF775
:101D8000A6FEE1882846FFF795FE70BD2DE9F041DB
:101D900005460C4600260127608808B9022600E0A7
:101DA0000026A088012801D1022700E00127208811
:101DB000A0B92389A28861882846FFF766FFE188D9
:101DC0002846FFF759FF23893A4631462846FFF750
:101DD00012FFE1882846FFF701FF13E02389A2885C
:101DE00061882846FFF707FFE1882846FFF7F6FEDF
:101DF00023893A4631462846FFF747FFE1882846BF
:101E0000FFF73AFFBDE8F0810A884B881A438B88B8
:101E10001A43CB881A430B891A434B891A438B897F
:101E20001A43A0F8442070474FF6FF7181800021CB
:101E30000180C18041800172704700210180418092
:101E40008180C180018141818181C18170470021F0
:101E500001804180012181800021C1800181704782
:101E60000021018041808180C18001814181818187
:101E700070470000002C0140003401400004004085
:101E800000080040000C004021B1028842F001022D
:101E9000028004E002884FF6FE731A400280704709
:101EA00031B1B0F8442042F40042A0F8442005E0EB
:101EB000B0F84420C2F30E02A0F8442070471AB1D3
:101EC00083890B43838102E083898B43838170473D
:101ED0008182704741EA0203A0F8483070471AB186
:101EE00083890B43838102E083898B43838170471D
:101EF00001894FF6F8721140018170470A460021AE
:101F000001894FF68F73194011430181704730B535
:101F100004460D4629462046FFF7F0FF208940F091
:101F20000700208130BD2DE9F04104460D461646DC
:101F30001F46602D06D13B46012231462046FFF761
:101F40005AFE05E03B46012231462046FFF79DFE42
:101F500029462046FFF7D2FF208940F00700208164
:101F6000BDE8F08130B50C4600210189C9B24FF6B9
:101F7000FF7505EA0325154325432943018130BD3B
:101F80002DE9F04105460E46174698460024434683
:101F90003A4631462846FFF7E5FF2C894FF6F870A0
:101FA000044044F007044FF68F70044044F070047E
:101FB0002C81BDE8F081F0B504460D4616461F465B
:101FC0003B46324629462046FFF7CCFF208940F4A5
:101FD00080402081F0BD0185828270470A46002141
:101FE00001884FF68F731940114301807047F0B597
:101FF0000C4615461E460021002200230189028B53
:10200000038C4FF6F877394021434FF6FC473A40AE
:1020100040F201173A434FF6DD773B404FF6FF772A
:1020200007EA06172F433B43018102830384F0BD77
:102030000A460021018B4FF68F731940114301832B
:1020400070470A460021018B48F6FF7319404FF68E
:10205000FF7303EA02231943018370470A460021F4
:10206000818B4FF68F7319401143818370470A4665
:102070000021818B48F6FF7319404FF6FF7303EA86
:10208000022319438183704721B1028842F0800204
:10209000028004E002884FF67F731A400280704786
:1020A00021B1828842F00402828004E082884FF6E7
:1020B000FB731A408280704721B1828842F0080287
:1020C000828004E082884FF6F7731A40828070475E
:1020D00021B1828842F00102828004E082884FF6BA
:1020E000FE731A40828070470A460021018B4FF62A
:1020F000F77319401143018370470A460021018B91
:102100004FF2FF7319404FF6FF7303EA022319439E
:10211000018370470A460021818B4FF6F7731940FF
:102120001143818370470A460021818B4FF2FF7370
:1021300019404FF6FF7303EA022319438183704766
:102140000A460021018B4FF6FB73194011430183AE
:1021500070470A460021018B4FF6FF3319404FF6B6
:10216000FF7303EA02231943018370470A460021E3
:10217000818B4FF6FB7319401143818370470A46E8
:102180000021818B4FF6FF3319404FF6FF7303EAAE
:1021900002231943818370470A460021018B4FF6C1
:1021A0007F7319401143018370470A460021018B58
:1021B000C1F30E014FF6FF7303EA022319430183B3
:1021C00070470A460021818B4FF67F7319401143F7
:1021D000818370470A460021818BC1F30E014FF6BF
:1021E000FF7303EA02231943818370470A460021E3
:1021F000018C4FF6FD7319401143018470470A4664
:102200000021018C4FF6F773194011430184704788
:102210000A460021018C4FF6DF7319404FF6FF7319
:1022200003EA02131943018470470A460021018C16
:102230004FF67F7319404FF6FF7303EA02131943F9
:10224000018470470A460021018C4FF6FF53194064
:102250004FF6FF7303EA02231943018470470A46CD
:102260000021018C4FF2FF7319404FF6FF7303EA10
:1022700002231943018470470A460021018C4DF660
:10228000FF7319404FF6FF7303EA023319430184C9
:10229000704730B5002301248C40A3B2048C9C43CA
:1022A0000484048C02FA01F5ADB22C43048430BDE1
:1022B00030B5002304248C40A3B2048C9C430484D6
:1022C000048C02FA01F5ADB22C43048430BD70B524
:1022D0000346002000241846183001258D40ACB27A
:1022E0001D8CA5431D8409B1082909D100EB6100AB
:1022F000056825F0700505600568154305600EE06A
:102300000D1FC5F34E052844056825F4E04505601A
:1023100005684FF6FF7606EA02263543056070BD74
:1023200021B1028842F00202028004E002884FF6E6
:10233000FD731A400280704721B1028842F0040206
:10234000028004E002884FF6FB731A400280704757
:1023500021B1828842F08002828004E082884FF6B8
:102360007F731A408280704702884FF6F7731A40D5
:10237000028002880A430280704782884FF68F737A
:102380001A40828082880A438280704702894FF611
:10239000F8731A40028102890A4302817047028958
:1023A0004FF67F731A40028102890A430281704707
:1023B00081847047818570478186704701877047A7
:1023C00081877047A0F84010704702884FF6FF439E
:1023D0001A40028002880A43028070470146888EB4
:1023E00070470146088F70470146888F7047014645
:1023F000B1F8400070470146888C70470146088D4F
:10240000704702460020138A0B400BB1012000E008
:1024100000207047CA430282704730B50246002050
:1024200000230024158A05EA0103958905EA0104C1
:1024300013B10CB1012000E0002030BDCA4302827C
:102440007047000010B50446FB48844209D10121C1
:102450008803FEF775FE00214FF48040FEF770FE02
:1024600032E0F648844209D101214804FEF775FEA6
:1024700000214FF40030FEF770FE25E0F048844262
:1024800009D101218804FEF768FE00214FF4802065
:10249000FEF763FE18E0EB48844209D10121C8042D
:1024A000FEF75BFE00214FF40020FEF756FE0BE026
:1024B000E548844208D101210805FEF74EFE0021BF
:1024C0004FF48010FEF749FE10BD2DE9F04786B0AD
:1024D00005460E460024A24600BFA1460027B0894B
:1024E00000B100BF2F462C8A4CF6FF700440F088E4
:1024F00004432C82AC894EF6F3100440B088318935
:102500000843718908430443AC81AC8A4FF6FF400D
:102510000440B0890443AC8201A8FEF78AFDC64896
:10252000874202D1DDF810A001E0DDF80CA0A889F7
:1025300000F4004040B10AEBCA0000EB0A10316819
:102540004900B0FBF1F807E00AEBCA0000EB0A1003
:1025500031688900B0FBF1F86420B8FBF0F00401A9
:102560002009642101FB1089A88900F4004040B1D2
:10257000322000EBC900B0FBF1F000F0070004438B
:1025800008E0322000EB09106421B0FBF1F000F00C
:102590000F0004432C8106B0BDE8F0874FF41651BC
:1025A000016000218180C18001810C2141810021D5
:1025B0008181704710B502460020108A4FF2FF0358
:1025C00018400B884C8823438C882343CC882343B2
:1025D0001843108210BD0021018041808180C1809C
:1025E000704721B1828942F40052828104E08289DD
:1025F0004DF6FF731A4082817047F0B50346002400
:1026000000260025002040F66A17B94200D100BF1D
:102610001846C1F3421401F01F06012707FA06F518
:10262000012C01D10C3004E0022C01D1103000E06B
:1026300014301AB107682F43076002E00768AF4300
:102640000760F0BD1AB1838A0B43838202E0838A5C
:102650008B4383827047028A4FF6F0731A400282DE
:10266000028A0A430282704782894FF2FF731A403E
:10267000828182890A438281704721B1828942F036
:102680000202828104E082894FF6FD731A40828142
:102690007047028A4FF6DF731A400282028A0A43A9
:1026A0000282704721B1028A42F48042028204E031
:1026B000028A4BF6FF731A4002827047C1F3080288
:1026C0008280704701468888C0F30800704781897E
:1026D00041F0010181817047028BD2B20283028BEB
:1026E00042EA012202837047028B02F47F42028396
:1026F000028B0A430283704721B1828A42F0200292
:10270000828204E0828A4FF6DF731A408282704729
:1027100021B1828A42F01002828204E0828A4FF65E
:10272000EF731A408282704721B1828A42F0080218
:10273000828204E0828A4FF6F7731A4082827047E1
:1027400021B1828942F40042828103E08289C2F38E
:102750000E028281704721B1828A42F40062828235
:1027600004E0828A4FF2FF731A4082827047828AA5
:102770004FF6FB731A408282828A0A438282704734
:1027800021B1828A42F00202828204E0828A4FF6FC
:10279000FD731A408282704702460020B1F5007F27
:1027A00000D100BF13880B400BB1012000E00020D6
:1027B000704701F40072B2F5007F00D100BFCA4338
:1027C0000280704770B502460024002300250020D7
:1027D00040F66A16B14200D100BFC1F3421501F0C4
:1027E0001F03012606FA03F3012D02D19689334017
:1027F00006E0022D02D1168A334001E0968A33406A
:102800000C12012606FA04F41688344013B10CB1F8
:10281000012000E0002070BD10B50022002340F62A
:102820006A14A14200D100BF0A1201249440A3B24D
:10283000DC43048010BD000000380140004400402B
:1028400000480040004C00400050004002F03AF8C0
:1028500002F096F802F01CF902F015FC01F07AFB88
:1028600002F09EF90C4801F0C8FB01F0DFFC02F019
:10287000ABFC02F0B1FC02F034FD084802F081FD2F
:1028800008E007480078012804D102F0FCFC002091
:1028900003490870F5E7000034000020A400002080
:1028A0002E000020704700BFFEE700BFFEE700BF1C
:1028B000FEE700BFFEE7704770477047704710B5EE
:1028C0000120FEF711FD00284CD00120FEF71CFD71
:1028D000FEF7A0FC0446FE4901F0D8FCFD48007854
:1028E000012820D1FC480068401CFB4908600846CC
:1028F00000683C2805D10020086008464068401C5C
:102900004860F54840683C2806D10020F2494860FC
:1029100008468068401C8860EF488068182802D10B
:102920000020ED498860ED480078012814D1E8487E
:102930008068EB49896888420ED1E5484068E849DB
:102940004968884208D1E2480068E5490968884238
:1029500002D10120E3490870E348007801F0C8FC87
:10296000FEF794FC10BD10B50121E048FFF755FDBE
:1029700000287DD0DE4800680521B0FBF1F201FBA4
:102980001200032875D1D849097899B9D94908782E
:1029900000EBD0714910A0EB410159B90123D6A237
:1029A0000621002002F017F90123D3A207210020FD
:1029B00002F011F9CC490978A1B9CE49087800EBA9
:1029C000D0714910A0EB410101290BD10123CAA20A
:1029D00006215A2002F0FFF80123C7A207215A203E
:1029E00002F0F9F8C0490978012916D1C1490878DF
:1029F00000EBD0714910A0EB410171B90123BEA2D7
:102A00000621002002F0E7F80123BBA207210020E5
:102A100002F0E1F8BA4802F0B4FCB34909780129A0
:102A200017D1B449087800EBD0714910A0EB4101EF
:102A300001290ED10123B0A206215A2002F0CBF8C1
:102A40000123ADA207215A2002F0C5F8AC4802F0DC
:102A500098FCA5490978022917D1A6490878C11719
:102A600000EB91718910A0EB810171B9012301E0A4
:102A7000FBE1F1E1A3A20021084602F0ACF801233A
:102A8000A0A21946002002F0A6F897490978022969
:102A900015D198490878C11700EB91718910A0EB06
:102AA000810101290BD1012393A20221002002F010
:102AB00092F8012390A20321002002F08CF88A49A9
:102AC0000978022915D18B490878C11700EB91715B
:102AD0008910A0EB810102290BD101238CA20421D2
:102AE000002002F078F8012389A20521002002F0DD
:102AF00072F87D490978022915D17E490878C117F5
:102B000000EB91718910A0EB810103290BD1012306
:102B100082A20621002002F05EF801237FA2072195
:102B2000002002F058F870490978032913D171493F
:102B3000087800EBD0714910A0EB410159B901238D
:102B400079A20021084602F046F8012376A2194630
:102B5000002002F040F864490978032914D165493E
:102B6000087800EBD0714910A0EB410101290BD18D
:102B7000012372A20221002002F02DF801236FA28E
:102B80000321002002F027F85748007804280DD1CF
:102B900058480078032190FBF1F201FB120028B99C
:102BA00001236AA20721002002F015F84E480078A0
:102BB00004280ED14F480078032190FBF1F201FB6D
:102BC0001200012805D1012360A20721282002F06C
:102BD00002F845480078042814D1464800780321BB
:102BE00090FBF1F201FB120002280BD1012348A255
:102BF0000621462001F0EFFF012345A207214620D0
:102C000001F0E9FF3848007805280DD139480078EF
:102C1000032190FBF1F201FB120028B901234BA222
:102C20000721002001F0D7FF2F48007805280ED19A
:102C300030480078032190FBF1F201FB12000128DB
:102C400005D1012341A20721282001F0C4FF264815
:102C50000078052814D127480078032190FBF1F271
:102C600001FB120002280BD1012329A206214620D4
:102C700001F0B1FF012326A20721462001F0ABFF9E
:102C800019490978062913D11A49087800EBD0713F
:102C90004910A0EB410159B901231CA206210020D3
:102CA00001F099FF012319A20721002001F093FFF1
:102CB0000D490978062956D10E49087800EBD071E4
:102CC0004910A0EB410101294DD1012313A23FE09E
:102CD0003400002029000020880000202800002067
:102CE0006C0000202E0000202A0000200010004070
:102CF000300000202C000020202020202020000078
:102D0000A40000202020202020202020202020009F
:102D100020202020202020202020000020202020F3
:102D20002020202000000000202020202020202023
:102D30002020202020202020000000002020202013
:102D40002020202020202020202020002000000003
:102D50000621462001F03FFF0123AFF24002072188
:102D6000462001F038FFFE48007807280ED1FD48C4
:102D70000078032190FBF1F201FB120030B901232E
:102D8000AFF238020721002001F025FFF448007857
:102D900007280FD1F3480078032190FBF1F201FBE3
:102DA0001200012806D10123AFF26002072128207A
:102DB00001F011FFEA480078072816D1E9480078A9
:102DC000032190FBF1F201FB120002280DD1012337
:102DD000AFF2C4020621462001F0FDFE0123AFF24E
:102DE000D0020721462001F0F6FEDD4909780829C6
:102DF00013D1DC49087800EBD0714910A0EB4101F8
:102E000059B90123D8A20621002001F0E4FE0123D4
:102E1000D5A20721002001F0DEFED149097808295A
:102E200016D1D049087800EBD0714910A0EB4101D0
:102E300001290DD10123AFF240120621462001F0F5
:102E4000CAFE0123AFF250120721462001F0C3FE53
:102E50000020C749086008E0C148007801F048FA3E
:102E6000C3480068401CC24908600121C148FFF7FF
:102E7000E5FA10BD00B587B04020FDF79AFBA0B180
:102E8000C82002F0A3F800BF4021BB48FDF7ADFC0D
:102E90000028F9D0B9A003F0BFF8B2480078401C70
:102EA000B04908704020FDF78FFB8020FDF781FBC3
:102EB00000287DD0C82002F089F800BF8021AE48EC
:102EC000FDF793FC0028F9D0ADA003F0A5F801F0C0
:102ED00067FEAC490978B9B9A1490978A1B9A149F6
:102EE000087800EBD0714910A0EB410161B99C4812
:102EF0000078A54908700120A2490870022098496D
:102F000008700020974908709E490978B9B994491A
:102F10000978A1B99349087800EBD0714910A0EB6A
:102F2000410101290BD18E48007897490870012092
:102F3000944908708A49087000208A4908709149AC
:102F40000978C1B986490978012914D185490878D9
:102F500000EBD0714910A0EB410161B980480078C5
:102F60008949087001208749087002207C4908704F
:102F700000207C49087083490978C1B978490978EB
:102F8000012914D17749087800EBD0714910A0EBE2
:102F9000410101290BD1724800787B49087001205A
:102FA0007849087000206E4908706E49087000E08A
:102FB00009E374490978C9B969490978022915D121
:102FC00068490878C11700EB91718910A0EB810165
:102FD00061B9634800786C4908700120694908703C
:102FE00003205F49087000205E4908706549097830
:102FF000D1B95B490978022916D15A490878C11715
:1030000000EB91718910A0EB810101290CD154488A
:1030100000785D49087001205A490870062050491F
:10302000087000204F49087056490978D1B94C49B9
:103030000978022916D14B490878C11700EB917124
:103040008910A0EB810102290CD1454800784E4936
:10305000087001204B490870082041490870002081
:103060004049087047490978D1B93D490978022992
:1030700016D13C490878C11700EB91718910A0EB7B
:10308000810103290CD1364800783F49087001209E
:103090003C49087009203249087000203149087005
:1030A0003849097821BB2E490978032920D12D49B7
:1030B000087800EBD0714910A0EB4101C1B9284854
:1030C00000783149087001202E49087004202449F5
:1030D000087000202D490870224908702C4880682B
:1030E0002C4988602A484068486029480068086080
:1030F0002449097829BB1A490978032921D119499A
:10310000087800EBD0714910A0EB4101012918D1DA
:10311000134800781C49087001201A4908700520DE
:103120000F4908700020194908700E4908701848A6
:103130004069184948611648006908611448C06828
:10314000C8601048007838BB0548007804283CD196
:103150000E480078032190FBF1F201FB12001CE005
:103160002A0000202C000020202020202000000029
:10317000300000200010004000100140310000002D
:1031800032000000A90000202B000020AA0000202F
:10319000340000205000002017E0B0B9FE4800784D
:1031A00090FBF1F201FB120010B101280CD105E0F7
:1031B000FA488068401CF949886005E0F748806853
:1031C000401EF649886000BF00BFF548007818BB74
:1031D000F448007804281FD1F3480078032190FBBD
:1031E000F1F201FB1200012816D1EB48007890FBA8
:1031F000F1F201FB120010B101280CD105E0E74803
:103200004068401CE549486005E0E4484068401ECD
:10321000E249486000BF00BFE148007818BBE148C0
:10322000007804281FD1E0480078032190FBF1F2D8
:1032300001FB1200022816D1D748007890FBF1F26A
:1032400001FB120010B101280CD105E0D348006841
:10325000401CD249086005E0D0480068401ECF49B4
:10326000086000BF00BFCE48007888B9CD4800781C
:1032700004280DD1C8480078032190FBF1F201FB2E
:103280001200022804D1C8480078401CC6490870C2
:10329000C348007810BBC348007805281ED1C24837
:1032A0000078032190FBF1F201FB1200B0B9BA489B
:1032B000007890FBF1F201FB120010B101280CD153
:1032C00005E0B6484069401CB449486105E0B34890
:1032D0004069401EB149486100BF00BFB048007856
:1032E00018BBB048007805281FD1AF4800780321EB
:1032F00090FBF1F201FB1200012816D1A6480078DC
:1033000090FBF1F201FB120010B101280CD105E095
:10331000A2480069401CA149086105E09F48006976
:10332000401E9E49086100BF00BF9D48007818BB41
:103330009C48007805281FD19B480078032190FB0A
:10334000F1F201FB1200022816D19348007890FB9D
:10335000F1F201FB120010B101280CD105E08F48F9
:10336000C068401C8D49C86005E08C48C068401E9C
:103370008A49C86000BF00BF8948007888B9894879
:10338000007805280DD184480078032190FBF1F2E4
:1033900001FB1200022804D183480078401C8249B6
:1033A00008707F490978A9B97E490978062911D1A1
:1033B0007949087800EBD0714910A0EB410149B977
:1033C0007A48007818B901207849087002E0002096
:1033D0007649087072490978C9B97249097806298D
:1033E00015D16D49087800EBD0714910A0EB41016F
:1033F00001290CD16B4800786D490870012068499B
:103400000870072067490870002063490870644805
:10341000007810BB6348007807281ED16248007806
:10342000032190FBF1F201FB1200B0B95A48007879
:1034300090FBF1F201FB120010B101280CD105E064
:103440005C488068401C5B49886005E0594880689A
:10345000401E5849886000BF00BF5148007818BB23
:103460005048007807281FD14F480078032190FB6F
:10347000F1F201FB1200012816D14748007890FBB9
:10348000F1F201FB120010B101280CD105E049480E
:103490004068401C4749486005E046484068401E77
:1034A0004449486000BF00BF3D48007818BB3D4814
:1034B000007807281FD13C480078032190FBF1F2E7
:1034C00001FB1200022816D13348007890FBF1F27C
:1034D00001FB120010B101280CD105E0354800684D
:1034E000401C3449086005E032480068401E3149FC
:1034F000086000BF00BF2A48007888B929480078D2
:1035000007280DD124480078032190FBF1F201FB3C
:103510001200022804D124480078401C2249087077
:103520001F490978C1B91F490978082914D11A49D6
:10353000087800EBD0714910A0EB410161B901207E
:10354000174908701C48007818B901201A490870FA
:1035500002E000201849087011490978C1B91149E1
:103560000978082914D10C49087800EBD07149106A
:10357000A0EB410101290BD101200949087000206D
:10358000054908700D498860486008600A4908705C
:1035900000200349087013E02C0000205000002098
:1035A000A90000202A000020AA00002028000020F6
:1035B0002B0000206C000020290000208800002043
:1035C0008020FDF701F84FF48070FCF7F2FFE8B3BC
:1035D000C82001F0FBFC00BF4FF480713E48FDF7AE
:1035E00004F90028F8D03DA002F016FD01F0D8FA49
:1035F0003B480078042803D039480078052820D1BA
:103600003748007804280AD13648806836498860EF
:1036100034484068486033480068086009E0314831
:103620004069314948612F48006908612D48C068E8
:10363000C8602D4800F0CDFC4AF2A5510420FCF7EB
:103640001AFF27480078032804D100E01DE002207B
:103650002649087022480078062804D10220234910
:10366000087000F0F4FD1E480078022802D1002006
:103670001E4908701D4800781949087000201C492F
:1036800008704FF48070FCF79FFF4FF40070FCF758
:1036900090FFD0B1C82001F099FC00BF4FF4007139
:1036A0000D48FDF7A2F80028F8D0684600F0DCFCD1
:1036B000684600F08EFC4AF2A5510420FCF7DBFEC0
:1036C0004FF40070FCF780FF00BF0548007800F061
:1036D0000FFE07B000BD00000010014033000000E5
:1036E0002A00002050000020340000202B00002081
:1036F0002C00002002460E2A70D2DFE802F0860776
:103700001019222B353F49535D67727CF748405CA6
:1037100000F0080008B9002070470120FCE7F348DA
:10372000405C00F0040008B90020F5E70120F3E751
:10373000EE48405C00F0020008B90020ECE70120F0
:10374000EAE7EA48405C00F0010008B90020E3E73E
:103750000120E1E7E54B481C185C00F0800008B947
:103760000020D9E70120D7E7E04B481C185C00F0A7
:10377000400008B90020CFE70120CDE7DB4B481C13
:10378000185C00F0200008B90020C5E70120C3E75D
:10379000D64B481C185C00F0100008B90020BBE7AD
:1037A0000120B9E7D14B481C185C00F0080008B9AB
:1037B0000020B1E70120AFE7CC4B481C185C00F0BB
:1037C000040008B90020A7E70120A5E7C74B481C63
:1037D000185C00F0020010B900209DE715E0012000
:1037E0009AE7C24B481C185C00F0010008B90020A1
:1037F00092E7012090E7BD4B881C185C00F0800028
:1038000008B9002088E7012086E7002084E72DE939
:10381000FF4F83B00C461F466421039890FBF1F0E4
:10382000C0B20190039890FBF1F201FB1200C5B207
:103830000198132806D00198142803D0002007B05F
:10384000BDE8F08F0198142806D105F1630000EB64
:1038500040001FFA80F904E0681E00EB40001FFAE8
:1038600080F9A24909F10200085C00F0600A4FEA01
:103870006A1A09F10200085C00F01F0BBAF1010F8F
:1038800004D1ABF1010000F0FF0803E00BF11E00D2
:1038900000F0FF080A2C07DA601E9549095C0598BC
:1038A0000844401E86B208E0A4F10A00914931F8AC
:1038B000101005980844401E86B2022C08DDE91756
:1038C00005EB91718910A5EB810109B9701C86B2D5
:1038D00046453EDBA6EB080086B20124012002909B
:1038E0000020009049460298FFF704FF10B94FF0FE
:1038F0001D0A01E04FF01E0A7C4911F80900C117AA
:1039000000EB11714FEA211B1DE0A6EB0A0086B205
:103910000298401CC0B202905C4508D10098C04398
:10392000C0B20090009820B9601CC4B201E0601CD5
:10393000C4B249460298FFF7DDFE10B94FF01D0AE8
:1039400001E04FF01E0A5645DFDA701CC0B2059048
:103950004FE0A8EB060000F0FF081DB96325132017
:10396000019001E0681EC5B2A9F103001FFA80F9B9
:103970000C245E4911F80900C11700EB11714FEAE0
:10398000211BBBF1000F02D10C20029001E00D20A1
:1039900002900020009049460298FFF7ABFE10B954
:1039A0004FF01D0A01E04FF01E0A1BE0A8EB0A00D1
:1039B00000F0FF080298401EC0B20290009808B9BB
:1039C000601EC4B25C4503D10098C043C0B20090F1
:1039D00049460298FFF78EFE10B94FF01D0A01E02C
:1039E0004FF01E0AD045E1DCAAEB0800401CC0B233
:1039F0000590019807F8010B07F8015B07F8014BE8
:103A00000598387001201AE710B50A46B0F5F86F2E
:103A100009DBA0F5F86398B23C2390FBF3F403FBB9
:103A20001403D9B20AE0C0F5F86398B23C2390FBC6
:103A3000F3F403FB1403C3F13C03D9B2117010BDBE
:103A400010B5002305E011F8014B00F8014B5C1C98
:103A5000A3B29342F7DB10BD2DE9FC4105460E46AB
:103A600017461C460F2224A12046FFF7E9FF01ABB1
:103A70003A4631462846FFF7CAFE08B9BDE8FC8140
:103A80009DF805209DF8041001EBC10303EB011123
:103A900002EB81006946FFF7B7FF9DF800000A219D
:103AA00090FBF1F201FB1200174951F8208002222D
:103AB00041462046FFF7C4FF9DF800000C2190FB13
:103AC000F1F201FB1200114951F820800222414617
:103AD000A01CFFF7B5FF9DF8060001281AD10222AD
:103AE0000BA1A01DFFF7ACFF1EE000004262000822
:103AF0004865000852650008BCD7D7D3C4EAD5FD95
:103B0000D4C2B3F5D2BB00000C0100203401002068
:103B1000D5FD00009DF80600401E8C4A52F820108A
:103B20000222A01DFFF78CFF9DF807000A280EDD7A
:103B30009DF807000A2190FBF1F0854951F820809B
:103B40000222414604F10A00FFF77AFF05E0022253
:103B500080A104F10A00FFF773FF9DF80700401EE3
:103B60000A2190FBF1F201FB1200784951F8208004
:103B70000222414604F10C00FFF762FF00BF7DE71F
:103B80002DE9F04104460D46B4F5FA6F03DB40F62B
:103B90000200844202DD0020BDE8F0810DB10C2D51
:103BA00001DD0020F8E7681E4006010E0F2A01DB48
:103BB000481CC1B208464FEAE17C01EB5C7C4FEA4D
:103BC000EC08A4F5FA6C0CEB4C0CC444DFF88881CB
:103BD00018F80C604FEAE17C01EB5C7C4FEAEC0CDE
:103BE000A1EBCC0C06FA0CFC0CF080075B48405CA7
:103BF000187097B1012905D00B2903D0122901D0E3
:103C0000152907D140F2FC70844203DA1878401C71
:103C1000187002E01878401E18700120BCE72DE9EA
:103C2000F8430546884614461E466B4622464146E2
:103C30002846FFF7A5FF10B90020BDE8F883A8F1DA
:103C400001004006070E0F2C01DB781CC7B29DF85F
:103C50000000844208D1424850F82710052230461F
:103C6000FFF7EEFE0120E8E70F223EA13046FFF706
:103C7000E7FE9DF8000084420BDA394850F827101F
:103C80000422B01CFFF7DCFE9DF80000001BC4B24C
:103C90004DE0781C172801DD0020CEE7304A781C63
:103CA00052F820100422B01CFFF7CAFE0F2C0ADACB
:103CB0006B460F2241462846FFF762FF9DF8000041
:103CC000001BC4B233E0A8F101002A4911F80090AA
:103CD000B8F1020F17D1E91705EB91718910A5EB27
:103CE000810181B9642195FBF1F201FB125131B9D7
:103CF0004FF4C87195FBF1F201FB125119B909F1AA
:103D0000010000F0FF0908F10100C0B280460D2853
:103D100001D14FF001086B46012241462846FFF7CA
:103D20002FFFA9EB04009DF800100844C4B20A203C
:103D300094FBF0F03030B0720A2094FBF0F100FBFD
:103D400011403030F072012077E70000640100205C
:103D500094010020B3F50000976400083065000866
:103D6000AC000020C0EBC1A2B6ACBBB9D3D03F3F82
:103D7000CCEC000064650008F0B58DB0044630223C
:103D8000704901A801F03AFE6069451E642195FB67
:103D9000F1F12846EA1705EB9272C1EBA2014FF44C
:103DA000C87295FBF2F28F186069C11700EB917130
:103DB0008910A0EB810191B96422616991FBF2F352
:103DC00002FB131131B99200616991FBF2F302FB1E
:103DD000131121B92169022901DD012600E0002625
:103DE00040F26D1005FB00712069401E01AA52F8D7
:103DF00020000844E16808440644072096FBF0F1DF
:103E000000FB1160A0610DB0F0BD10B5014608695E
:103E1000801E0861002805DC08690C3008614869CB
:103E2000401E48616423486990FBF3F04A69D31748
:103E300002EB9373C0EBA3004FF4C87492FBF4F34E
:103E4000034440F26F14086960430C2490FBF4F0C3
:103E50001844CB68034440F26D1402FB04303A4B23
:103E6000C01A00EB40008B6803EBC000C0EB0010F1
:103E70004B6803EB8000C0EB00100B6803EB800085
:103E800010BD2DE9F04107460C463048B7FBF0F66F
:103E9000B7FBF0F100FB11784FF4616098FBF0F094
:103EA000A0604FF4616098FBF0F100FB11803C21B1
:103EB00090FBF1F060604FF4616098FBF0F100FB63
:103EC00011803C2190FBF1F201FB1200206040F2D6
:103ED000B27509E005F0030010B94FF4B77001E0C6
:103EE00040F26D10361A6D1C05F0030010B94FF446
:103EF000B77001E040F26D10B042EBDD65616069C2
:103F0000C11700EB91718910A0EB810111B91D203F
:103F10000F494860012505E0681E0D4951F8200051
:103F2000361A6D1C681E0A4951F82000B042F3DDB4
:103F30001C2048602561701CE0602046FFF71CFFD4
:103F4000BDE8F081706500088BFA0A00805101001D
:103F5000A401002008B54FF4C060FCF7F5F9032078
:103F60008DF8000001208DF801008DF802008DF819
:103F700003006846FCF7EDF908BD10B501214FF0CC
:103F8000C050FDF7D0F80120FCF7F7FEFCF74AFA25
:103F90000120FDF728F800BF4120FCF78CFF002826
:103FA000FAD04FF48070FDF73AF80120FDF73DF8A4
:103FB000FDF775F9FDF76AF901210846FDF70AF9E1
:103FC000FDF764F947F6FF70FDF73AF9FDF75EF982
:103FD00010BD70B50446FFF7D0FFFDF757F9204636
:103FE000FFF7CAFE2046FFF710FFA0F5E14528467F
:103FF000FDF719F9FDF74AF970BD10B50446042024
:10400000FCF745FA4AF2A551884208D02046FFF74E
:10401000E0FF4AF2A5510420FCF72DFA21E001212E
:104020004FF0C050FDF77FF80120FCF7A6FE7B2083
:10403000FCF741FF18B1E6A001F0EEFF06E07A20A0
:10404000FCF739FF10B1EBA001F0E6FFF2A001F0A0
:10405000E3FFFDF724F901210846FDF7BBF8FDF762
:1040600015F9FDF791F810BD38B504460020009011
:104070000025F1A001F0D0FF00BFFD4801F0CCFF0A
:104080006946FCA001F0CCFC40F2B2710098884275
:1040900004D340F2F6710098884204D9F6A0009942
:1040A00001F0BAFF06E0FDA0009901F0B5FF00980D
:1040B000606100E0E1E700BF00BFFE4801F0ACFF37
:1040C0006946ECA001F0ACFC009810B100980C28F7
:1040D00004D9E9A0009901F09FFF06E0F6A000993D
:1040E00001F09AFF0098206100E0E6E700BF206938
:1040F0000D2832D2DFE800F0310714080F09100A4A
:104100000B110C120D0000BF00BF00BF00BF00BFAD
:1041100000BF1F2521E000BF00BF00BF1E251CE01F
:104120006069C11700EB91718910A0EB810191B911
:104130006422616991FBF2F302FB131131B9920021
:10414000616991FBF2F302FB131121B92169022984
:1041500001DD1D2500E01C2500BF00BF00BF294672
:10416000DB4801F059FF6946C2A001F059FC0098F4
:1041700010B10098A84204D9BFA0009901F04CFFEB
:1041800006E0D4A0009901F047FF0098E06000E04D
:10419000E5E700BF00BFD54801F03EFF6946B5A086
:1041A00001F03EFC0098172804D9B3A0009901F053
:1041B00033FF06E0CEA0009901F02EFF0098A0602A
:1041C00000E0E8E700BF00BFCF4801F025FF6946E7
:1041D000A8A001F025FC00983B2804D9A6A00099CE
:1041E00001F01AFF06E0C9A0009901F015FF009840
:1041F000606000E0E8E700BF00BFCA4801F00CFFC4
:1042000069469CA001F00CFC00983B2804D99AA0B8
:10421000009901F001FF06E0C3A0009901F0FCFE47
:104220000098206000E0E8E700BF38BD10B5082026
:10423000FCF72DF904462012C149886004F00F00F4
:1042400048600C20FCF723F9BE49087010BD10B57A
:10425000BB48007900F00F00B94A127A40EA022008
:1042600081B20820FCF707F9B548007900F00F008B
:10427000B34A127A40EA022081B20820FCF7FBF828
:10428000B04801780C20FCF7F6F810BD70B5B4B05A
:1042900005460C4605F5E14621463046FFF7F1FD9F
:1042A000A06818B9606808B9206810B1A64800680D
:1042B00048B1227B217CA38A98B202ABFFF7A7FA10
:1042C0000020A1490860E0680090A0A1A448D4E9BA
:1042D000043201F0B1FE0020A1490873206800906B
:1042E000A0A1A548D4E9013201F0A6FE34B070BD0A
:1042F00038B50446002C43D10123994A00211E20E1
:1043000000F069FC9D4880680A2190FBF1F0C5B27D
:104310002A460221002000F0F8FC984880680A2113
:1043200090FBF1F201FB1200C5B22A4602211A20CD
:1043300000F0EBFC0221382000F021FD8F4840689E
:104340000A2190FBF1F0C5B22A4602214A2000F072
:10435000DCFC8A4840680A2190FBF1F201FB120064
:10436000C5B22A460221642000F0CFFC84A20621B7
:10437000002000F0AFFD84A206215A2000F0AAFD23
:10438000012C23D17D4B1A7B197C9B8A98B2804BE0
:10439000FFF762FB7E4A0221002000F09BFD774878
:1043A00080697C4951F820207BA17D4801F044FEC2
:1043B0007B4A0421002000F08DFD704840690C21EB
:1043C00090FBF1F201FB1200C01EEBE026E10000C1
:1043D0000D0A0D0A20506F776572204F6E205265CE
:1043E000736574206F636375727265642E2E2E2E52
:1043F000000000000D0A0D0A2045787465726E6198
:104400006C205265736574206F63637572726564A6
:104410002E2E2E2E000000000D0A204E6F206E65FD
:10442000656420746F20636F6E66696775726520BE
:104430005254432E2E2E2E000D0A3D3D3D3D3D3D56
:104440003D3D3D3D3D3D3D3D3D3D3D3D3D3D3D3D9C
:104450003D3D3DC9E8D6C3CAB1BCE43D3D3D3D3D0F
:104460003D3D3D3D3D3D3D3D3D3D3D3D3D00000033
:10447000D06F0008256400000D0A20C4FACAE4C801
:10448000EBB5C4CAFDD7D6CAC73A2564A3ACB2BB44
:10449000B7FBBACFD2AAC7F3000000000A0D202054
:1044A000C4EAB7DDB1BBC9E8D6C3CEAA3A202564B9
:1044B0000A0D0000486F00080A0D2020D4C2B7DDA5
:1044C000B1BBC9E8D6C3CEAA3A2025640A0D0000C4
:1044D000A07000080A0D2020C8D5C6DAB1BBC9E813
:1044E000D6C3CEAA3A2025640A0D00008C6F0008BE
:1044F0000A0D2020CAB1D6D3B1BBC9E8D6C3CEAA13
:104500003A2025640A0D00005C7000080A0D202086
:10451000B7D6D6D3B1BBC9E8D6C3CEAA3A20256454
:104520000A0D0000187000080A0D2020C3EBD6D336
:10453000B1BBC9E8D6C3CEAA3A2025640A0D000053
:104540006C000020280000202002002025302E349E
:10455000642D25302E32642D25302E32640000006B
:10456000E009002025302E32643A25302E32643A9C
:1045700025302E3264000000EF09002034000020B6
:10458000B2CBB5A500000000C5A9C0FA000000002C
:10459000FE090020D4010020D0C7C6DA2573000030
:1045A000300A0020924951F820502A4691A19348A0
:1045B00001F042FD914A0421502000F08BFC90A2B2
:1045C0000021084600F086FC8E48437802788EA1D0
:1045D000914801F031FD01238F4A0021102000F0A5
:1045E000FAFA8EA200213C2000F074FC8548C378C2
:1045F000827885A1884801F01FFD0123864A0021A9
:104600004C2000F0E8FAAFF288020621002000F00A
:1046100061FC83A206215A2000F05CFC022C13D11D
:1046200081A20021084600F055FC81A20221002051
:1046300000F050FC80A20421002000F04BFC80A27E
:104640000621002000F046FC032C09D17EA20021A7
:10465000084600F03FFC7FA20221002000F03AFC57
:10466000042C21D17E48006800907D484368AFF259
:104670000C1182687B4801F0DFFC0123794A032199
:10468000232000F0A8FA012377A20721002000F0E0
:10469000A2FA012375A20721282000F09CFA74A237
:1046A0000621462000F016FC052C21D16C48C0687C
:1046B00000906B480369AFF26C1142696E4801F0DB
:1046C000BBFC01236C4A00211E2000F084FA012368
:1046D00065A20721002000F07EFA012363A20721D2
:1046E000282000F078FA62A20621462000F0F2FBB2
:1046F000062C24D161480068009060484368AFF2FE
:104700009C1182685E4801F097FC01235C4A0321FA
:10471000232000F060FA5BA20621462000F0DAFBBD
:104720005A480078012805D159A20621002000F03E
:10473000D1FB04E057A20621002000F0CBFB072CA0
:1047400021D14E48006800904C484368AFF2EC110C
:1047500082684B4801F070FC0123494A0321232061
:1047600000F039FA012340A20721002000F033FABB
:1047700001233EA20721282000F02DFA3CA20621A9
:10478000462000F0A7FB082C23D143480068009086
:1047900041484368AFF234218268404801F04CFC44
:1047A00001233E4A0321232000F015FA3C480078FB
:1047B00028B937A20621002000F08CFB04E039A2C2
:1047C0000621002000F086FB37A20621462000F0DB
:1047D00081FB092C0AD1012335A20321232000F0FB
:1047E000FAF936A20521232000F074FB38BD000041
:1047F000F00100202573C4EA00000000620A0020D6
:10480000CAAA0000A40000203A25302E32642E25CA
:10481000302E326400000000D00A0020CEC200001A
:10482000B9ABC0FA00000000D0A3D7BC0000000064
:10483000C4D6D6D300000000BCC6CAB1C6F700007B
:10484000B9D8D3DACED20000CAB1BCE4D0A3D7BC69
:1048500000000000C8D5C6DAD0A3D7BC0000000015
:1048600050000020940A00202B0000002D000000C2
:10487000CFC2D2BBB8F60000A30A00206C00002013
:10488000B20A0020C9E8D6C30000000028000020BA
:10489000BFAA0000B9D8000088000020C10A00208B
:1048A00029000020CDA30000B8B4CEBB000000005A
:1048B000323031393231343134350000D1EEBDA8D7
:1048C0000000000000B585B001210420FCF71EFCAB
:1048D00001218803FCF71AFC4FF40070ADF81000BA
:1048E00018208DF8130003208DF8120004A9224827
:1048F000FBF7E8FE4FF48060ADF8100004208DF85F
:10490000130004A91C48FBF7DDFE4FF4E1300090D2
:104910000020ADF80400ADF80600ADF80800ADF8D1
:104920000C000C20ADF80A0069461448FDF7CDFDD7
:1049300001211248FDF755FE05B000BD70B50446D3
:104940000D46E1B20D48FDF7B9FE00BF80210B48CE
:10495000FDF722FF0028F9D0204670BD10B50446AF
:1049600000BF20210548FDF717FF0028F9D00348B4
:10497000FDF7A8FE10BD000000080140003801400E
:1049800000B585B001214805FCF7CDFB01210820C9
:10499000FCF7BCFB4020ADF8000003208DF80200BE
:1049A0001C208DF803006946FB48FBF78BFE802036
:1049B000ADF800006946F848FBF784FE0020ADF82A
:1049C00008004BF6FF70ADF80A007820ADF80C0037
:1049D0004FF48060ADF80E000001ADF81000EF4814
:1049E000019001A9EE48FBF7D4FF0121EC48FCF748
:1049F0004EF805B000BD70B504460D4600BF4FF43B
:104A00000031E748FCF76AF90028F8D10121E448B1
:104A1000FCF761F800BFE349E148FCF73DF90028E5
:104A2000F9D000227821DE48FCF7ABF800BFDE4960
:104A3000DB48FCF731F90028F9D02146D848FCF7CB
:104A40009AF800BFD849891CD548FCF725F90028F9
:104A5000F8D02946D248FCF78EF800BFD249891C0D
:104A6000CF48FCF719F90028F8D00121CC48FCF711
:104A70003EF870BD10B5044621460020FFF7BBFF8D
:104A800010BD10B5044621464020FFF7B4FF10BD0D
:104A900010B5012000F0B5FAAE20FFF7EBFF2020A3
:104AA000FFF7E8FF1020FFF7E5FFB020FFF7E2FF78
:104AB000C820FFF7DFFF0020FFF7DCFF1020FFF723
:104AC000D9FF4020FFF7D6FF8120FFF7D3FFFF205B
:104AD000FFF7D0FFA120FFF7CDFFA620FFF7CAFF09
:104AE000A820FFF7C7FF3F20FFF7C4FFA420FFF770
:104AF000C1FFD320FFF7BEFF0020FFF7BBFFD5208B
:104B0000FFF7B8FFF020FFF7B5FFD920FFF7B2FF9E
:104B10002220FFF7AFFFDA20FFF7ACFF1220FFF7EC
:104B2000A9FFDB20FFF7A6FF2020FFF7A3FF8D20C2
:104B3000FFF7A0FF1420FFF79DFFAF20FFF79AFFBC
:104B400010BD70B504460D4605F1B001C8B2FFF7BF
:104B500091FF102141EA1410FFF78CFF04F00F00C1
:104B6000FFF788FF70BD70B50646002415E004F11C
:104B7000B001C8B2FFF77EFF0020FFF77BFF1020D7
:104B8000FFF778FF002504E03046FFF77AFF681C46
:104B9000C5B2802DF8DB601CC4B2082CE7DB70BD09
:104BA00010B50020FFF7DFFF10BD10B58D20FFF717
:104BB00061FF1420FFF75EFFAF20FFF75BFF10BD22
:104BC00010B58D20FFF756FF1020FFF753FFAE20E2
:104BD000FFF750FF10BD2DE9F047064689461746FE
:104BE0009A464FF0000800240025BAF1010F03D0C7
:104BF000BAF1020F5ED125E020E0785D203800F0A8
:104C0000FF087E2E04DD002609F1010000F0FF09F7
:104C100049463046FFF795FF002409E008EB4801BC
:104C2000624A02EB4101085DFFF72BFF601CC4B232
:104C3000062CF3DBB01DC6B2681CC5B2785D002837
:104C4000DBD137E032E0785D203800F0FF08782EC5
:104C500004DD002609F1010000F0FF094946304655
:104C6000FFF76FFF002407E004EB0811504A505C87
:104C7000FFF707FF601CC4B2082CF5DB09F1010047
:104C8000C1B23046FFF75DFF002408E004EB0811D5
:104C90000831474A505CFFF7F4FE601CC4B2082C90
:104CA000F4DB06F10800C6B2681CC5B2785D0028C6
:104CB000C9D100BF00BFBDE8F0872DE9F0418046B3
:104CC0000E46174600247D0131464046FFF739FF66
:104CD00000BF06E03749485DFFF7D3FE6D1C601C3E
:104CE000C4B2102CF6DB701CC1B24046FFF729FF9E
:104CF000002406E02F49485DFFF7C3FE6D1C601CD1
:104D0000C4B2102CF6DBBDE8F0812DE9F0418046FD
:104D10000E46174600BF07EBC700C50031464046A8
:104D2000FFF70FFF002406E02349485DFFF7A9FEC7
:104D30006D1C601CC4B2182CF6DB701CC1B240465E
:104D4000FFF7FFFE002406E01B49485DFFF799FED0
:104D50006D1C601CC4B2182CF6DBB01CC1B24046FE
:104D6000FFF7EFFE002406E01349485DFFF789FED8
:104D70006D1C601CC4B2182CF6DBBDE8F0812DE977
:104D8000F04107460E460024002531463846FFF71D
:104D9000D8FE00BF19E00000000C0140801A060098
:104DA000005400400100030082000700A0650008D5
:104DB000C867000824020020C80200206F49485D2F
:104DC000FFF75FFE6D1C601CC4B20C2CF6DB701C80
:104DD000C1B23846FFF7B5FE002406E06749485DDA
:104DE000FFF74FFE6D1C601CC4B20C2CF6DBB01C30
:104DF000C1B23846FFF7A5FE002406E05F49485DD2
:104E0000FFF73FFE6D1C601CC4B20C2CF6DBBDE846
:104E1000F0812DE9F04107460D4600240026294681
:104E20003846FFF78EFE00BF05E00020FFF729FEA1
:104E3000761C601CC4B20C2CF7DB681CC1B238466F
:104E4000FFF77FFE002405E00020FFF71AFE761C26
:104E5000601CC4B20C2CF7DBA81CC1B23846FFF7AB
:104E600070FE002405E00020FFF70BFE761C601C9E
:104E7000C4B20C2CF7DBBDE8F081F0B589B0054673
:104E80000E4617460024394601A800F0C9FAF1B2CF
:104E9000E8B2FFF756FE00BF06E001A911F81400C2
:104EA000FFF7EFFD601CC4B2102CF6DB721CD1B210
:104EB000E8B2FFF746FE002408E0012101EB4401BF
:104EC00001AA505CFFF7DDFD601CC4B2102CF4DBBE
:104ED00009B0F0BD2DE9F04106460F4614460DE03D
:104EE0002588280200EB252085B22A46394630461F
:104EF000FFF7C3FF06F1100086B2A41C207800283B
:104F0000EED1BDE8F0812DE9F05F06460F469046F0
:104F10001C46DDF828A04FF0000BE11704EB51719F
:104F2000C910A4EBC10131B92046E11704EB51715E
:104F3000C1F3C70506E02046E11704EB5171C91023
:104F4000491CCDB23D4614E029463046FFF7F9FD35
:104F5000B1460AE059460BF1010B1AF80100FFF7C0
:104F600090FD09F1010000F0FF09C145F2DB681C6A
:104F7000C5B2A542E8DBBDE8F09F0000A402002016
:104F800030B50146B1F1807F01D3012030BD21F061
:104F90007F40401E4FF0E022506150170F22002842
:104FA00007DA13071D0E2A4B00F00F04241F1D55AE
:104FB00003E013071C0E274B1C5400BF00204FF0CA
:104FC000E0229061072010610020DFE770B5044601
:104FD0002148FFF7D5FF002508E000BF4FF0E02093
:104FE000006900F480300028F8D06D1CA542F4D38D
:104FF0004FF0E020006920F001004FF0E02108614F
:1050000070BD70B50446002504E04FF47A70FFF7D8
:10501000DDFF641EA542F8D370BD70B5044648207C
:10502000FFF7AEFF002508E000BF4FF0E020006969
:1050300000F480300028F8D06D1CA542F4D34FF066
:10504000E020006920F001004FF0E021086170BD10
:1050500018ED00E000E400E04019010008B54FF44D
:10506000C060FBF771F917208DF8000001208DF862
:10507000010000208DF8020001208DF80300684631
:10508000FBF767F908BD0EB5FFF7E8FF012118200F
:10509000FCF73CF801210846FCF738F84020ADF851
:1050A000080048208DF80B0002A92C48FBF70AFBEA
:1050B00006210220FBF71CFC4020009000208DF808
:1050C00004000C208DF8050001208DF806006846CC
:1050D000FBF718FA8020ADF8080002A91F48FBF77B
:1050E000F1FA07210220FBF703FC802000906846BC
:1050F000FBF708FA4FF48070ADF8080002A91748D2
:10510000FBF7E0FA08210220FBF7F2FB4FF4807076
:1051100000906846FBF7F6F94FF40070ADF8080010
:1051200002A90E48FBF7CEFA09210220FBF7E0FBAB
:105130004FF4007000906846FBF7E4F910208DF8FA
:105140000B008001ADF8080002A90448FBF7BAFA89
:105150004FF480610148FBF764FB0EBD0010014075
:1051600008B54FF4C060FBF7EFF836208DF800006B
:1051700001208DF8010003208DF8020001208DF838
:1051800003006846FBF7E5F808BD0EB501211020C5
:10519000FBF7C9FF42F20F70ADF8040040F29F50D8
:1051A000ADF8000069460B48FCF712FB01210948E5
:1051B000FDF730F9012211460648FCF780FE012177
:1051C0000448FCF761FE0EBD10B5FFF7C9FFFFF7FD
:1051D000DCFF10BD0010004008B501210420FBF7E2
:1051E00095FF10208DF803000001ADF800000320AA
:1051F0008DF8020069462E48FBF764FA4FF480717F
:105200002B48FBF70EFB08BD70B50446B4F57A7F5A
:1052100013D02848B0FBF4F54FF480712448FBF715
:10522000FEFA2846FFF7F9FE4FF480712048FBF79D
:10523000F8FA2846FFF7F1FE03E04FF47A70FFF723
:10524000C5FE70BD10B504464FF480711848FBF7D9
:10525000E6FA2046FFF7BAFE4FF480711448FBF7D8
:10526000E0FA2046FFF7B2FE10BD10B5002400BFE3
:1052700006E0114931F8241088B2FFF7E3FF641CFF
:105280000C2CF6DB10BD70B50024002500BF0BE030
:105290000B2406E0084931F8241088B2FFF7D2FF4A
:1052A000641E002CF6DA6D1C062DF1DB70BD0000CB
:1052B0000008014020A107009809002008B501213D
:1052C0004020FBF723FF4020ADF8000010208DF8B0
:1052D000030003208DF8020069465048FBF7F2F9FD
:1052E00008BD10B5FFF7EAFF40214C48FBF797FADD
:1052F00010BD08B54020ADF8000048208DF803002F
:1053000069464648FBF7DEF908BD08B54020ADF810
:10531000000010208DF8030003208DF8020069467C
:105320003E48FBF7CFF908BD70B50025002424E006
:1053300000BF40213948FBF758FA0028F9D028204F
:10534000FFF76BFE40213548FBF74FFA01280DD1DE
:1053500000BF40213148FBF748FA0128F9D0C4F1D9
:10536000070101208840C0B2054304E0C4F10701F1
:10537000012088408543601CC4B2082CD8DB284635
:1053800070BD10B50446FFF7C0FF40212348FBF76E
:1053900048FA1220FFF71AFE40212048FBF73FFA97
:1053A0001E20FFF73AFEFFF7A4FF40211B48FBF742
:1053B0001CFA70BB00BF40211848FBF716FA002802
:1053C000F9D000BF40211548FBF70FFA0128F9D0AA
:1053D000FFF7AAFF2070FFF7A7FF6070FFF7A4FF99
:1053E000A070FFF7A1FFE070FFF79EFF2071FFF7AD
:1053F0008CFF40210948FBF712FA207861780844B5
:10540000A1780844E17808442179884202D101203A
:1054100010BD01E00020FBE70020F9E70018014083
:105420002DE9F04180460C461248007820B900F082
:1054300027F801200F4908700F481049086025120D
:10544000E6B2A5F1A101C1EB011202EB411106EB9D
:105450004101A1390802C11700EB5171CF10074873
:105460000068C1192022404600F0B8F90020BDE8CC
:10547000F0810000C809002000301800CC0900208D
:1054800000B587B001210803FBF740FE0121D420BD
:10549000FBF73CFE0120ADF8040003208DF8060068
:1054A00010208DF8070001A9FE48FBF70BF920201A
:1054B000ADF8040018208DF8070001A9FA48FBF7A1
:1054C00001F94020ADF8040001A9F748FBF7FAF80C
:1054D0008020ADF8040001A9F348FBF7F3F801219F
:1054E000F048FBF79CF90020ADF808004FF48270FB
:1054F000ADF80A000020ADF80C000220ADF80E0057
:105500000120ADF810004002ADF812000820ADF8FF
:1055100014000020ADF816000720ADF8180002A90D
:10552000E248FBF721FF0121E048FBF7C2FF07B08B
:1055300000BD10B504462146DDA000F06DFD002041
:1055400010BD10B504464FF48050E54908600AE0EC
:10555000E3490868411EE24A116020B90020FFF7C4
:10556000E8FFC0B210BD0221D048FCF726F80028A1
:10557000EED02146CD48FBF7CDFF4FF48050D849FF
:1055800008600AE0D6490868411ED54A116020B972
:105590000120FFF7CEFFC0B2E4E70121C348FCF7CA
:1055A0000CF80028EED0C148FBF7B6FFC0B2D9E72F
:1055B00010B500240121BB48FBF733F90520FFF7A4
:1055C000C0FF00BFFF20FFF7BCFF044604F001004E
:1055D0000028F7D10121B348FBF721F910BD10B520
:1055E0000121B048FBF71DF90620FFF7AAFF0121B2
:1055F000AC48FBF714F910BD10B50446FFF7EFFFF8
:10560000FFF7D6FF0121A748FBF70BF92020FFF792
:1056100098FFC4F30740FFF794FFC4F30720FFF798
:1056200090FFE0B2FFF78DFF01219E48FBF7F7F8EE
:10563000FFF7BEFF10BD10B5FFF7D1FF012199485C
:10564000FBF7EFF8C720FFF77CFF01219548FBF738
:10565000E6F8FFF7ADFF10BD70B505460C461646DF
:10566000FFF7BDFF01218F48FBF7DBF80220FFF7B2
:1056700068FFC4F30740FFF764FFC4F30720FFF798
:1056800060FFE0B2FFF75DFFB6F5807F04DD4FF409
:10569000807694A000F0C0FC03E02878FFF751FF6B
:1056A0006D1C301EA6F101018EB2F6D101217D489C
:1056B000FBF7B5F8FFF77CFF70BD2DE9F05F0746FB
:1056C0000E4614464FF00008C146C2460025AB46C0
:1056D00006F0FF0ACAF10000C5B22046E11704EB4C
:1056E0001161C1F30728E11704EB11610912A4EB62
:1056F000012101F0FF09BAF1000F20D1B8F1000F2C
:1057000005D1224631463846FFF7A6FF64E009E09E
:105710004FF4807231463846FFF79EFF06F58076DB
:1057200007F58077B8F10000A8F1010101F0FF084A
:10573000EED14A4631463846FFF78EFF4CE0B8F1CD
:10574000000F18D1A94510DDA9EB050000F0FF0BF3
:105750002A4631463846FFF77FFF2E442F445A46EB
:1057600031463846FFF778FF36E022463146384664
:10577000FFF772FF30E0601B84B22046E11704EBB4
:105780001161C1F30728E11704EB11610912A4EBC1
:10579000012101F0FF092A4631463846FFF75CFF38
:1057A0002E442F4409E04FF4807231463846FFF70B
:1057B00053FF06F5807607F58077B8F10000A8F171
:1057C000010101F0FF08EED1B9F1000F04D04A4603
:1057D00031463846FFF740FFBDE8F09F70B50546FB
:1057E0000C46164601212F48FBF71BF80320FFF754
:1057F000A8FEC4F30740FFF7A4FEC4F30720FFF799
:10580000A0FEE0B2FFF79DFE04E0FF20FFF799FE47
:1058100028706D1C301EA6F101018EB2F5D1012158
:105820002048FAF7FCFF70BD2DE9F0410024002567
:105830000026002701211B48FAF7F3FF9F20FFF7FE
:1058400080FEFF20FFF77DFE0546FF20FFF779FE73
:105850000646FF20FFF775FE074601211148FAF7BB
:10586000DEFF280440EA062040EA07042046BDE89F
:10587000F08110B5002401210A48FAF7D2FFAB20CD
:10588000FFF75FFEFF20FFF75CFEFF20FFF759FEEA
:10589000FF20FFF756FEFF20FFF753FE04460121CD
:1058A000004839E00010014000080140003001408C
:1058B0003C3C2D464C4153482D4552524F522D3EB3
:1058C0003E2053504920B5C8B4FDB3ACCAB12165E0
:1058D00072726F72436F6465203D2025640A000078
:1058E000D00900203C3C2D464C4153482D45525296
:1058F0004F522D3E3E205350495F464C4153485F26
:1059000050616765577269746520746F6F206C61B0
:10591000726765210A000000FAF781FF204610BD7A
:1059200010B5044601213248FAF77BFF0320FFF748
:1059300008FEC4F30740FFF704FEC4F30720FFF797
:1059400000FEE0B2FFF7FDFD10BD10B5FF20FFF730
:10595000F8FD10BD10B504464FF48050254908608D
:1059600009E024490868411E224A116018B9022042
:10597000FFF7DFFD10BD02211F48FBF71EFE0028C8
:10598000EFD021461C48FBF7C5FD4FF48050194964
:10599000086009E017490868411E164A116018B9E5
:1059A0000320FFF7C6FDE5E701211348FBF705FEDD
:1059B0000028EFD01048FBF7AFFDDBE710B5012161
:1059C0000B48FAF72EFFB920FFF7BBFD012108486D
:1059D000FAF725FF10BD10B501210548FAF721FFA0
:1059E000AB20FFF7AEFD01210148FAF718FF10BD0B
:1059F00000100140D00900200030014040EA0103BE
:105A00009B0703D009E008C9121F08C0042AFAD274
:105A100003E011F8013B00F8013B521EF9D2704738
:105A20000FB400B589B00BA800906A4603480A99E4
:105A300000F0D0F809B05DF814FB0000D409002094
:105A40002DE9FF5F1D464FF0FF3BD5E9014691462A
:105A50005F464FF00008A9697F1C01988847296AB2
:105A6000824688470028F6D1BAF1FF3F0CD024F4D3
:105A7000C064002E19DD600614D5BAF12B0F09D0D1
:105A8000BAF12D0F0ED103E0584604B0BDE8F09FE7
:105A900044F48064A9697F1C01988847761E824679
:105AA000002E02DDBAF1300F03D0B9F1000F26D07D
:105AB00032E0A969761E44F400747F1C019888477F
:105AC0008246002E05DDBAF1780F06D0BAF1580FE4
:105AD00003D0B9F1000F10D01EE0B9F1000F02D0D1
